{
  "_format": "hh-sol-artifact-1",
  "contractName": "PowerBombUpgradeable",
  "sourceName": "contracts/PowerBombUpgradeable.sol",
  "abi": [
    {
      "anonymous": false,
      "inputs": [
        {
          "indexed": true,
          "internalType": "address",
          "name": "tokenDeposit",
          "type": "address"
        },
        {
          "indexed": false,
          "internalType": "uint256",
          "name": "tokenAmount",
          "type": "uint256"
        },
        {
          "indexed": false,
          "internalType": "uint256",
          "name": "slpAmount",
          "type": "uint256"
        }
      ],
      "name": "Deposit",
      "type": "event"
    },
    {
      "anonymous": false,
      "inputs": [
        {
          "indexed": false,
          "internalType": "uint256",
          "name": "amount",
          "type": "uint256"
        }
      ],
      "name": "Harvest",
      "type": "event"
    },
    {
      "anonymous": false,
      "inputs": [
        {
          "indexed": true,
          "internalType": "address",
          "name": "previousOwner",
          "type": "address"
        },
        {
          "indexed": true,
          "internalType": "address",
          "name": "newOwner",
          "type": "address"
        }
      ],
      "name": "OwnershipTransferred",
      "type": "event"
    },
    {
      "anonymous": false,
      "inputs": [
        {
          "indexed": true,
          "internalType": "uint256",
          "name": "oldProfileSharingFeePerc",
          "type": "uint256"
        },
        {
          "indexed": true,
          "internalType": "uint256",
          "name": "newProfileSharingFeePerc",
          "type": "uint256"
        }
      ],
      "name": "SetProfitSharingFeePerc",
      "type": "event"
    },
    {
      "anonymous": false,
      "inputs": [
        {
          "indexed": true,
          "internalType": "address",
          "name": "treasuryWallet",
          "type": "address"
        }
      ],
      "name": "SetTreasuryWallet",
      "type": "event"
    },
    {
      "anonymous": false,
      "inputs": [
        {
          "indexed": false,
          "internalType": "uint256",
          "name": "oneAmount",
          "type": "uint256"
        },
        {
          "indexed": false,
          "internalType": "uint256",
          "name": "sushiAmount",
          "type": "uint256"
        },
        {
          "indexed": false,
          "internalType": "uint256",
          "name": "boughtAmount",
          "type": "uint256"
        }
      ],
      "name": "Sold",
      "type": "event"
    },
    {
      "anonymous": false,
      "inputs": [
        {
          "indexed": false,
          "internalType": "uint256",
          "name": "oneAmount",
          "type": "uint256"
        },
        {
          "indexed": false,
          "internalType": "uint256",
          "name": "sushiAmount",
          "type": "uint256"
        }
      ],
      "name": "Update",
      "type": "event"
    },
    {
      "anonymous": false,
      "inputs": [
        {
          "indexed": true,
          "internalType": "address",
          "name": "tokenWithdraw",
          "type": "address"
        },
        {
          "indexed": false,
          "internalType": "uint256",
          "name": "slpAmount",
          "type": "uint256"
        },
        {
          "indexed": false,
          "internalType": "uint256",
          "name": "tokenAmount",
          "type": "uint256"
        }
      ],
      "name": "Withdraw",
      "type": "event"
    },
    {
      "inputs": [],
      "name": "accONEPerSLP",
      "outputs": [
        {
          "internalType": "uint256",
          "name": "",
          "type": "uint256"
        }
      ],
      "stateMutability": "view",
      "type": "function"
    },
    {
      "inputs": [],
      "name": "accSUSHIPerSLP",
      "outputs": [
        {
          "internalType": "uint256",
          "name": "",
          "type": "uint256"
        }
      ],
      "stateMutability": "view",
      "type": "function"
    },
    {
      "inputs": [
        {
          "internalType": "address",
          "name": "_token",
          "type": "address"
        },
        {
          "internalType": "uint256",
          "name": "_amount",
          "type": "uint256"
        }
      ],
      "name": "deposit",
      "outputs": [],
      "stateMutability": "nonpayable",
      "type": "function"
    },
    {
      "inputs": [],
      "name": "harvest",
      "outputs": [],
      "stateMutability": "nonpayable",
      "type": "function"
    },
    {
      "inputs": [
        {
          "internalType": "address",
          "name": "_usdt1",
          "type": "address"
        },
        {
          "internalType": "address",
          "name": "_usdc1",
          "type": "address"
        },
        {
          "internalType": "address",
          "name": "_slp",
          "type": "address"
        },
        {
          "internalType": "address",
          "name": "_one",
          "type": "address"
        },
        {
          "internalType": "address",
          "name": "_sushi",
          "type": "address"
        },
        {
          "internalType": "address",
          "name": "_rewardToken",
          "type": "address"
        },
        {
          "internalType": "address",
          "name": "_sushiSwapRouter",
          "type": "address"
        },
        {
          "internalType": "address",
          "name": "_sushiSwapChef",
          "type": "address"
        }
      ],
      "name": "initialize",
      "outputs": [],
      "stateMutability": "nonpayable",
      "type": "function"
    },
    {
      "inputs": [],
      "name": "lastTime",
      "outputs": [
        {
          "internalType": "uint256",
          "name": "",
          "type": "uint256"
        }
      ],
      "stateMutability": "view",
      "type": "function"
    },
    {
      "inputs": [],
      "name": "one",
      "outputs": [
        {
          "internalType": "address",
          "name": "",
          "type": "address"
        }
      ],
      "stateMutability": "view",
      "type": "function"
    },
    {
      "inputs": [],
      "name": "owner",
      "outputs": [
        {
          "internalType": "address",
          "name": "",
          "type": "address"
        }
      ],
      "stateMutability": "view",
      "type": "function"
    },
    {
      "inputs": [],
      "name": "pid",
      "outputs": [
        {
          "internalType": "uint256",
          "name": "",
          "type": "uint256"
        }
      ],
      "stateMutability": "view",
      "type": "function"
    },
    {
      "inputs": [],
      "name": "profitSharingFeePerc",
      "outputs": [
        {
          "internalType": "uint256",
          "name": "",
          "type": "uint256"
        }
      ],
      "stateMutability": "view",
      "type": "function"
    },
    {
      "inputs": [],
      "name": "renounceOwnership",
      "outputs": [],
      "stateMutability": "nonpayable",
      "type": "function"
    },
    {
      "inputs": [],
      "name": "rewardToken",
      "outputs": [
        {
          "internalType": "address",
          "name": "",
          "type": "address"
        }
      ],
      "stateMutability": "view",
      "type": "function"
    },
    {
      "inputs": [],
      "name": "rewarder",
      "outputs": [
        {
          "internalType": "contract IRewarder",
          "name": "",
          "type": "address"
        }
      ],
      "stateMutability": "view",
      "type": "function"
    },
    {
      "inputs": [],
      "name": "sellRewards",
      "outputs": [],
      "stateMutability": "nonpayable",
      "type": "function"
    },
    {
      "inputs": [
        {
          "internalType": "uint256",
          "name": "_percentage",
          "type": "uint256"
        }
      ],
      "name": "setProfitSharingFeePerc",
      "outputs": [],
      "stateMutability": "nonpayable",
      "type": "function"
    },
    {
      "inputs": [
        {
          "internalType": "address",
          "name": "_treasuryWallet",
          "type": "address"
        }
      ],
      "name": "setTreasuryWallet",
      "outputs": [],
      "stateMutability": "nonpayable",
      "type": "function"
    },
    {
      "inputs": [],
      "name": "slp",
      "outputs": [
        {
          "internalType": "address",
          "name": "",
          "type": "address"
        }
      ],
      "stateMutability": "view",
      "type": "function"
    },
    {
      "inputs": [],
      "name": "sushi",
      "outputs": [
        {
          "internalType": "address",
          "name": "",
          "type": "address"
        }
      ],
      "stateMutability": "view",
      "type": "function"
    },
    {
      "inputs": [],
      "name": "sushiSwapChef",
      "outputs": [
        {
          "internalType": "contract ISushiSwapV2MiniChef",
          "name": "",
          "type": "address"
        }
      ],
      "stateMutability": "view",
      "type": "function"
    },
    {
      "inputs": [],
      "name": "sushiSwapRouter",
      "outputs": [
        {
          "internalType": "contract ISushiSwapV2Router02",
          "name": "",
          "type": "address"
        }
      ],
      "stateMutability": "view",
      "type": "function"
    },
    {
      "inputs": [],
      "name": "totalBoughtToken",
      "outputs": [
        {
          "internalType": "uint256",
          "name": "",
          "type": "uint256"
        }
      ],
      "stateMutability": "view",
      "type": "function"
    },
    {
      "inputs": [],
      "name": "totalFarmedONE",
      "outputs": [
        {
          "internalType": "uint256",
          "name": "",
          "type": "uint256"
        }
      ],
      "stateMutability": "view",
      "type": "function"
    },
    {
      "inputs": [],
      "name": "totalFarmedSUSHI",
      "outputs": [
        {
          "internalType": "uint256",
          "name": "",
          "type": "uint256"
        }
      ],
      "stateMutability": "view",
      "type": "function"
    },
    {
      "inputs": [],
      "name": "totalPendingONESold",
      "outputs": [
        {
          "internalType": "uint256",
          "name": "",
          "type": "uint256"
        }
      ],
      "stateMutability": "view",
      "type": "function"
    },
    {
      "inputs": [],
      "name": "totalPendingSUSHISold",
      "outputs": [
        {
          "internalType": "uint256",
          "name": "",
          "type": "uint256"
        }
      ],
      "stateMutability": "view",
      "type": "function"
    },
    {
      "inputs": [],
      "name": "totalPendingTokenFromONE",
      "outputs": [
        {
          "internalType": "uint256",
          "name": "",
          "type": "uint256"
        }
      ],
      "stateMutability": "view",
      "type": "function"
    },
    {
      "inputs": [],
      "name": "totalSLPAmount",
      "outputs": [
        {
          "internalType": "uint256",
          "name": "",
          "type": "uint256"
        }
      ],
      "stateMutability": "view",
      "type": "function"
    },
    {
      "inputs": [
        {
          "internalType": "address",
          "name": "newOwner",
          "type": "address"
        }
      ],
      "name": "transferOwnership",
      "outputs": [],
      "stateMutability": "nonpayable",
      "type": "function"
    },
    {
      "inputs": [],
      "name": "treasuryWallet",
      "outputs": [
        {
          "internalType": "address",
          "name": "",
          "type": "address"
        }
      ],
      "stateMutability": "view",
      "type": "function"
    },
    {
      "inputs": [],
      "name": "update",
      "outputs": [
        {
          "internalType": "uint256",
          "name": "",
          "type": "uint256"
        },
        {
          "internalType": "uint256",
          "name": "",
          "type": "uint256"
        },
        {
          "internalType": "uint256",
          "name": "",
          "type": "uint256"
        }
      ],
      "stateMutability": "nonpayable",
      "type": "function"
    },
    {
      "inputs": [],
      "name": "usdc1",
      "outputs": [
        {
          "internalType": "address",
          "name": "",
          "type": "address"
        }
      ],
      "stateMutability": "view",
      "type": "function"
    },
    {
      "inputs": [],
      "name": "usdt1",
      "outputs": [
        {
          "internalType": "address",
          "name": "",
          "type": "address"
        }
      ],
      "stateMutability": "view",
      "type": "function"
    },
    {
      "inputs": [
        {
          "internalType": "address",
          "name": "",
          "type": "address"
        }
      ],
      "name": "userInfo",
      "outputs": [
        {
          "internalType": "uint256",
          "name": "slpAmount",
          "type": "uint256"
        },
        {
          "internalType": "uint256",
          "name": "finishedONE",
          "type": "uint256"
        },
        {
          "internalType": "uint256",
          "name": "finishedSUSHI",
          "type": "uint256"
        }
      ],
      "stateMutability": "view",
      "type": "function"
    },
    {
      "inputs": [
        {
          "internalType": "address",
          "name": "_token",
          "type": "address"
        },
        {
          "internalType": "uint256",
          "name": "_amount",
          "type": "uint256"
        }
      ],
      "name": "withdraw",
      "outputs": [],
      "stateMutability": "nonpayable",
      "type": "function"
    }
  ],
  "bytecode": "0x608060405234801561001057600080fd5b506131ab806100206000396000f3fe608060405234801561001057600080fd5b50600436106102065760003560e01c80639359f7291161011a578063d88e638f116100ad578063f10684541161007c578063f10684541461040d578063f2fde38b14610415578063f3fef3a31461043b578063f7c618c114610467578063fd829a231461046f57610206565b8063d88e638f146103ed578063da38305c146103f5578063dcc3e06e146103fd578063f087e88a1461040557610206565b8063a2e62045116100e9578063a2e620451461039a578063a6478c1f146103a2578063a670724f146103bf578063a8602fea146103c757610206565b80639359f7291461037a5780639367b30e1461038257806393e9a0841461038a57806397679e4e1461039257610206565b80634641257d1161019d578063715018a61161016c578063715018a6146102fb57806381b3c0f1146103035780638a29e2de1461030b5780638da5cb5b1461036a578063901717d11461037257610206565b80634641257d146102b757806347e7ef24146102bf578063613768b6146102eb5780636c87309d146102f357610206565b8063250a5e1f116101d9578063250a5e1f14610295578063368b71cd1461029d57806336ab5579146102a75780634626402b146102af57610206565b806302824acc1461020b5780630a0879031461022f5780631959a0021461023757806322ef80b31461027b575b600080fd5b610213610477565b604080516001600160a01b039092168252519081900360200190f35b610213610486565b61025d6004803603602081101561024d57600080fd5b50356001600160a01b0316610495565b60408051938452602084019290925282820152519081900360600190f35b6102836104b6565b60408051918252519081900360200190f35b6102836104bc565b6102a56104c2565b005b610283610776565b61021361077c565b6102a561078b565b6102a5600480360360408110156102d557600080fd5b506001600160a01b0381351690602001356109dc565b610213610d97565b610283610da6565b6102a5610dac565b610213610e58565b6102a5600480360361010081101561032257600080fd5b506001600160a01b038135811691602081013582169160408201358116916060810135821691608082013581169160a081013582169160c082013581169160e0013516610e67565b61021361164e565b61021361165d565b61021361166c565b61028361167b565b610283611681565b610283611687565b61025d61168d565b6102a5600480360360208110156103b857600080fd5b5035611a8d565b610283611b28565b6102a5600480360360208110156103dd57600080fd5b50356001600160a01b0316611b2e565b610283611bda565b610283611be0565b610213611be6565b610283611bf5565b610283611bfb565b6102a56004803603602081101561042b57600080fd5b50356001600160a01b0316611c00565b6102a56004803603604081101561045157600080fd5b506001600160a01b038135169060200135611d03565b6102136126d2565b6102136126e1565b6067546001600160a01b031681565b6069546001600160a01b031681565b60726020526000908152604090208054600182015460029092015490919083565b606e5481565b60705481565b6104ca6126f0565b6001600160a01b03166104db61164e565b6001600160a01b031614610524576040805162461bcd60e51b8152602060048201819052602482015260008051602061312c833981519152604482015290519081900360640190fd5b606854604080516370a0823160e01b815230600482015290516000926001600160a01b0316916370a08231916024808301926020929190829003018186803b15801561056f57600080fd5b505afa158015610583573d6000803e3d6000fd5b505050506040513d602081101561059957600080fd5b5051606954604080516370a0823160e01b815230600482015290519293506000926001600160a01b03909216916370a0823191602480820192602092909190829003018186803b1580156105ec57600080fd5b505afa158015610600573d6000803e3d6000fd5b505050506040513d602081101561061657600080fd5b5051606854606a5491925060009161063b916001600160a01b039081169116856126f4565b60705490915061064b9082612902565b60705560795460009061066d9061271090610667908590612965565b906129be565b905061068e816106888460715461290290919063ffffffff16565b90612a25565b607155606954606a546000916106b1916001600160a01b039182169116866126f4565b6070549091506106c19082612902565b6070556079546106e5906106de9061271090610667908590612965565b8390612902565b606e549092506106f59086612902565b606e55606f546107059085612902565b606f55607a54606a54610725916001600160a01b03918216911684612a82565b7fb94ad6b739f9bef4a950b4e9ce06c0f6f6bcfc31bea46cc96187fb7cd1066cab85856107528685612902565b60408051938452602084019290925282820152519081900360600190a15050505050565b606b5481565b607a546001600160a01b031681565b61079361168d565b505033600090815260726020526040812060745481549193506107b69190612965565b905060006107d1836001015483612a2590919063ffffffff16565b905080606e5410156107e25750606e545b60755483546000916107f49190612965565b9050600061080f856002015483612a2590919063ffffffff16565b905080606f5410156108205750606f545b606a54604080516370a0823160e01b815230600482015290516000926001600160a01b0316916370a08231916024808301926020929190829003018186803b15801561086b57600080fd5b505afa15801561087f573d6000803e3d6000fd5b505050506040513d602081101561089557600080fd5b50516071549091508110156108aa5760718190555b60006108c160715483612a2590919063ffffffff16565b90506000606e546000106108d65760006108f1565b6108f1606e546106678860715461296590919063ffffffff16565b90506000606f54600010610906576000610917565b606f54610917906106678588612965565b905060006109258383612902565b606e549091506109359089612a25565b606e55606f546109459087612a25565b606f556071546109559084612a25565b60715560018a01546109679089612902565b60018b015560028a015461097b9087612902565b60028b0155801561099d57606a5461099d906001600160a01b03163383612a82565b6040805182815290517f80f97f878e16410266694f134ddf012f2be424f54f8b5cafa107eccc51d00d589181900360200190a150505050505050505050565b6065546001600160a01b0383811691161480610a0557506066546001600160a01b038381169116145b80610a1d57506067546001600160a01b038381169116145b610a67576040805162461bcd60e51b81526020600482015260166024820152753232b837b9b4ba1d1034b73b30b634b2103a37b5b2b760511b604482015290519081900360640190fd5b80600010610abc576040805162461bcd60e51b815260206004820152601760248201527f6465706f7369743a20696e76616c696420616d6f756e74000000000000000000604482015290519081900360640190fd5b610ad16001600160a01b038316333084612ad9565b610ad961168d565b50503360009081526072602052604081206065549092506001600160a01b0385811691161415610c0d57606554606654600091610b2d916001600160a01b039182169116610b288760026129be565b6126f4565b6076546065546066549293506001600160a01b039182169263e8e33700929182169116610b5b8860026129be565b604080516001600160e01b031960e087901b1681526001600160a01b03948516600482015292909316602483015260448201526064810185905260006084820181905260a482018190523060c48301524260e483015291516101048083019360609383900390910190829087803b158015610bd557600080fd5b505af1158015610be9573d6000803e3d6000fd5b505050506040513d6060811015610bff57600080fd5b50604001519150610c799050565b6066546001600160a01b0385811691161415610c7657606654606554600091610c48916001600160a01b039182169116610b288760026129be565b6076546066546065549293506001600160a01b039182169263e8e33700929182169116610b5b8860026129be565b50815b8154610c859082612902565b8255606b54610c949082612902565b606b55607454610cb390610ca89083612965565b600184015490612902565b6001830155607554610cd490610cc99083612965565b600284015490612902565b600283015560775460408051638dbdbe6d60e01b8152600960048201526024810184905230604482015290516001600160a01b0390921691638dbdbe6d9160648082019260009290919082900301818387803b158015610d3357600080fd5b505af1158015610d47573d6000803e3d6000fd5b5050604080518681526020810185905281516001600160a01b03891694507f90890809c654f11d6e72a28fa60149770a0d11ec6c92319d6ceb2bb0a4ea1a1593509081900390910190a250505050565b6077546001600160a01b031681565b606f5481565b610db46126f0565b6001600160a01b0316610dc561164e565b6001600160a01b031614610e0e576040805162461bcd60e51b8152602060048201819052602482015260008051602061312c833981519152604482015290519081900360640190fd5b6033546040516000916001600160a01b0316907f8be0079c531659141344cd1fd0a4f28419497f9722a3daafe3b4186f6b6457e0908390a3603380546001600160a01b0319169055565b6066546001600160a01b031681565b600054610100900460ff1680610e805750610e80612b39565b80610e8e575060005460ff16155b610ec95760405162461bcd60e51b815260040180806020018281038252602e8152602001806130dd602e913960400191505060405180910390fd5b600054610100900460ff16158015610ef4576000805460ff1961ff0019909116610100171660011790555b6001600160a01b038916610f42576040805162461bcd60e51b815260206004820152601060248201526f1d5cd91d0c481a5cc81a5b9d985b1a5960821b604482015290519081900360640190fd5b6001600160a01b038816610f90576040805162461bcd60e51b815260206004820152601060248201526f1d5cd918cc481a5cc81a5b9d985b1a5960821b604482015290519081900360640190fd5b6001600160a01b038716610fdc576040805162461bcd60e51b815260206004820152600e60248201526d1cdb1c081a5cc81a5b9d985b1a5960921b604482015290519081900360640190fd5b6001600160a01b038616611028576040805162461bcd60e51b815260206004820152600e60248201526d1bdb99481a5cc81a5b9d985b1a5960921b604482015290519081900360640190fd5b6001600160a01b038516611076576040805162461bcd60e51b815260206004820152601060248201526f1cdd5cda1a481a5cc81a5b9d985b1a5960821b604482015290519081900360640190fd5b6001600160a01b0384166110ca576040805162461bcd60e51b81526020600482015260166024820152751c995dd85c99151bdad95b881a5cc81a5b9d985b1a5960521b604482015290519081900360640190fd5b6001600160a01b038316611125576040805162461bcd60e51b815260206004820152601a60248201527f737573686953776170526f7574657220697320696e76616c6964000000000000604482015290519081900360640190fd5b6001600160a01b038216611180576040805162461bcd60e51b815260206004820152601860248201527f7375736869537761704368656620697320696e76616c69640000000000000000604482015290519081900360640190fd5b611188612b4a565b606580546001600160a01b03199081166001600160a01b038c8116919091179092556066805482168b84161790556067805482168a8416179055606880548216898416179055606980548216888416179055606a805482168784161790556076805482168684161790556077805490911684831617908190556040805163c346253d60e01b8152600960048201529051919092169163c346253d916024808301926020929190829003018186803b15801561124257600080fd5b505afa158015611256573d6000803e3d6000fd5b505050506040513d602081101561126c57600080fd5b5051607880546001600160a01b0319166001600160a01b039283161790556101f46079556065546076546040805163095ea7b360e01b81529184166004830152600019602483015251919092169163095ea7b39160448083019260209291908290030181600087803b1580156112e157600080fd5b505af11580156112f5573d6000803e3d6000fd5b505050506040513d602081101561130b57600080fd5b50506066546076546040805163095ea7b360e01b81526001600160a01b03928316600482015260001960248201529051919092169163095ea7b39160448083019260209291908290030181600087803b15801561136757600080fd5b505af115801561137b573d6000803e3d6000fd5b505050506040513d602081101561139157600080fd5b50506068546076546040805163095ea7b360e01b81526001600160a01b03928316600482015260001960248201529051919092169163095ea7b39160448083019260209291908290030181600087803b1580156113ed57600080fd5b505af1158015611401573d6000803e3d6000fd5b505050506040513d602081101561141757600080fd5b50506069546076546040805163095ea7b360e01b81526001600160a01b03928316600482015260001960248201529051919092169163095ea7b39160448083019260209291908290030181600087803b15801561147357600080fd5b505af1158015611487573d6000803e3d6000fd5b505050506040513d602081101561149d57600080fd5b5050606a546076546040805163095ea7b360e01b81526001600160a01b03928316600482015260001960248201529051919092169163095ea7b39160448083019260209291908290030181600087803b1580156114f957600080fd5b505af115801561150d573d6000803e3d6000fd5b505050506040513d602081101561152357600080fd5b50506067546076546040805163095ea7b360e01b81526001600160a01b03928316600482015260001960248201529051919092169163095ea7b39160448083019260209291908290030181600087803b15801561157f57600080fd5b505af1158015611593573d6000803e3d6000fd5b505050506040513d60208110156115a957600080fd5b50506067546077546040805163095ea7b360e01b81526001600160a01b03928316600482015260001960248201529051919092169163095ea7b39160448083019260209291908290030181600087803b15801561160557600080fd5b505af1158015611619573d6000803e3d6000fd5b505050506040513d602081101561162f57600080fd5b50508015611643576000805461ff00191690555b505050505050505050565b6033546001600160a01b031690565b6068546001600160a01b031681565b6065546001600160a01b031681565b60795481565b60735481565b606d5481565b6000806000426073541080156116a55750606b546000105b15611a7e576078546040805163d63b3c4960e01b8152600960048201523060248201526000604482018190529151919283926001600160a01b039091169163d63b3c499160648083019286929190829003018186803b15801561170757600080fd5b505afa15801561171b573d6000803e3d6000fd5b505050506040513d6000823e601f3d908101601f19168201604090815281101561174457600080fd5b810190808051604051939291908464010000000082111561176457600080fd5b90830190602082018581111561177957600080fd5b825186602082028301116401000000008211171561179657600080fd5b82525081516020918201928201910280838360005b838110156117c35781810151838201526020016117ab565b50505050905001604052602001805160405193929190846401000000008211156117ec57600080fd5b90830190602082018581111561180157600080fd5b825186602082028301116401000000008211171561181e57600080fd5b82525081516020918201928201910280838360005b8381101561184b578181015183820152602001611833565b50505050905001604052505050915091508160008151811061186957fe5b60209081029190910101516068546001600160a01b039081169116146118c05760405162461bcd60e51b815260040180806020018281038252602c815260200180613065602c913960400191505060405180910390fd5b6000816000815181106118cf57fe5b602002602001015190506118fa6118f1606b54836129be90919063ffffffff16565b60745490612902565b607455606c5461190a9082612902565b606c556077546040805163065509bb60e21b81526009600482015230602482015290516000926001600160a01b03169163195426ec916044808301926020929190829003018186803b15801561195f57600080fd5b505afa158015611973573d6000803e3d6000fd5b505050506040513d602081101561198957600080fd5b5051606b549091506119a9906119a09083906129be565b60755490612902565b607555606d546119b99082612902565b606d554260735560775460408051630c7e663b60e11b81526009600482015230602482015290516001600160a01b03909216916318fccc769160448082019260009290919082900301818387803b158015611a1357600080fd5b505af1158015611a27573d6000803e3d6000fd5b5050604080518581526020810185905281517f8ecf343d22d1934aea3fb34b7332371552b19286c5bc696adae16c7690a90d549450908190039091019150a160735460755460745496509650965050505050611a88565b5060009150819050805b909192565b611a956126f0565b6001600160a01b0316611aa661164e565b6001600160a01b031614611aef576040805162461bcd60e51b8152602060048201819052602482015260008051602061312c833981519152604482015290519081900360640190fd5b6079805490829055604051829082907f4c98cf9b88d370c1f7909301995611f647088f4c05d29cb98073fb4e20dcb14790600090a35050565b60745481565b611b366126f0565b6001600160a01b0316611b4761164e565b6001600160a01b031614611b90576040805162461bcd60e51b8152602060048201819052602482015260008051602061312c833981519152604482015290519081900360640190fd5b607a80546001600160a01b0319166001600160a01b0383169081179091556040517f60edc991b058a7e279075cf86f19a6b478334efec47e089d09890b139c78232790600090a250565b60755481565b60715481565b6078546001600160a01b031681565b606c5481565b600981565b611c086126f0565b6001600160a01b0316611c1961164e565b6001600160a01b031614611c62576040805162461bcd60e51b8152602060048201819052602482015260008051602061312c833981519152604482015290519081900360640190fd5b6001600160a01b038116611ca75760405162461bcd60e51b81526004018080602001828103825260268152602001806130916026913960400191505060405180910390fd5b6033546040516001600160a01b038084169216907f8be0079c531659141344cd1fd0a4f28419497f9722a3daafe3b4186f6b6457e090600090a3603380546001600160a01b0319166001600160a01b0392909216919091179055565b6065546001600160a01b0383811691161480611d2c57506066546001600160a01b038381169116145b80611d4457506067546001600160a01b038381169116145b611d95576040805162461bcd60e51b815260206004820152601760248201527f77697468647261773a20696e76616c696420746f6b656e000000000000000000604482015290519081900360640190fd5b3360009081526072602052604090208115801590611db4575080548211155b611e05576040805162461bcd60e51b815260206004820152601860248201527f77697468647261773a20696e76616c696420616d6f756e740000000000000000604482015290519081900360640190fd5b611e0d61078b565b6074548154600091611e1f9190612965565b90506000611e4c836000015461066786611e46876001015487612a2590919063ffffffff16565b90612965565b6075548454919250600091611e6091612965565b90506000611e87856000015461066788611e46896002015487612a2590919063ffffffff16565b9050600080600080611ea48a60745461296590919063ffffffff16565b905088600101548111611eca576001890154611ec09082612a25565b60018a0155611ef5565b611eeb611ee48a6001015483612a2590919063ffffffff16565b8890612902565b600060018b015596505b86156120f45788548a108015611f0e5750886001015487105b15611f2c576001890154611f229088612a25565b60018a01556120f4565b606854604080516370a0823160e01b815230600482015290516000926001600160a01b0316916370a08231916024808301926020929190829003018186803b158015611f7757600080fd5b505afa158015611f8b573d6000803e3d6000fd5b505050506040513d6020811015611fa157600080fd5b5051905087811015611fb1578097505b6067546001600160a01b038d8116911614156120d857606854606554600091611fec916001600160a01b039182169116610b288c60026129be565b606854606654919250600091612014916001600160a01b039081169116610b288d60026129be565b6076546065546066546040805162e8e33760e81b81526001600160a01b0393841660048201529183166024830152604482018790526064820185905260006084830181905260a483018190523060c48401524260e4840152905194955093919092169163e8e337009161010480830192606092919082900301818787803b15801561209e57600080fd5b505af11580156120b2573d6000803e3d6000fd5b505050506040513d60608110156120c857600080fd5b506040015196506120f292505050565b6068546120ef906001600160a01b03168d8a6126f4565b93505b505b607554612101908b612965565b90508860020154811161212757600289015461211d9082612a25565b60028a0155612152565b6121486121418a6002015483612a2590919063ffffffff16565b8690612902565b600060028b015594505b84156123675788548a10801561216b5750886002015485105b1561218957600289015461217f9086612a25565b60028a0155612367565b606954604080516370a0823160e01b815230600482015290516000926001600160a01b0316916370a08231916024808301926020929190829003018186803b1580156121d457600080fd5b505afa1580156121e8573d6000803e3d6000fd5b505050506040513d60208110156121fe57600080fd5b505190508581101561220e578095505b6067546001600160a01b038d81169116141561234057606954606554600091612249916001600160a01b039182169116610b288a60026129be565b606954606654919250600091612271916001600160a01b039081169116610b288b60026129be565b6076546065546066546040805162e8e33760e81b81526001600160a01b0393841660048201529183166024830152604482018790526064820185905260006084830181905260a483018190523060c48401524260e4840152905194955093919092169163e8e337009161010480830192606092919082900301818787803b1580156122fb57600080fd5b505af115801561230f573d6000803e3d6000fd5b505050506040513d606081101561232557600080fd5b506040015190506123368782612902565b9650505050612365565b6069546123629061235b906001600160a01b03168e896126f4565b8590612902565b93505b505b8215612397576123886127106106676079548661296590919063ffffffff16565b91506123948383612a25565b92505b88546123a3908b612a25565b8955606b546123b2908b612a25565b606b5560775460408051630ad58d2f60e01b815260096004820152602481018d905230604482015290516001600160a01b0390921691630ad58d2f9160648082019260009290919082900301818387803b15801561240f57600080fd5b505af1158015612423573d6000803e3d6000fd5b50506065546001600160a01b038e811691161415915061252b90505760765460655460665460408051635d5155ef60e11b81526001600160a01b0393841660048201529183166024830152604482018e9052600060648301819052608483018190523060a48401524260c4840152815190948594169263baa2abde9260e480830193919282900301818787803b1580156124bc57600080fd5b505af11580156124d0573d6000803e3d6000fd5b505050506040513d60408110156124e657600080fd5b508051602090910151606654606554929450909250600091612515916001600160a01b039081169116846126f4565b90506125218382612902565b965050505061261b565b6066546001600160a01b038c8116911614156126175760765460665460655460408051635d5155ef60e11b81526001600160a01b0393841660048201529183166024830152604482018e9052600060648301819052608483018190523060a48401524260c4840152815190948594169263baa2abde9260e480830193919282900301818787803b1580156125be57600080fd5b505af11580156125d2573d6000803e3d6000fd5b505050506040513d60408110156125e857600080fd5b508051602090910151606554606654929450909250600091612515916001600160a01b039081169116846126f4565b8993505b600061262e61271061066787600a612965565b905061263a8582612a25565b607a54909550612668906001600160a01b03166126578386612902565b6001600160a01b038f169190612a82565b612676336126578787612902565b6001600160a01b038c167ff279e6a1f5e320cca91135676d9cb6e44ca8a08c0b88342bcdb1144f6511b5688c6126ac8888612902565b6040805192835260208301919091528051918290030190a2505050505050505050505050565b606a546001600160a01b031681565b6076546001600160a01b031681565b3390565b60408051600280825260608201835260009283929190602083019080368337019050509050848160008151811061272757fe5b60200260200101906001600160a01b031690816001600160a01b031681525050838160018151811061275557fe5b6001600160a01b039283166020918202929092018101919091526076546040516338ed173960e01b8152600481018781526000602483018190523060648401819052426084850181905260a060448601908152895160a48701528951939896909616966338ed1739968c968a968c96909360c49092019187810191028083838b5b838110156127ee5781810151838201526020016127d6565b505050509050019650505050505050600060405180830381600087803b15801561281757600080fd5b505af115801561282b573d6000803e3d6000fd5b505050506040513d6000823e601f3d908101601f19168201604052602081101561285457600080fd5b810190808051604051939291908464010000000082111561287457600080fd5b90830190602082018581111561288957600080fd5b82518660208202830111640100000000821117156128a657600080fd5b82525081516020918201928201910280838360005b838110156128d35781810151838201526020016128bb565b505050509050016040525050509050806001815181106128ef57fe5b6020026020010151925050509392505050565b60008282018381101561295c576040805162461bcd60e51b815260206004820152601b60248201527f536166654d6174683a206164646974696f6e206f766572666c6f770000000000604482015290519081900360640190fd5b90505b92915050565b6000826129745750600061295f565b8282028284828161298157fe5b041461295c5760405162461bcd60e51b815260040180806020018281038252602181526020018061310b6021913960400191505060405180910390fd5b6000808211612a14576040805162461bcd60e51b815260206004820152601a60248201527f536166654d6174683a206469766973696f6e206279207a65726f000000000000604482015290519081900360640190fd5b818381612a1d57fe5b049392505050565b600082821115612a7c576040805162461bcd60e51b815260206004820152601e60248201527f536166654d6174683a207375627472616374696f6e206f766572666c6f770000604482015290519081900360640190fd5b50900390565b604080516001600160a01b038416602482015260448082018490528251808303909101815260649091019091526020810180516001600160e01b031663a9059cbb60e01b179052612ad4908490612bfc565b505050565b604080516001600160a01b0380861660248301528416604482015260648082018490528251808303909101815260849091019091526020810180516001600160e01b03166323b872dd60e01b179052612b33908590612bfc565b50505050565b6000612b4430612cad565b15905090565b600054610100900460ff1680612b635750612b63612b39565b80612b71575060005460ff16155b612bac5760405162461bcd60e51b815260040180806020018281038252602e8152602001806130dd602e913960400191505060405180910390fd5b600054610100900460ff16158015612bd7576000805460ff1961ff0019909116610100171660011790555b612bdf612cb3565b612be7612d53565b8015612bf9576000805461ff00191690555b50565b6000612c51826040518060400160405280602081526020017f5361666545524332303a206c6f772d6c6576656c2063616c6c206661696c6564815250856001600160a01b0316612e4c9092919063ffffffff16565b805190915015612ad457808060200190516020811015612c7057600080fd5b5051612ad45760405162461bcd60e51b815260040180806020018281038252602a81526020018061314c602a913960400191505060405180910390fd5b3b151590565b600054610100900460ff1680612ccc5750612ccc612b39565b80612cda575060005460ff16155b612d155760405162461bcd60e51b815260040180806020018281038252602e8152602001806130dd602e913960400191505060405180910390fd5b600054610100900460ff16158015612be7576000805460ff1961ff0019909116610100171660011790558015612bf9576000805461ff001916905550565b600054610100900460ff1680612d6c5750612d6c612b39565b80612d7a575060005460ff16155b612db55760405162461bcd60e51b815260040180806020018281038252602e8152602001806130dd602e913960400191505060405180910390fd5b600054610100900460ff16158015612de0576000805460ff1961ff0019909116610100171660011790555b6000612dea6126f0565b603380546001600160a01b0319166001600160a01b038316908117909155604051919250906000907f8be0079c531659141344cd1fd0a4f28419497f9722a3daafe3b4186f6b6457e0908290a3508015612bf9576000805461ff001916905550565b6060612e5b8484600085612e65565b90505b9392505050565b606082471015612ea65760405162461bcd60e51b81526004018080602001828103825260268152602001806130b76026913960400191505060405180910390fd5b612eaf85612cad565b612f00576040805162461bcd60e51b815260206004820152601d60248201527f416464726573733a2063616c6c20746f206e6f6e2d636f6e7472616374000000604482015290519081900360640190fd5b600080866001600160a01b031685876040518082805190602001908083835b60208310612f3e5780518252601f199092019160209182019101612f1f565b6001836020036101000a03801982511681845116808217855250505050505090500191505060006040518083038185875af1925050503d8060008114612fa0576040519150601f19603f3d011682016040523d82523d6000602084013e612fa5565b606091505b5091509150612fb5828286612fc0565b979650505050505050565b60608315612fcf575081612e5e565b825115612fdf5782518084602001fd5b8160405162461bcd60e51b81526004018080602001828103825283818151815260200191508051906020019080838360005b83811015613029578181015183820152602001613011565b50505050905090810190601f1680156130565780820380516001836020036101000a031916815260200191505b509250505060405180910390fdfe7570646174653a2077726f6e67206661726d656420726577617264656420746f6b656e2c206e6f74204f4e454f776e61626c653a206e6577206f776e657220697320746865207a65726f2061646472657373416464726573733a20696e73756666696369656e742062616c616e636520666f722063616c6c496e697469616c697a61626c653a20636f6e747261637420697320616c726561647920696e697469616c697a6564536166654d6174683a206d756c7469706c69636174696f6e206f766572666c6f774f776e61626c653a2063616c6c6572206973206e6f7420746865206f776e65725361666545524332303a204552433230206f7065726174696f6e20646964206e6f742073756363656564a2646970667358221220b4ad6230a75c35f0fd350778c629de1ff91fc8d912ddeb1871b2cf4d3cf6883864736f6c63430007060033",
  "linkReferences": {},
  "deployedLinkReferences": {}
}