{
  "contracts/PowerBombUpgradeable.sol": {
    "PowerBombUpgradeable": {
      "abi": [
        {
          "anonymous": false,
          "inputs": [
            {
              "indexed": true,
              "internalType": "address",
              "name": "tokenDeposit",
              "type": "address"
            },
            {
              "indexed": false,
              "internalType": "uint256",
              "name": "tokenAmount",
              "type": "uint256"
            },
            {
              "indexed": false,
              "internalType": "uint256",
              "name": "slpAmount",
              "type": "uint256"
            }
          ],
          "name": "Deposit",
          "type": "event"
        },
        {
          "anonymous": false,
          "inputs": [
            {
              "indexed": false,
              "internalType": "uint256",
              "name": "amount",
              "type": "uint256"
            }
          ],
          "name": "Harvest",
          "type": "event"
        },
        {
          "anonymous": false,
          "inputs": [
            {
              "indexed": true,
              "internalType": "address",
              "name": "previousOwner",
              "type": "address"
            },
            {
              "indexed": true,
              "internalType": "address",
              "name": "newOwner",
              "type": "address"
            }
          ],
          "name": "OwnershipTransferred",
          "type": "event"
        },
        {
          "anonymous": false,
          "inputs": [
            {
              "indexed": true,
              "internalType": "uint256",
              "name": "oldProfileSharingFeePerc",
              "type": "uint256"
            },
            {
              "indexed": true,
              "internalType": "uint256",
              "name": "newProfileSharingFeePerc",
              "type": "uint256"
            }
          ],
          "name": "SetProfitSharingFeePerc",
          "type": "event"
        },
        {
          "anonymous": false,
          "inputs": [
            {
              "indexed": true,
              "internalType": "address",
              "name": "treasuryWallet",
              "type": "address"
            }
          ],
          "name": "SetTreasuryWallet",
          "type": "event"
        },
        {
          "anonymous": false,
          "inputs": [
            {
              "indexed": false,
              "internalType": "uint256",
              "name": "oneAmount",
              "type": "uint256"
            },
            {
              "indexed": false,
              "internalType": "uint256",
              "name": "sushiAmount",
              "type": "uint256"
            },
            {
              "indexed": false,
              "internalType": "uint256",
              "name": "boughtAmount",
              "type": "uint256"
            }
          ],
          "name": "Sold",
          "type": "event"
        },
        {
          "anonymous": false,
          "inputs": [
            {
              "indexed": false,
              "internalType": "uint256",
              "name": "oneAmount",
              "type": "uint256"
            },
            {
              "indexed": false,
              "internalType": "uint256",
              "name": "sushiAmount",
              "type": "uint256"
            }
          ],
          "name": "Update",
          "type": "event"
        },
        {
          "anonymous": false,
          "inputs": [
            {
              "indexed": true,
              "internalType": "address",
              "name": "tokenWithdraw",
              "type": "address"
            },
            {
              "indexed": false,
              "internalType": "uint256",
              "name": "slpAmount",
              "type": "uint256"
            },
            {
              "indexed": false,
              "internalType": "uint256",
              "name": "tokenAmount",
              "type": "uint256"
            }
          ],
          "name": "Withdraw",
          "type": "event"
        },
        {
          "inputs": [],
          "name": "accONEPerSLP",
          "outputs": [
            {
              "internalType": "uint256",
              "name": "",
              "type": "uint256"
            }
          ],
          "stateMutability": "view",
          "type": "function"
        },
        {
          "inputs": [],
          "name": "accSUSHIPerSLP",
          "outputs": [
            {
              "internalType": "uint256",
              "name": "",
              "type": "uint256"
            }
          ],
          "stateMutability": "view",
          "type": "function"
        },
        {
          "inputs": [
            {
              "internalType": "address",
              "name": "_token",
              "type": "address"
            },
            {
              "internalType": "uint256",
              "name": "_amount",
              "type": "uint256"
            }
          ],
          "name": "deposit",
          "outputs": [],
          "stateMutability": "nonpayable",
          "type": "function"
        },
        {
          "inputs": [],
          "name": "harvest",
          "outputs": [],
          "stateMutability": "nonpayable",
          "type": "function"
        },
        {
          "inputs": [
            {
              "internalType": "address",
              "name": "_usdt1",
              "type": "address"
            },
            {
              "internalType": "address",
              "name": "_usdc1",
              "type": "address"
            },
            {
              "internalType": "address",
              "name": "_slp",
              "type": "address"
            },
            {
              "internalType": "address",
              "name": "_one",
              "type": "address"
            },
            {
              "internalType": "address",
              "name": "_sushi",
              "type": "address"
            },
            {
              "internalType": "address",
              "name": "_rewardToken",
              "type": "address"
            },
            {
              "internalType": "address",
              "name": "_sushiSwapRouter",
              "type": "address"
            },
            {
              "internalType": "address",
              "name": "_sushiSwapChef",
              "type": "address"
            }
          ],
          "name": "initialize",
          "outputs": [],
          "stateMutability": "nonpayable",
          "type": "function"
        },
        {
          "inputs": [],
          "name": "lastTime",
          "outputs": [
            {
              "internalType": "uint256",
              "name": "",
              "type": "uint256"
            }
          ],
          "stateMutability": "view",
          "type": "function"
        },
        {
          "inputs": [],
          "name": "one",
          "outputs": [
            {
              "internalType": "address",
              "name": "",
              "type": "address"
            }
          ],
          "stateMutability": "view",
          "type": "function"
        },
        {
          "inputs": [],
          "name": "owner",
          "outputs": [
            {
              "internalType": "address",
              "name": "",
              "type": "address"
            }
          ],
          "stateMutability": "view",
          "type": "function"
        },
        {
          "inputs": [],
          "name": "pid",
          "outputs": [
            {
              "internalType": "uint256",
              "name": "",
              "type": "uint256"
            }
          ],
          "stateMutability": "view",
          "type": "function"
        },
        {
          "inputs": [],
          "name": "profitSharingFeePerc",
          "outputs": [
            {
              "internalType": "uint256",
              "name": "",
              "type": "uint256"
            }
          ],
          "stateMutability": "view",
          "type": "function"
        },
        {
          "inputs": [],
          "name": "renounceOwnership",
          "outputs": [],
          "stateMutability": "nonpayable",
          "type": "function"
        },
        {
          "inputs": [],
          "name": "rewardToken",
          "outputs": [
            {
              "internalType": "address",
              "name": "",
              "type": "address"
            }
          ],
          "stateMutability": "view",
          "type": "function"
        },
        {
          "inputs": [],
          "name": "rewarder",
          "outputs": [
            {
              "internalType": "contract IRewarder",
              "name": "",
              "type": "address"
            }
          ],
          "stateMutability": "view",
          "type": "function"
        },
        {
          "inputs": [],
          "name": "sellRewards",
          "outputs": [],
          "stateMutability": "nonpayable",
          "type": "function"
        },
        {
          "inputs": [
            {
              "internalType": "uint256",
              "name": "_percentage",
              "type": "uint256"
            }
          ],
          "name": "setProfitSharingFeePerc",
          "outputs": [],
          "stateMutability": "nonpayable",
          "type": "function"
        },
        {
          "inputs": [
            {
              "internalType": "address",
              "name": "_treasuryWallet",
              "type": "address"
            }
          ],
          "name": "setTreasuryWallet",
          "outputs": [],
          "stateMutability": "nonpayable",
          "type": "function"
        },
        {
          "inputs": [],
          "name": "slp",
          "outputs": [
            {
              "internalType": "address",
              "name": "",
              "type": "address"
            }
          ],
          "stateMutability": "view",
          "type": "function"
        },
        {
          "inputs": [],
          "name": "sushi",
          "outputs": [
            {
              "internalType": "address",
              "name": "",
              "type": "address"
            }
          ],
          "stateMutability": "view",
          "type": "function"
        },
        {
          "inputs": [],
          "name": "sushiSwapChef",
          "outputs": [
            {
              "internalType": "contract ISushiSwapV2MiniChef",
              "name": "",
              "type": "address"
            }
          ],
          "stateMutability": "view",
          "type": "function"
        },
        {
          "inputs": [],
          "name": "sushiSwapRouter",
          "outputs": [
            {
              "internalType": "contract ISushiSwapV2Router02",
              "name": "",
              "type": "address"
            }
          ],
          "stateMutability": "view",
          "type": "function"
        },
        {
          "inputs": [],
          "name": "totalBoughtToken",
          "outputs": [
            {
              "internalType": "uint256",
              "name": "",
              "type": "uint256"
            }
          ],
          "stateMutability": "view",
          "type": "function"
        },
        {
          "inputs": [],
          "name": "totalFarmedONE",
          "outputs": [
            {
              "internalType": "uint256",
              "name": "",
              "type": "uint256"
            }
          ],
          "stateMutability": "view",
          "type": "function"
        },
        {
          "inputs": [],
          "name": "totalFarmedSUSHI",
          "outputs": [
            {
              "internalType": "uint256",
              "name": "",
              "type": "uint256"
            }
          ],
          "stateMutability": "view",
          "type": "function"
        },
        {
          "inputs": [],
          "name": "totalPendingONESold",
          "outputs": [
            {
              "internalType": "uint256",
              "name": "",
              "type": "uint256"
            }
          ],
          "stateMutability": "view",
          "type": "function"
        },
        {
          "inputs": [],
          "name": "totalPendingSUSHISold",
          "outputs": [
            {
              "internalType": "uint256",
              "name": "",
              "type": "uint256"
            }
          ],
          "stateMutability": "view",
          "type": "function"
        },
        {
          "inputs": [],
          "name": "totalPendingTokenFromONE",
          "outputs": [
            {
              "internalType": "uint256",
              "name": "",
              "type": "uint256"
            }
          ],
          "stateMutability": "view",
          "type": "function"
        },
        {
          "inputs": [],
          "name": "totalSLPAmount",
          "outputs": [
            {
              "internalType": "uint256",
              "name": "",
              "type": "uint256"
            }
          ],
          "stateMutability": "view",
          "type": "function"
        },
        {
          "inputs": [
            {
              "internalType": "address",
              "name": "newOwner",
              "type": "address"
            }
          ],
          "name": "transferOwnership",
          "outputs": [],
          "stateMutability": "nonpayable",
          "type": "function"
        },
        {
          "inputs": [],
          "name": "treasuryWallet",
          "outputs": [
            {
              "internalType": "address",
              "name": "",
              "type": "address"
            }
          ],
          "stateMutability": "view",
          "type": "function"
        },
        {
          "inputs": [],
          "name": "update",
          "outputs": [
            {
              "internalType": "uint256",
              "name": "",
              "type": "uint256"
            },
            {
              "internalType": "uint256",
              "name": "",
              "type": "uint256"
            },
            {
              "internalType": "uint256",
              "name": "",
              "type": "uint256"
            }
          ],
          "stateMutability": "nonpayable",
          "type": "function"
        },
        {
          "inputs": [],
          "name": "usdc1",
          "outputs": [
            {
              "internalType": "address",
              "name": "",
              "type": "address"
            }
          ],
          "stateMutability": "view",
          "type": "function"
        },
        {
          "inputs": [],
          "name": "usdt1",
          "outputs": [
            {
              "internalType": "address",
              "name": "",
              "type": "address"
            }
          ],
          "stateMutability": "view",
          "type": "function"
        },
        {
          "inputs": [
            {
              "internalType": "address",
              "name": "",
              "type": "address"
            }
          ],
          "name": "userInfo",
          "outputs": [
            {
              "internalType": "uint256",
              "name": "slpAmount",
              "type": "uint256"
            },
            {
              "internalType": "uint256",
              "name": "finishedONE",
              "type": "uint256"
            },
            {
              "internalType": "uint256",
              "name": "finishedSUSHI",
              "type": "uint256"
            }
          ],
          "stateMutability": "view",
          "type": "function"
        },
        {
          "inputs": [
            {
              "internalType": "address",
              "name": "_token",
              "type": "address"
            },
            {
              "internalType": "uint256",
              "name": "_amount",
              "type": "uint256"
            }
          ],
          "name": "withdraw",
          "outputs": [],
          "stateMutability": "nonpayable",
          "type": "function"
        }
      ],
      "devdoc": {
        "kind": "dev",
        "methods": {
          "deposit(address,uint256)": {
            "details": "Deposit",
            "params": {
              "_amount": "Amount of input token",
              "_token": "Input token. One of usdt1, usdc1, and slp"
            }
          },
          "owner()": {
            "details": "Returns the address of the current owner."
          },
          "renounceOwnership()": {
            "details": "Leaves the contract without owner. It will not be possible to call `onlyOwner` functions anymore. Can only be called by the current owner. NOTE: Renouncing ownership will leave the contract without an owner, thereby removing any functionality that is only available to the owner."
          },
          "setProfitSharingFeePerc(uint256)": {
            "params": {
              "_percentage": "Percentage of new profit sharing fee"
            }
          },
          "setTreasuryWallet(address)": {
            "params": {
              "_treasuryWallet": "Address of new treasury wallet"
            }
          },
          "transferOwnership(address)": {
            "details": "Transfers ownership of the contract to a new account (`newOwner`). Can only be called by the current owner."
          },
          "withdraw(address,uint256)": {
            "details": "Withdraw",
            "params": {
              "_amount": "Amount of slp token",
              "_token": "Input token. One of usdt1, usdc1, and slp"
            }
          }
        },
        "version": 1
      },
      "evm": {
        "bytecode": {
          "linkReferences": {},
          "object": "608060405234801561001057600080fd5b506131ab806100206000396000f3fe608060405234801561001057600080fd5b50600436106102065760003560e01c80639359f7291161011a578063d88e638f116100ad578063f10684541161007c578063f10684541461040d578063f2fde38b14610415578063f3fef3a31461043b578063f7c618c114610467578063fd829a231461046f57610206565b8063d88e638f146103ed578063da38305c146103f5578063dcc3e06e146103fd578063f087e88a1461040557610206565b8063a2e62045116100e9578063a2e620451461039a578063a6478c1f146103a2578063a670724f146103bf578063a8602fea146103c757610206565b80639359f7291461037a5780639367b30e1461038257806393e9a0841461038a57806397679e4e1461039257610206565b80634641257d1161019d578063715018a61161016c578063715018a6146102fb57806381b3c0f1146103035780638a29e2de1461030b5780638da5cb5b1461036a578063901717d11461037257610206565b80634641257d146102b757806347e7ef24146102bf578063613768b6146102eb5780636c87309d146102f357610206565b8063250a5e1f116101d9578063250a5e1f14610295578063368b71cd1461029d57806336ab5579146102a75780634626402b146102af57610206565b806302824acc1461020b5780630a0879031461022f5780631959a0021461023757806322ef80b31461027b575b600080fd5b610213610477565b604080516001600160a01b039092168252519081900360200190f35b610213610486565b61025d6004803603602081101561024d57600080fd5b50356001600160a01b0316610495565b60408051938452602084019290925282820152519081900360600190f35b6102836104b6565b60408051918252519081900360200190f35b6102836104bc565b6102a56104c2565b005b610283610776565b61021361077c565b6102a561078b565b6102a5600480360360408110156102d557600080fd5b506001600160a01b0381351690602001356109dc565b610213610d97565b610283610da6565b6102a5610dac565b610213610e58565b6102a5600480360361010081101561032257600080fd5b506001600160a01b038135811691602081013582169160408201358116916060810135821691608082013581169160a081013582169160c082013581169160e0013516610e67565b61021361164e565b61021361165d565b61021361166c565b61028361167b565b610283611681565b610283611687565b61025d61168d565b6102a5600480360360208110156103b857600080fd5b5035611a8d565b610283611b28565b6102a5600480360360208110156103dd57600080fd5b50356001600160a01b0316611b2e565b610283611bda565b610283611be0565b610213611be6565b610283611bf5565b610283611bfb565b6102a56004803603602081101561042b57600080fd5b50356001600160a01b0316611c00565b6102a56004803603604081101561045157600080fd5b506001600160a01b038135169060200135611d03565b6102136126d2565b6102136126e1565b6067546001600160a01b031681565b6069546001600160a01b031681565b60726020526000908152604090208054600182015460029092015490919083565b606e5481565b60705481565b6104ca6126f0565b6001600160a01b03166104db61164e565b6001600160a01b031614610524576040805162461bcd60e51b8152602060048201819052602482015260008051602061312c833981519152604482015290519081900360640190fd5b606854604080516370a0823160e01b815230600482015290516000926001600160a01b0316916370a08231916024808301926020929190829003018186803b15801561056f57600080fd5b505afa158015610583573d6000803e3d6000fd5b505050506040513d602081101561059957600080fd5b5051606954604080516370a0823160e01b815230600482015290519293506000926001600160a01b03909216916370a0823191602480820192602092909190829003018186803b1580156105ec57600080fd5b505afa158015610600573d6000803e3d6000fd5b505050506040513d602081101561061657600080fd5b5051606854606a5491925060009161063b916001600160a01b039081169116856126f4565b60705490915061064b9082612902565b60705560795460009061066d9061271090610667908590612965565b906129be565b905061068e816106888460715461290290919063ffffffff16565b90612a25565b607155606954606a546000916106b1916001600160a01b039182169116866126f4565b6070549091506106c19082612902565b6070556079546106e5906106de9061271090610667908590612965565b8390612902565b606e549092506106f59086612902565b606e55606f546107059085612902565b606f55607a54606a54610725916001600160a01b03918216911684612a82565b7fb94ad6b739f9bef4a950b4e9ce06c0f6f6bcfc31bea46cc96187fb7cd1066cab85856107528685612902565b60408051938452602084019290925282820152519081900360600190a15050505050565b606b5481565b607a546001600160a01b031681565b61079361168d565b505033600090815260726020526040812060745481549193506107b69190612965565b905060006107d1836001015483612a2590919063ffffffff16565b905080606e5410156107e25750606e545b60755483546000916107f49190612965565b9050600061080f856002015483612a2590919063ffffffff16565b905080606f5410156108205750606f545b606a54604080516370a0823160e01b815230600482015290516000926001600160a01b0316916370a08231916024808301926020929190829003018186803b15801561086b57600080fd5b505afa15801561087f573d6000803e3d6000fd5b505050506040513d602081101561089557600080fd5b50516071549091508110156108aa5760718190555b60006108c160715483612a2590919063ffffffff16565b90506000606e546000106108d65760006108f1565b6108f1606e546106678860715461296590919063ffffffff16565b90506000606f54600010610906576000610917565b606f54610917906106678588612965565b905060006109258383612902565b606e549091506109359089612a25565b606e55606f546109459087612a25565b606f556071546109559084612a25565b60715560018a01546109679089612902565b60018b015560028a015461097b9087612902565b60028b0155801561099d57606a5461099d906001600160a01b03163383612a82565b6040805182815290517f80f97f878e16410266694f134ddf012f2be424f54f8b5cafa107eccc51d00d589181900360200190a150505050505050505050565b6065546001600160a01b0383811691161480610a0557506066546001600160a01b038381169116145b80610a1d57506067546001600160a01b038381169116145b610a67576040805162461bcd60e51b81526020600482015260166024820152753232b837b9b4ba1d1034b73b30b634b2103a37b5b2b760511b604482015290519081900360640190fd5b80600010610abc576040805162461bcd60e51b815260206004820152601760248201527f6465706f7369743a20696e76616c696420616d6f756e74000000000000000000604482015290519081900360640190fd5b610ad16001600160a01b038316333084612ad9565b610ad961168d565b50503360009081526072602052604081206065549092506001600160a01b0385811691161415610c0d57606554606654600091610b2d916001600160a01b039182169116610b288760026129be565b6126f4565b6076546065546066549293506001600160a01b039182169263e8e33700929182169116610b5b8860026129be565b604080516001600160e01b031960e087901b1681526001600160a01b03948516600482015292909316602483015260448201526064810185905260006084820181905260a482018190523060c48301524260e483015291516101048083019360609383900390910190829087803b158015610bd557600080fd5b505af1158015610be9573d6000803e3d6000fd5b505050506040513d6060811015610bff57600080fd5b50604001519150610c799050565b6066546001600160a01b0385811691161415610c7657606654606554600091610c48916001600160a01b039182169116610b288760026129be565b6076546066546065549293506001600160a01b039182169263e8e33700929182169116610b5b8860026129be565b50815b8154610c859082612902565b8255606b54610c949082612902565b606b55607454610cb390610ca89083612965565b600184015490612902565b6001830155607554610cd490610cc99083612965565b600284015490612902565b600283015560775460408051638dbdbe6d60e01b8152600960048201526024810184905230604482015290516001600160a01b0390921691638dbdbe6d9160648082019260009290919082900301818387803b158015610d3357600080fd5b505af1158015610d47573d6000803e3d6000fd5b5050604080518681526020810185905281516001600160a01b03891694507f90890809c654f11d6e72a28fa60149770a0d11ec6c92319d6ceb2bb0a4ea1a1593509081900390910190a250505050565b6077546001600160a01b031681565b606f5481565b610db46126f0565b6001600160a01b0316610dc561164e565b6001600160a01b031614610e0e576040805162461bcd60e51b8152602060048201819052602482015260008051602061312c833981519152604482015290519081900360640190fd5b6033546040516000916001600160a01b0316907f8be0079c531659141344cd1fd0a4f28419497f9722a3daafe3b4186f6b6457e0908390a3603380546001600160a01b0319169055565b6066546001600160a01b031681565b600054610100900460ff1680610e805750610e80612b39565b80610e8e575060005460ff16155b610ec95760405162461bcd60e51b815260040180806020018281038252602e8152602001806130dd602e913960400191505060405180910390fd5b600054610100900460ff16158015610ef4576000805460ff1961ff0019909116610100171660011790555b6001600160a01b038916610f42576040805162461bcd60e51b815260206004820152601060248201526f1d5cd91d0c481a5cc81a5b9d985b1a5960821b604482015290519081900360640190fd5b6001600160a01b038816610f90576040805162461bcd60e51b815260206004820152601060248201526f1d5cd918cc481a5cc81a5b9d985b1a5960821b604482015290519081900360640190fd5b6001600160a01b038716610fdc576040805162461bcd60e51b815260206004820152600e60248201526d1cdb1c081a5cc81a5b9d985b1a5960921b604482015290519081900360640190fd5b6001600160a01b038616611028576040805162461bcd60e51b815260206004820152600e60248201526d1bdb99481a5cc81a5b9d985b1a5960921b604482015290519081900360640190fd5b6001600160a01b038516611076576040805162461bcd60e51b815260206004820152601060248201526f1cdd5cda1a481a5cc81a5b9d985b1a5960821b604482015290519081900360640190fd5b6001600160a01b0384166110ca576040805162461bcd60e51b81526020600482015260166024820152751c995dd85c99151bdad95b881a5cc81a5b9d985b1a5960521b604482015290519081900360640190fd5b6001600160a01b038316611125576040805162461bcd60e51b815260206004820152601a60248201527f737573686953776170526f7574657220697320696e76616c6964000000000000604482015290519081900360640190fd5b6001600160a01b038216611180576040805162461bcd60e51b815260206004820152601860248201527f7375736869537761704368656620697320696e76616c69640000000000000000604482015290519081900360640190fd5b611188612b4a565b606580546001600160a01b03199081166001600160a01b038c8116919091179092556066805482168b84161790556067805482168a8416179055606880548216898416179055606980548216888416179055606a805482168784161790556076805482168684161790556077805490911684831617908190556040805163c346253d60e01b8152600960048201529051919092169163c346253d916024808301926020929190829003018186803b15801561124257600080fd5b505afa158015611256573d6000803e3d6000fd5b505050506040513d602081101561126c57600080fd5b5051607880546001600160a01b0319166001600160a01b039283161790556101f46079556065546076546040805163095ea7b360e01b81529184166004830152600019602483015251919092169163095ea7b39160448083019260209291908290030181600087803b1580156112e157600080fd5b505af11580156112f5573d6000803e3d6000fd5b505050506040513d602081101561130b57600080fd5b50506066546076546040805163095ea7b360e01b81526001600160a01b03928316600482015260001960248201529051919092169163095ea7b39160448083019260209291908290030181600087803b15801561136757600080fd5b505af115801561137b573d6000803e3d6000fd5b505050506040513d602081101561139157600080fd5b50506068546076546040805163095ea7b360e01b81526001600160a01b03928316600482015260001960248201529051919092169163095ea7b39160448083019260209291908290030181600087803b1580156113ed57600080fd5b505af1158015611401573d6000803e3d6000fd5b505050506040513d602081101561141757600080fd5b50506069546076546040805163095ea7b360e01b81526001600160a01b03928316600482015260001960248201529051919092169163095ea7b39160448083019260209291908290030181600087803b15801561147357600080fd5b505af1158015611487573d6000803e3d6000fd5b505050506040513d602081101561149d57600080fd5b5050606a546076546040805163095ea7b360e01b81526001600160a01b03928316600482015260001960248201529051919092169163095ea7b39160448083019260209291908290030181600087803b1580156114f957600080fd5b505af115801561150d573d6000803e3d6000fd5b505050506040513d602081101561152357600080fd5b50506067546076546040805163095ea7b360e01b81526001600160a01b03928316600482015260001960248201529051919092169163095ea7b39160448083019260209291908290030181600087803b15801561157f57600080fd5b505af1158015611593573d6000803e3d6000fd5b505050506040513d60208110156115a957600080fd5b50506067546077546040805163095ea7b360e01b81526001600160a01b03928316600482015260001960248201529051919092169163095ea7b39160448083019260209291908290030181600087803b15801561160557600080fd5b505af1158015611619573d6000803e3d6000fd5b505050506040513d602081101561162f57600080fd5b50508015611643576000805461ff00191690555b505050505050505050565b6033546001600160a01b031690565b6068546001600160a01b031681565b6065546001600160a01b031681565b60795481565b60735481565b606d5481565b6000806000426073541080156116a55750606b546000105b15611a7e576078546040805163d63b3c4960e01b8152600960048201523060248201526000604482018190529151919283926001600160a01b039091169163d63b3c499160648083019286929190829003018186803b15801561170757600080fd5b505afa15801561171b573d6000803e3d6000fd5b505050506040513d6000823e601f3d908101601f19168201604090815281101561174457600080fd5b810190808051604051939291908464010000000082111561176457600080fd5b90830190602082018581111561177957600080fd5b825186602082028301116401000000008211171561179657600080fd5b82525081516020918201928201910280838360005b838110156117c35781810151838201526020016117ab565b50505050905001604052602001805160405193929190846401000000008211156117ec57600080fd5b90830190602082018581111561180157600080fd5b825186602082028301116401000000008211171561181e57600080fd5b82525081516020918201928201910280838360005b8381101561184b578181015183820152602001611833565b50505050905001604052505050915091508160008151811061186957fe5b60209081029190910101516068546001600160a01b039081169116146118c05760405162461bcd60e51b815260040180806020018281038252602c815260200180613065602c913960400191505060405180910390fd5b6000816000815181106118cf57fe5b602002602001015190506118fa6118f1606b54836129be90919063ffffffff16565b60745490612902565b607455606c5461190a9082612902565b606c556077546040805163065509bb60e21b81526009600482015230602482015290516000926001600160a01b03169163195426ec916044808301926020929190829003018186803b15801561195f57600080fd5b505afa158015611973573d6000803e3d6000fd5b505050506040513d602081101561198957600080fd5b5051606b549091506119a9906119a09083906129be565b60755490612902565b607555606d546119b99082612902565b606d554260735560775460408051630c7e663b60e11b81526009600482015230602482015290516001600160a01b03909216916318fccc769160448082019260009290919082900301818387803b158015611a1357600080fd5b505af1158015611a27573d6000803e3d6000fd5b5050604080518581526020810185905281517f8ecf343d22d1934aea3fb34b7332371552b19286c5bc696adae16c7690a90d549450908190039091019150a160735460755460745496509650965050505050611a88565b5060009150819050805b909192565b611a956126f0565b6001600160a01b0316611aa661164e565b6001600160a01b031614611aef576040805162461bcd60e51b8152602060048201819052602482015260008051602061312c833981519152604482015290519081900360640190fd5b6079805490829055604051829082907f4c98cf9b88d370c1f7909301995611f647088f4c05d29cb98073fb4e20dcb14790600090a35050565b60745481565b611b366126f0565b6001600160a01b0316611b4761164e565b6001600160a01b031614611b90576040805162461bcd60e51b8152602060048201819052602482015260008051602061312c833981519152604482015290519081900360640190fd5b607a80546001600160a01b0319166001600160a01b0383169081179091556040517f60edc991b058a7e279075cf86f19a6b478334efec47e089d09890b139c78232790600090a250565b60755481565b60715481565b6078546001600160a01b031681565b606c5481565b600981565b611c086126f0565b6001600160a01b0316611c1961164e565b6001600160a01b031614611c62576040805162461bcd60e51b8152602060048201819052602482015260008051602061312c833981519152604482015290519081900360640190fd5b6001600160a01b038116611ca75760405162461bcd60e51b81526004018080602001828103825260268152602001806130916026913960400191505060405180910390fd5b6033546040516001600160a01b038084169216907f8be0079c531659141344cd1fd0a4f28419497f9722a3daafe3b4186f6b6457e090600090a3603380546001600160a01b0319166001600160a01b0392909216919091179055565b6065546001600160a01b0383811691161480611d2c57506066546001600160a01b038381169116145b80611d4457506067546001600160a01b038381169116145b611d95576040805162461bcd60e51b815260206004820152601760248201527f77697468647261773a20696e76616c696420746f6b656e000000000000000000604482015290519081900360640190fd5b3360009081526072602052604090208115801590611db4575080548211155b611e05576040805162461bcd60e51b815260206004820152601860248201527f77697468647261773a20696e76616c696420616d6f756e740000000000000000604482015290519081900360640190fd5b611e0d61078b565b6074548154600091611e1f9190612965565b90506000611e4c836000015461066786611e46876001015487612a2590919063ffffffff16565b90612965565b6075548454919250600091611e6091612965565b90506000611e87856000015461066788611e46896002015487612a2590919063ffffffff16565b9050600080600080611ea48a60745461296590919063ffffffff16565b905088600101548111611eca576001890154611ec09082612a25565b60018a0155611ef5565b611eeb611ee48a6001015483612a2590919063ffffffff16565b8890612902565b600060018b015596505b86156120f45788548a108015611f0e5750886001015487105b15611f2c576001890154611f229088612a25565b60018a01556120f4565b606854604080516370a0823160e01b815230600482015290516000926001600160a01b0316916370a08231916024808301926020929190829003018186803b158015611f7757600080fd5b505afa158015611f8b573d6000803e3d6000fd5b505050506040513d6020811015611fa157600080fd5b5051905087811015611fb1578097505b6067546001600160a01b038d8116911614156120d857606854606554600091611fec916001600160a01b039182169116610b288c60026129be565b606854606654919250600091612014916001600160a01b039081169116610b288d60026129be565b6076546065546066546040805162e8e33760e81b81526001600160a01b0393841660048201529183166024830152604482018790526064820185905260006084830181905260a483018190523060c48401524260e4840152905194955093919092169163e8e337009161010480830192606092919082900301818787803b15801561209e57600080fd5b505af11580156120b2573d6000803e3d6000fd5b505050506040513d60608110156120c857600080fd5b506040015196506120f292505050565b6068546120ef906001600160a01b03168d8a6126f4565b93505b505b607554612101908b612965565b90508860020154811161212757600289015461211d9082612a25565b60028a0155612152565b6121486121418a6002015483612a2590919063ffffffff16565b8690612902565b600060028b015594505b84156123675788548a10801561216b5750886002015485105b1561218957600289015461217f9086612a25565b60028a0155612367565b606954604080516370a0823160e01b815230600482015290516000926001600160a01b0316916370a08231916024808301926020929190829003018186803b1580156121d457600080fd5b505afa1580156121e8573d6000803e3d6000fd5b505050506040513d60208110156121fe57600080fd5b505190508581101561220e578095505b6067546001600160a01b038d81169116141561234057606954606554600091612249916001600160a01b039182169116610b288a60026129be565b606954606654919250600091612271916001600160a01b039081169116610b288b60026129be565b6076546065546066546040805162e8e33760e81b81526001600160a01b0393841660048201529183166024830152604482018790526064820185905260006084830181905260a483018190523060c48401524260e4840152905194955093919092169163e8e337009161010480830192606092919082900301818787803b1580156122fb57600080fd5b505af115801561230f573d6000803e3d6000fd5b505050506040513d606081101561232557600080fd5b506040015190506123368782612902565b9650505050612365565b6069546123629061235b906001600160a01b03168e896126f4565b8590612902565b93505b505b8215612397576123886127106106676079548661296590919063ffffffff16565b91506123948383612a25565b92505b88546123a3908b612a25565b8955606b546123b2908b612a25565b606b5560775460408051630ad58d2f60e01b815260096004820152602481018d905230604482015290516001600160a01b0390921691630ad58d2f9160648082019260009290919082900301818387803b15801561240f57600080fd5b505af1158015612423573d6000803e3d6000fd5b50506065546001600160a01b038e811691161415915061252b90505760765460655460665460408051635d5155ef60e11b81526001600160a01b0393841660048201529183166024830152604482018e9052600060648301819052608483018190523060a48401524260c4840152815190948594169263baa2abde9260e480830193919282900301818787803b1580156124bc57600080fd5b505af11580156124d0573d6000803e3d6000fd5b505050506040513d60408110156124e657600080fd5b508051602090910151606654606554929450909250600091612515916001600160a01b039081169116846126f4565b90506125218382612902565b965050505061261b565b6066546001600160a01b038c8116911614156126175760765460665460655460408051635d5155ef60e11b81526001600160a01b0393841660048201529183166024830152604482018e9052600060648301819052608483018190523060a48401524260c4840152815190948594169263baa2abde9260e480830193919282900301818787803b1580156125be57600080fd5b505af11580156125d2573d6000803e3d6000fd5b505050506040513d60408110156125e857600080fd5b508051602090910151606554606654929450909250600091612515916001600160a01b039081169116846126f4565b8993505b600061262e61271061066787600a612965565b905061263a8582612a25565b607a54909550612668906001600160a01b03166126578386612902565b6001600160a01b038f169190612a82565b612676336126578787612902565b6001600160a01b038c167ff279e6a1f5e320cca91135676d9cb6e44ca8a08c0b88342bcdb1144f6511b5688c6126ac8888612902565b6040805192835260208301919091528051918290030190a2505050505050505050505050565b606a546001600160a01b031681565b6076546001600160a01b031681565b3390565b60408051600280825260608201835260009283929190602083019080368337019050509050848160008151811061272757fe5b60200260200101906001600160a01b031690816001600160a01b031681525050838160018151811061275557fe5b6001600160a01b039283166020918202929092018101919091526076546040516338ed173960e01b8152600481018781526000602483018190523060648401819052426084850181905260a060448601908152895160a48701528951939896909616966338ed1739968c968a968c96909360c49092019187810191028083838b5b838110156127ee5781810151838201526020016127d6565b505050509050019650505050505050600060405180830381600087803b15801561281757600080fd5b505af115801561282b573d6000803e3d6000fd5b505050506040513d6000823e601f3d908101601f19168201604052602081101561285457600080fd5b810190808051604051939291908464010000000082111561287457600080fd5b90830190602082018581111561288957600080fd5b82518660208202830111640100000000821117156128a657600080fd5b82525081516020918201928201910280838360005b838110156128d35781810151838201526020016128bb565b505050509050016040525050509050806001815181106128ef57fe5b6020026020010151925050509392505050565b60008282018381101561295c576040805162461bcd60e51b815260206004820152601b60248201527f536166654d6174683a206164646974696f6e206f766572666c6f770000000000604482015290519081900360640190fd5b90505b92915050565b6000826129745750600061295f565b8282028284828161298157fe5b041461295c5760405162461bcd60e51b815260040180806020018281038252602181526020018061310b6021913960400191505060405180910390fd5b6000808211612a14576040805162461bcd60e51b815260206004820152601a60248201527f536166654d6174683a206469766973696f6e206279207a65726f000000000000604482015290519081900360640190fd5b818381612a1d57fe5b049392505050565b600082821115612a7c576040805162461bcd60e51b815260206004820152601e60248201527f536166654d6174683a207375627472616374696f6e206f766572666c6f770000604482015290519081900360640190fd5b50900390565b604080516001600160a01b038416602482015260448082018490528251808303909101815260649091019091526020810180516001600160e01b031663a9059cbb60e01b179052612ad4908490612bfc565b505050565b604080516001600160a01b0380861660248301528416604482015260648082018490528251808303909101815260849091019091526020810180516001600160e01b03166323b872dd60e01b179052612b33908590612bfc565b50505050565b6000612b4430612cad565b15905090565b600054610100900460ff1680612b635750612b63612b39565b80612b71575060005460ff16155b612bac5760405162461bcd60e51b815260040180806020018281038252602e8152602001806130dd602e913960400191505060405180910390fd5b600054610100900460ff16158015612bd7576000805460ff1961ff0019909116610100171660011790555b612bdf612cb3565b612be7612d53565b8015612bf9576000805461ff00191690555b50565b6000612c51826040518060400160405280602081526020017f5361666545524332303a206c6f772d6c6576656c2063616c6c206661696c6564815250856001600160a01b0316612e4c9092919063ffffffff16565b805190915015612ad457808060200190516020811015612c7057600080fd5b5051612ad45760405162461bcd60e51b815260040180806020018281038252602a81526020018061314c602a913960400191505060405180910390fd5b3b151590565b600054610100900460ff1680612ccc5750612ccc612b39565b80612cda575060005460ff16155b612d155760405162461bcd60e51b815260040180806020018281038252602e8152602001806130dd602e913960400191505060405180910390fd5b600054610100900460ff16158015612be7576000805460ff1961ff0019909116610100171660011790558015612bf9576000805461ff001916905550565b600054610100900460ff1680612d6c5750612d6c612b39565b80612d7a575060005460ff16155b612db55760405162461bcd60e51b815260040180806020018281038252602e8152602001806130dd602e913960400191505060405180910390fd5b600054610100900460ff16158015612de0576000805460ff1961ff0019909116610100171660011790555b6000612dea6126f0565b603380546001600160a01b0319166001600160a01b038316908117909155604051919250906000907f8be0079c531659141344cd1fd0a4f28419497f9722a3daafe3b4186f6b6457e0908290a3508015612bf9576000805461ff001916905550565b6060612e5b8484600085612e65565b90505b9392505050565b606082471015612ea65760405162461bcd60e51b81526004018080602001828103825260268152602001806130b76026913960400191505060405180910390fd5b612eaf85612cad565b612f00576040805162461bcd60e51b815260206004820152601d60248201527f416464726573733a2063616c6c20746f206e6f6e2d636f6e7472616374000000604482015290519081900360640190fd5b600080866001600160a01b031685876040518082805190602001908083835b60208310612f3e5780518252601f199092019160209182019101612f1f565b6001836020036101000a03801982511681845116808217855250505050505090500191505060006040518083038185875af1925050503d8060008114612fa0576040519150601f19603f3d011682016040523d82523d6000602084013e612fa5565b606091505b5091509150612fb5828286612fc0565b979650505050505050565b60608315612fcf575081612e5e565b825115612fdf5782518084602001fd5b8160405162461bcd60e51b81526004018080602001828103825283818151815260200191508051906020019080838360005b83811015613029578181015183820152602001613011565b50505050905090810190601f1680156130565780820380516001836020036101000a031916815260200191505b509250505060405180910390fdfe7570646174653a2077726f6e67206661726d656420726577617264656420746f6b656e2c206e6f74204f4e454f776e61626c653a206e6577206f776e657220697320746865207a65726f2061646472657373416464726573733a20696e73756666696369656e742062616c616e636520666f722063616c6c496e697469616c697a61626c653a20636f6e747261637420697320616c726561647920696e697469616c697a6564536166654d6174683a206d756c7469706c69636174696f6e206f766572666c6f774f776e61626c653a2063616c6c6572206973206e6f7420746865206f776e65725361666545524332303a204552433230206f7065726174696f6e20646964206e6f742073756363656564a2646970667358221220b4ad6230a75c35f0fd350778c629de1ff91fc8d912ddeb1871b2cf4d3cf6883864736f6c63430007060033",
          "opcodes": "PUSH1 0x80 PUSH1 0x40 MSTORE CALLVALUE DUP1 ISZERO PUSH2 0x10 JUMPI PUSH1 0x0 DUP1 REVERT JUMPDEST POP PUSH2 0x31AB DUP1 PUSH2 0x20 PUSH1 0x0 CODECOPY PUSH1 0x0 RETURN INVALID PUSH1 0x80 PUSH1 0x40 MSTORE CALLVALUE DUP1 ISZERO PUSH2 0x10 JUMPI PUSH1 0x0 DUP1 REVERT JUMPDEST POP PUSH1 0x4 CALLDATASIZE LT PUSH2 0x206 JUMPI PUSH1 0x0 CALLDATALOAD PUSH1 0xE0 SHR DUP1 PUSH4 0x9359F729 GT PUSH2 0x11A JUMPI DUP1 PUSH4 0xD88E638F GT PUSH2 0xAD JUMPI DUP1 PUSH4 0xF1068454 GT PUSH2 0x7C JUMPI DUP1 PUSH4 0xF1068454 EQ PUSH2 0x40D JUMPI DUP1 PUSH4 0xF2FDE38B EQ PUSH2 0x415 JUMPI DUP1 PUSH4 0xF3FEF3A3 EQ PUSH2 0x43B JUMPI DUP1 PUSH4 0xF7C618C1 EQ PUSH2 0x467 JUMPI DUP1 PUSH4 0xFD829A23 EQ PUSH2 0x46F JUMPI PUSH2 0x206 JUMP JUMPDEST DUP1 PUSH4 0xD88E638F EQ PUSH2 0x3ED JUMPI DUP1 PUSH4 0xDA38305C EQ PUSH2 0x3F5 JUMPI DUP1 PUSH4 0xDCC3E06E EQ PUSH2 0x3FD JUMPI DUP1 PUSH4 0xF087E88A EQ PUSH2 0x405 JUMPI PUSH2 0x206 JUMP JUMPDEST DUP1 PUSH4 0xA2E62045 GT PUSH2 0xE9 JUMPI DUP1 PUSH4 0xA2E62045 EQ PUSH2 0x39A JUMPI DUP1 PUSH4 0xA6478C1F EQ PUSH2 0x3A2 JUMPI DUP1 PUSH4 0xA670724F EQ PUSH2 0x3BF JUMPI DUP1 PUSH4 0xA8602FEA EQ PUSH2 0x3C7 JUMPI PUSH2 0x206 JUMP JUMPDEST DUP1 PUSH4 0x9359F729 EQ PUSH2 0x37A JUMPI DUP1 PUSH4 0x9367B30E EQ PUSH2 0x382 JUMPI DUP1 PUSH4 0x93E9A084 EQ PUSH2 0x38A JUMPI DUP1 PUSH4 0x97679E4E EQ PUSH2 0x392 JUMPI PUSH2 0x206 JUMP JUMPDEST DUP1 PUSH4 0x4641257D GT PUSH2 0x19D JUMPI DUP1 PUSH4 0x715018A6 GT PUSH2 0x16C JUMPI DUP1 PUSH4 0x715018A6 EQ PUSH2 0x2FB JUMPI DUP1 PUSH4 0x81B3C0F1 EQ PUSH2 0x303 JUMPI DUP1 PUSH4 0x8A29E2DE EQ PUSH2 0x30B JUMPI DUP1 PUSH4 0x8DA5CB5B EQ PUSH2 0x36A JUMPI DUP1 PUSH4 0x901717D1 EQ PUSH2 0x372 JUMPI PUSH2 0x206 JUMP JUMPDEST DUP1 PUSH4 0x4641257D EQ PUSH2 0x2B7 JUMPI DUP1 PUSH4 0x47E7EF24 EQ PUSH2 0x2BF JUMPI DUP1 PUSH4 0x613768B6 EQ PUSH2 0x2EB JUMPI DUP1 PUSH4 0x6C87309D EQ PUSH2 0x2F3 JUMPI PUSH2 0x206 JUMP JUMPDEST DUP1 PUSH4 0x250A5E1F GT PUSH2 0x1D9 JUMPI DUP1 PUSH4 0x250A5E1F EQ PUSH2 0x295 JUMPI DUP1 PUSH4 0x368B71CD EQ PUSH2 0x29D JUMPI DUP1 PUSH4 0x36AB5579 EQ PUSH2 0x2A7 JUMPI DUP1 PUSH4 0x4626402B EQ PUSH2 0x2AF JUMPI PUSH2 0x206 JUMP JUMPDEST DUP1 PUSH4 0x2824ACC EQ PUSH2 0x20B JUMPI DUP1 PUSH4 0xA087903 EQ PUSH2 0x22F JUMPI DUP1 PUSH4 0x1959A002 EQ PUSH2 0x237 JUMPI DUP1 PUSH4 0x22EF80B3 EQ PUSH2 0x27B JUMPI JUMPDEST PUSH1 0x0 DUP1 REVERT JUMPDEST PUSH2 0x213 PUSH2 0x477 JUMP JUMPDEST PUSH1 0x40 DUP1 MLOAD PUSH1 0x1 PUSH1 0x1 PUSH1 0xA0 SHL SUB SWAP1 SWAP3 AND DUP3 MSTORE MLOAD SWAP1 DUP2 SWAP1 SUB PUSH1 0x20 ADD SWAP1 RETURN JUMPDEST PUSH2 0x213 PUSH2 0x486 JUMP JUMPDEST PUSH2 0x25D PUSH1 0x4 DUP1 CALLDATASIZE SUB PUSH1 0x20 DUP2 LT ISZERO PUSH2 0x24D JUMPI PUSH1 0x0 DUP1 REVERT JUMPDEST POP CALLDATALOAD PUSH1 0x1 PUSH1 0x1 PUSH1 0xA0 SHL SUB AND PUSH2 0x495 JUMP JUMPDEST PUSH1 0x40 DUP1 MLOAD SWAP4 DUP5 MSTORE PUSH1 0x20 DUP5 ADD SWAP3 SWAP1 SWAP3 MSTORE DUP3 DUP3 ADD MSTORE MLOAD SWAP1 DUP2 SWAP1 SUB PUSH1 0x60 ADD SWAP1 RETURN JUMPDEST PUSH2 0x283 PUSH2 0x4B6 JUMP JUMPDEST PUSH1 0x40 DUP1 MLOAD SWAP2 DUP3 MSTORE MLOAD SWAP1 DUP2 SWAP1 SUB PUSH1 0x20 ADD SWAP1 RETURN JUMPDEST PUSH2 0x283 PUSH2 0x4BC JUMP JUMPDEST PUSH2 0x2A5 PUSH2 0x4C2 JUMP JUMPDEST STOP JUMPDEST PUSH2 0x283 PUSH2 0x776 JUMP JUMPDEST PUSH2 0x213 PUSH2 0x77C JUMP JUMPDEST PUSH2 0x2A5 PUSH2 0x78B JUMP JUMPDEST PUSH2 0x2A5 PUSH1 0x4 DUP1 CALLDATASIZE SUB PUSH1 0x40 DUP2 LT ISZERO PUSH2 0x2D5 JUMPI PUSH1 0x0 DUP1 REVERT JUMPDEST POP PUSH1 0x1 PUSH1 0x1 PUSH1 0xA0 SHL SUB DUP2 CALLDATALOAD AND SWAP1 PUSH1 0x20 ADD CALLDATALOAD PUSH2 0x9DC JUMP JUMPDEST PUSH2 0x213 PUSH2 0xD97 JUMP JUMPDEST PUSH2 0x283 PUSH2 0xDA6 JUMP JUMPDEST PUSH2 0x2A5 PUSH2 0xDAC JUMP JUMPDEST PUSH2 0x213 PUSH2 0xE58 JUMP JUMPDEST PUSH2 0x2A5 PUSH1 0x4 DUP1 CALLDATASIZE SUB PUSH2 0x100 DUP2 LT ISZERO PUSH2 0x322 JUMPI PUSH1 0x0 DUP1 REVERT JUMPDEST POP PUSH1 0x1 PUSH1 0x1 PUSH1 0xA0 SHL SUB DUP2 CALLDATALOAD DUP2 AND SWAP2 PUSH1 0x20 DUP2 ADD CALLDATALOAD DUP3 AND SWAP2 PUSH1 0x40 DUP3 ADD CALLDATALOAD DUP2 AND SWAP2 PUSH1 0x60 DUP2 ADD CALLDATALOAD DUP3 AND SWAP2 PUSH1 0x80 DUP3 ADD CALLDATALOAD DUP2 AND SWAP2 PUSH1 0xA0 DUP2 ADD CALLDATALOAD DUP3 AND SWAP2 PUSH1 0xC0 DUP3 ADD CALLDATALOAD DUP2 AND SWAP2 PUSH1 0xE0 ADD CALLDATALOAD AND PUSH2 0xE67 JUMP JUMPDEST PUSH2 0x213 PUSH2 0x164E JUMP JUMPDEST PUSH2 0x213 PUSH2 0x165D JUMP JUMPDEST PUSH2 0x213 PUSH2 0x166C JUMP JUMPDEST PUSH2 0x283 PUSH2 0x167B JUMP JUMPDEST PUSH2 0x283 PUSH2 0x1681 JUMP JUMPDEST PUSH2 0x283 PUSH2 0x1687 JUMP JUMPDEST PUSH2 0x25D PUSH2 0x168D JUMP JUMPDEST PUSH2 0x2A5 PUSH1 0x4 DUP1 CALLDATASIZE SUB PUSH1 0x20 DUP2 LT ISZERO PUSH2 0x3B8 JUMPI PUSH1 0x0 DUP1 REVERT JUMPDEST POP CALLDATALOAD PUSH2 0x1A8D JUMP JUMPDEST PUSH2 0x283 PUSH2 0x1B28 JUMP JUMPDEST PUSH2 0x2A5 PUSH1 0x4 DUP1 CALLDATASIZE SUB PUSH1 0x20 DUP2 LT ISZERO PUSH2 0x3DD JUMPI PUSH1 0x0 DUP1 REVERT JUMPDEST POP CALLDATALOAD PUSH1 0x1 PUSH1 0x1 PUSH1 0xA0 SHL SUB AND PUSH2 0x1B2E JUMP JUMPDEST PUSH2 0x283 PUSH2 0x1BDA JUMP JUMPDEST PUSH2 0x283 PUSH2 0x1BE0 JUMP JUMPDEST PUSH2 0x213 PUSH2 0x1BE6 JUMP JUMPDEST PUSH2 0x283 PUSH2 0x1BF5 JUMP JUMPDEST PUSH2 0x283 PUSH2 0x1BFB JUMP JUMPDEST PUSH2 0x2A5 PUSH1 0x4 DUP1 CALLDATASIZE SUB PUSH1 0x20 DUP2 LT ISZERO PUSH2 0x42B JUMPI PUSH1 0x0 DUP1 REVERT JUMPDEST POP CALLDATALOAD PUSH1 0x1 PUSH1 0x1 PUSH1 0xA0 SHL SUB AND PUSH2 0x1C00 JUMP JUMPDEST PUSH2 0x2A5 PUSH1 0x4 DUP1 CALLDATASIZE SUB PUSH1 0x40 DUP2 LT ISZERO PUSH2 0x451 JUMPI PUSH1 0x0 DUP1 REVERT JUMPDEST POP PUSH1 0x1 PUSH1 0x1 PUSH1 0xA0 SHL SUB DUP2 CALLDATALOAD AND SWAP1 PUSH1 0x20 ADD CALLDATALOAD PUSH2 0x1D03 JUMP JUMPDEST PUSH2 0x213 PUSH2 0x26D2 JUMP JUMPDEST PUSH2 0x213 PUSH2 0x26E1 JUMP JUMPDEST PUSH1 0x67 SLOAD PUSH1 0x1 PUSH1 0x1 PUSH1 0xA0 SHL SUB AND DUP2 JUMP JUMPDEST PUSH1 0x69 SLOAD PUSH1 0x1 PUSH1 0x1 PUSH1 0xA0 SHL SUB AND DUP2 JUMP JUMPDEST PUSH1 0x72 PUSH1 0x20 MSTORE PUSH1 0x0 SWAP1 DUP2 MSTORE PUSH1 0x40 SWAP1 KECCAK256 DUP1 SLOAD PUSH1 0x1 DUP3 ADD SLOAD PUSH1 0x2 SWAP1 SWAP3 ADD SLOAD SWAP1 SWAP2 SWAP1 DUP4 JUMP JUMPDEST PUSH1 0x6E SLOAD DUP2 JUMP JUMPDEST PUSH1 0x70 SLOAD DUP2 JUMP JUMPDEST PUSH2 0x4CA PUSH2 0x26F0 JUMP JUMPDEST PUSH1 0x1 PUSH1 0x1 PUSH1 0xA0 SHL SUB AND PUSH2 0x4DB PUSH2 0x164E JUMP JUMPDEST PUSH1 0x1 PUSH1 0x1 PUSH1 0xA0 SHL SUB AND EQ PUSH2 0x524 JUMPI PUSH1 0x40 DUP1 MLOAD PUSH3 0x461BCD PUSH1 0xE5 SHL DUP2 MSTORE PUSH1 0x20 PUSH1 0x4 DUP3 ADD DUP2 SWAP1 MSTORE PUSH1 0x24 DUP3 ADD MSTORE PUSH1 0x0 DUP1 MLOAD PUSH1 0x20 PUSH2 0x312C DUP4 CODECOPY DUP2 MLOAD SWAP2 MSTORE PUSH1 0x44 DUP3 ADD MSTORE SWAP1 MLOAD SWAP1 DUP2 SWAP1 SUB PUSH1 0x64 ADD SWAP1 REVERT JUMPDEST PUSH1 0x68 SLOAD PUSH1 0x40 DUP1 MLOAD PUSH4 0x70A08231 PUSH1 0xE0 SHL DUP2 MSTORE ADDRESS PUSH1 0x4 DUP3 ADD MSTORE SWAP1 MLOAD PUSH1 0x0 SWAP3 PUSH1 0x1 PUSH1 0x1 PUSH1 0xA0 SHL SUB AND SWAP2 PUSH4 0x70A08231 SWAP2 PUSH1 0x24 DUP1 DUP4 ADD SWAP3 PUSH1 0x20 SWAP3 SWAP2 SWAP1 DUP3 SWAP1 SUB ADD DUP2 DUP7 DUP1 EXTCODESIZE ISZERO DUP1 ISZERO PUSH2 0x56F JUMPI PUSH1 0x0 DUP1 REVERT JUMPDEST POP GAS STATICCALL ISZERO DUP1 ISZERO PUSH2 0x583 JUMPI RETURNDATASIZE PUSH1 0x0 DUP1 RETURNDATACOPY RETURNDATASIZE PUSH1 0x0 REVERT JUMPDEST POP POP POP POP PUSH1 0x40 MLOAD RETURNDATASIZE PUSH1 0x20 DUP2 LT ISZERO PUSH2 0x599 JUMPI PUSH1 0x0 DUP1 REVERT JUMPDEST POP MLOAD PUSH1 0x69 SLOAD PUSH1 0x40 DUP1 MLOAD PUSH4 0x70A08231 PUSH1 0xE0 SHL DUP2 MSTORE ADDRESS PUSH1 0x4 DUP3 ADD MSTORE SWAP1 MLOAD SWAP3 SWAP4 POP PUSH1 0x0 SWAP3 PUSH1 0x1 PUSH1 0x1 PUSH1 0xA0 SHL SUB SWAP1 SWAP3 AND SWAP2 PUSH4 0x70A08231 SWAP2 PUSH1 0x24 DUP1 DUP3 ADD SWAP3 PUSH1 0x20 SWAP3 SWAP1 SWAP2 SWAP1 DUP3 SWAP1 SUB ADD DUP2 DUP7 DUP1 EXTCODESIZE ISZERO DUP1 ISZERO PUSH2 0x5EC JUMPI PUSH1 0x0 DUP1 REVERT JUMPDEST POP GAS STATICCALL ISZERO DUP1 ISZERO PUSH2 0x600 JUMPI RETURNDATASIZE PUSH1 0x0 DUP1 RETURNDATACOPY RETURNDATASIZE PUSH1 0x0 REVERT JUMPDEST POP POP POP POP PUSH1 0x40 MLOAD RETURNDATASIZE PUSH1 0x20 DUP2 LT ISZERO PUSH2 0x616 JUMPI PUSH1 0x0 DUP1 REVERT JUMPDEST POP MLOAD PUSH1 0x68 SLOAD PUSH1 0x6A SLOAD SWAP2 SWAP3 POP PUSH1 0x0 SWAP2 PUSH2 0x63B SWAP2 PUSH1 0x1 PUSH1 0x1 PUSH1 0xA0 SHL SUB SWAP1 DUP2 AND SWAP2 AND DUP6 PUSH2 0x26F4 JUMP JUMPDEST PUSH1 0x70 SLOAD SWAP1 SWAP2 POP PUSH2 0x64B SWAP1 DUP3 PUSH2 0x2902 JUMP JUMPDEST PUSH1 0x70 SSTORE PUSH1 0x79 SLOAD PUSH1 0x0 SWAP1 PUSH2 0x66D SWAP1 PUSH2 0x2710 SWAP1 PUSH2 0x667 SWAP1 DUP6 SWAP1 PUSH2 0x2965 JUMP JUMPDEST SWAP1 PUSH2 0x29BE JUMP JUMPDEST SWAP1 POP PUSH2 0x68E DUP2 PUSH2 0x688 DUP5 PUSH1 0x71 SLOAD PUSH2 0x2902 SWAP1 SWAP2 SWAP1 PUSH4 0xFFFFFFFF AND JUMP JUMPDEST SWAP1 PUSH2 0x2A25 JUMP JUMPDEST PUSH1 0x71 SSTORE PUSH1 0x69 SLOAD PUSH1 0x6A SLOAD PUSH1 0x0 SWAP2 PUSH2 0x6B1 SWAP2 PUSH1 0x1 PUSH1 0x1 PUSH1 0xA0 SHL SUB SWAP2 DUP3 AND SWAP2 AND DUP7 PUSH2 0x26F4 JUMP JUMPDEST PUSH1 0x70 SLOAD SWAP1 SWAP2 POP PUSH2 0x6C1 SWAP1 DUP3 PUSH2 0x2902 JUMP JUMPDEST PUSH1 0x70 SSTORE PUSH1 0x79 SLOAD PUSH2 0x6E5 SWAP1 PUSH2 0x6DE SWAP1 PUSH2 0x2710 SWAP1 PUSH2 0x667 SWAP1 DUP6 SWAP1 PUSH2 0x2965 JUMP JUMPDEST DUP4 SWAP1 PUSH2 0x2902 JUMP JUMPDEST PUSH1 0x6E SLOAD SWAP1 SWAP3 POP PUSH2 0x6F5 SWAP1 DUP7 PUSH2 0x2902 JUMP JUMPDEST PUSH1 0x6E SSTORE PUSH1 0x6F SLOAD PUSH2 0x705 SWAP1 DUP6 PUSH2 0x2902 JUMP JUMPDEST PUSH1 0x6F SSTORE PUSH1 0x7A SLOAD PUSH1 0x6A SLOAD PUSH2 0x725 SWAP2 PUSH1 0x1 PUSH1 0x1 PUSH1 0xA0 SHL SUB SWAP2 DUP3 AND SWAP2 AND DUP5 PUSH2 0x2A82 JUMP JUMPDEST PUSH32 0xB94AD6B739F9BEF4A950B4E9CE06C0F6F6BCFC31BEA46CC96187FB7CD1066CAB DUP6 DUP6 PUSH2 0x752 DUP7 DUP6 PUSH2 0x2902 JUMP JUMPDEST PUSH1 0x40 DUP1 MLOAD SWAP4 DUP5 MSTORE PUSH1 0x20 DUP5 ADD SWAP3 SWAP1 SWAP3 MSTORE DUP3 DUP3 ADD MSTORE MLOAD SWAP1 DUP2 SWAP1 SUB PUSH1 0x60 ADD SWAP1 LOG1 POP POP POP POP POP JUMP JUMPDEST PUSH1 0x6B SLOAD DUP2 JUMP JUMPDEST PUSH1 0x7A SLOAD PUSH1 0x1 PUSH1 0x1 PUSH1 0xA0 SHL SUB AND DUP2 JUMP JUMPDEST PUSH2 0x793 PUSH2 0x168D JUMP JUMPDEST POP POP CALLER PUSH1 0x0 SWAP1 DUP2 MSTORE PUSH1 0x72 PUSH1 0x20 MSTORE PUSH1 0x40 DUP2 KECCAK256 PUSH1 0x74 SLOAD DUP2 SLOAD SWAP2 SWAP4 POP PUSH2 0x7B6 SWAP2 SWAP1 PUSH2 0x2965 JUMP JUMPDEST SWAP1 POP PUSH1 0x0 PUSH2 0x7D1 DUP4 PUSH1 0x1 ADD SLOAD DUP4 PUSH2 0x2A25 SWAP1 SWAP2 SWAP1 PUSH4 0xFFFFFFFF AND JUMP JUMPDEST SWAP1 POP DUP1 PUSH1 0x6E SLOAD LT ISZERO PUSH2 0x7E2 JUMPI POP PUSH1 0x6E SLOAD JUMPDEST PUSH1 0x75 SLOAD DUP4 SLOAD PUSH1 0x0 SWAP2 PUSH2 0x7F4 SWAP2 SWAP1 PUSH2 0x2965 JUMP JUMPDEST SWAP1 POP PUSH1 0x0 PUSH2 0x80F DUP6 PUSH1 0x2 ADD SLOAD DUP4 PUSH2 0x2A25 SWAP1 SWAP2 SWAP1 PUSH4 0xFFFFFFFF AND JUMP JUMPDEST SWAP1 POP DUP1 PUSH1 0x6F SLOAD LT ISZERO PUSH2 0x820 JUMPI POP PUSH1 0x6F SLOAD JUMPDEST PUSH1 0x6A SLOAD PUSH1 0x40 DUP1 MLOAD PUSH4 0x70A08231 PUSH1 0xE0 SHL DUP2 MSTORE ADDRESS PUSH1 0x4 DUP3 ADD MSTORE SWAP1 MLOAD PUSH1 0x0 SWAP3 PUSH1 0x1 PUSH1 0x1 PUSH1 0xA0 SHL SUB AND SWAP2 PUSH4 0x70A08231 SWAP2 PUSH1 0x24 DUP1 DUP4 ADD SWAP3 PUSH1 0x20 SWAP3 SWAP2 SWAP1 DUP3 SWAP1 SUB ADD DUP2 DUP7 DUP1 EXTCODESIZE ISZERO DUP1 ISZERO PUSH2 0x86B JUMPI PUSH1 0x0 DUP1 REVERT JUMPDEST POP GAS STATICCALL ISZERO DUP1 ISZERO PUSH2 0x87F JUMPI RETURNDATASIZE PUSH1 0x0 DUP1 RETURNDATACOPY RETURNDATASIZE PUSH1 0x0 REVERT JUMPDEST POP POP POP POP PUSH1 0x40 MLOAD RETURNDATASIZE PUSH1 0x20 DUP2 LT ISZERO PUSH2 0x895 JUMPI PUSH1 0x0 DUP1 REVERT JUMPDEST POP MLOAD PUSH1 0x71 SLOAD SWAP1 SWAP2 POP DUP2 LT ISZERO PUSH2 0x8AA JUMPI PUSH1 0x71 DUP2 SWAP1 SSTORE JUMPDEST PUSH1 0x0 PUSH2 0x8C1 PUSH1 0x71 SLOAD DUP4 PUSH2 0x2A25 SWAP1 SWAP2 SWAP1 PUSH4 0xFFFFFFFF AND JUMP JUMPDEST SWAP1 POP PUSH1 0x0 PUSH1 0x6E SLOAD PUSH1 0x0 LT PUSH2 0x8D6 JUMPI PUSH1 0x0 PUSH2 0x8F1 JUMP JUMPDEST PUSH2 0x8F1 PUSH1 0x6E SLOAD PUSH2 0x667 DUP9 PUSH1 0x71 SLOAD PUSH2 0x2965 SWAP1 SWAP2 SWAP1 PUSH4 0xFFFFFFFF AND JUMP JUMPDEST SWAP1 POP PUSH1 0x0 PUSH1 0x6F SLOAD PUSH1 0x0 LT PUSH2 0x906 JUMPI PUSH1 0x0 PUSH2 0x917 JUMP JUMPDEST PUSH1 0x6F SLOAD PUSH2 0x917 SWAP1 PUSH2 0x667 DUP6 DUP9 PUSH2 0x2965 JUMP JUMPDEST SWAP1 POP PUSH1 0x0 PUSH2 0x925 DUP4 DUP4 PUSH2 0x2902 JUMP JUMPDEST PUSH1 0x6E SLOAD SWAP1 SWAP2 POP PUSH2 0x935 SWAP1 DUP10 PUSH2 0x2A25 JUMP JUMPDEST PUSH1 0x6E SSTORE PUSH1 0x6F SLOAD PUSH2 0x945 SWAP1 DUP8 PUSH2 0x2A25 JUMP JUMPDEST PUSH1 0x6F SSTORE PUSH1 0x71 SLOAD PUSH2 0x955 SWAP1 DUP5 PUSH2 0x2A25 JUMP JUMPDEST PUSH1 0x71 SSTORE PUSH1 0x1 DUP11 ADD SLOAD PUSH2 0x967 SWAP1 DUP10 PUSH2 0x2902 JUMP JUMPDEST PUSH1 0x1 DUP12 ADD SSTORE PUSH1 0x2 DUP11 ADD SLOAD PUSH2 0x97B SWAP1 DUP8 PUSH2 0x2902 JUMP JUMPDEST PUSH1 0x2 DUP12 ADD SSTORE DUP1 ISZERO PUSH2 0x99D JUMPI PUSH1 0x6A SLOAD PUSH2 0x99D SWAP1 PUSH1 0x1 PUSH1 0x1 PUSH1 0xA0 SHL SUB AND CALLER DUP4 PUSH2 0x2A82 JUMP JUMPDEST PUSH1 0x40 DUP1 MLOAD DUP3 DUP2 MSTORE SWAP1 MLOAD PUSH32 0x80F97F878E16410266694F134DDF012F2BE424F54F8B5CAFA107ECCC51D00D58 SWAP2 DUP2 SWAP1 SUB PUSH1 0x20 ADD SWAP1 LOG1 POP POP POP POP POP POP POP POP POP POP JUMP JUMPDEST PUSH1 0x65 SLOAD PUSH1 0x1 PUSH1 0x1 PUSH1 0xA0 SHL SUB DUP4 DUP2 AND SWAP2 AND EQ DUP1 PUSH2 0xA05 JUMPI POP PUSH1 0x66 SLOAD PUSH1 0x1 PUSH1 0x1 PUSH1 0xA0 SHL SUB DUP4 DUP2 AND SWAP2 AND EQ JUMPDEST DUP1 PUSH2 0xA1D JUMPI POP PUSH1 0x67 SLOAD PUSH1 0x1 PUSH1 0x1 PUSH1 0xA0 SHL SUB DUP4 DUP2 AND SWAP2 AND EQ JUMPDEST PUSH2 0xA67 JUMPI PUSH1 0x40 DUP1 MLOAD PUSH3 0x461BCD PUSH1 0xE5 SHL DUP2 MSTORE PUSH1 0x20 PUSH1 0x4 DUP3 ADD MSTORE PUSH1 0x16 PUSH1 0x24 DUP3 ADD MSTORE PUSH22 0x3232B837B9B4BA1D1034B73B30B634B2103A37B5B2B7 PUSH1 0x51 SHL PUSH1 0x44 DUP3 ADD MSTORE SWAP1 MLOAD SWAP1 DUP2 SWAP1 SUB PUSH1 0x64 ADD SWAP1 REVERT JUMPDEST DUP1 PUSH1 0x0 LT PUSH2 0xABC JUMPI PUSH1 0x40 DUP1 MLOAD PUSH3 0x461BCD PUSH1 0xE5 SHL DUP2 MSTORE PUSH1 0x20 PUSH1 0x4 DUP3 ADD MSTORE PUSH1 0x17 PUSH1 0x24 DUP3 ADD MSTORE PUSH32 0x6465706F7369743A20696E76616C696420616D6F756E74000000000000000000 PUSH1 0x44 DUP3 ADD MSTORE SWAP1 MLOAD SWAP1 DUP2 SWAP1 SUB PUSH1 0x64 ADD SWAP1 REVERT JUMPDEST PUSH2 0xAD1 PUSH1 0x1 PUSH1 0x1 PUSH1 0xA0 SHL SUB DUP4 AND CALLER ADDRESS DUP5 PUSH2 0x2AD9 JUMP JUMPDEST PUSH2 0xAD9 PUSH2 0x168D JUMP JUMPDEST POP POP CALLER PUSH1 0x0 SWAP1 DUP2 MSTORE PUSH1 0x72 PUSH1 0x20 MSTORE PUSH1 0x40 DUP2 KECCAK256 PUSH1 0x65 SLOAD SWAP1 SWAP3 POP PUSH1 0x1 PUSH1 0x1 PUSH1 0xA0 SHL SUB DUP6 DUP2 AND SWAP2 AND EQ ISZERO PUSH2 0xC0D JUMPI PUSH1 0x65 SLOAD PUSH1 0x66 SLOAD PUSH1 0x0 SWAP2 PUSH2 0xB2D SWAP2 PUSH1 0x1 PUSH1 0x1 PUSH1 0xA0 SHL SUB SWAP2 DUP3 AND SWAP2 AND PUSH2 0xB28 DUP8 PUSH1 0x2 PUSH2 0x29BE JUMP JUMPDEST PUSH2 0x26F4 JUMP JUMPDEST PUSH1 0x76 SLOAD PUSH1 0x65 SLOAD PUSH1 0x66 SLOAD SWAP3 SWAP4 POP PUSH1 0x1 PUSH1 0x1 PUSH1 0xA0 SHL SUB SWAP2 DUP3 AND SWAP3 PUSH4 0xE8E33700 SWAP3 SWAP2 DUP3 AND SWAP2 AND PUSH2 0xB5B DUP9 PUSH1 0x2 PUSH2 0x29BE JUMP JUMPDEST PUSH1 0x40 DUP1 MLOAD PUSH1 0x1 PUSH1 0x1 PUSH1 0xE0 SHL SUB NOT PUSH1 0xE0 DUP8 SWAP1 SHL AND DUP2 MSTORE PUSH1 0x1 PUSH1 0x1 PUSH1 0xA0 SHL SUB SWAP5 DUP6 AND PUSH1 0x4 DUP3 ADD MSTORE SWAP3 SWAP1 SWAP4 AND PUSH1 0x24 DUP4 ADD MSTORE PUSH1 0x44 DUP3 ADD MSTORE PUSH1 0x64 DUP2 ADD DUP6 SWAP1 MSTORE PUSH1 0x0 PUSH1 0x84 DUP3 ADD DUP2 SWAP1 MSTORE PUSH1 0xA4 DUP3 ADD DUP2 SWAP1 MSTORE ADDRESS PUSH1 0xC4 DUP4 ADD MSTORE TIMESTAMP PUSH1 0xE4 DUP4 ADD MSTORE SWAP2 MLOAD PUSH2 0x104 DUP1 DUP4 ADD SWAP4 PUSH1 0x60 SWAP4 DUP4 SWAP1 SUB SWAP1 SWAP2 ADD SWAP1 DUP3 SWAP1 DUP8 DUP1 EXTCODESIZE ISZERO DUP1 ISZERO PUSH2 0xBD5 JUMPI PUSH1 0x0 DUP1 REVERT JUMPDEST POP GAS CALL ISZERO DUP1 ISZERO PUSH2 0xBE9 JUMPI RETURNDATASIZE PUSH1 0x0 DUP1 RETURNDATACOPY RETURNDATASIZE PUSH1 0x0 REVERT JUMPDEST POP POP POP POP PUSH1 0x40 MLOAD RETURNDATASIZE PUSH1 0x60 DUP2 LT ISZERO PUSH2 0xBFF JUMPI PUSH1 0x0 DUP1 REVERT JUMPDEST POP PUSH1 0x40 ADD MLOAD SWAP2 POP PUSH2 0xC79 SWAP1 POP JUMP JUMPDEST PUSH1 0x66 SLOAD PUSH1 0x1 PUSH1 0x1 PUSH1 0xA0 SHL SUB DUP6 DUP2 AND SWAP2 AND EQ ISZERO PUSH2 0xC76 JUMPI PUSH1 0x66 SLOAD PUSH1 0x65 SLOAD PUSH1 0x0 SWAP2 PUSH2 0xC48 SWAP2 PUSH1 0x1 PUSH1 0x1 PUSH1 0xA0 SHL SUB SWAP2 DUP3 AND SWAP2 AND PUSH2 0xB28 DUP8 PUSH1 0x2 PUSH2 0x29BE JUMP JUMPDEST PUSH1 0x76 SLOAD PUSH1 0x66 SLOAD PUSH1 0x65 SLOAD SWAP3 SWAP4 POP PUSH1 0x1 PUSH1 0x1 PUSH1 0xA0 SHL SUB SWAP2 DUP3 AND SWAP3 PUSH4 0xE8E33700 SWAP3 SWAP2 DUP3 AND SWAP2 AND PUSH2 0xB5B DUP9 PUSH1 0x2 PUSH2 0x29BE JUMP JUMPDEST POP DUP2 JUMPDEST DUP2 SLOAD PUSH2 0xC85 SWAP1 DUP3 PUSH2 0x2902 JUMP JUMPDEST DUP3 SSTORE PUSH1 0x6B SLOAD PUSH2 0xC94 SWAP1 DUP3 PUSH2 0x2902 JUMP JUMPDEST PUSH1 0x6B SSTORE PUSH1 0x74 SLOAD PUSH2 0xCB3 SWAP1 PUSH2 0xCA8 SWAP1 DUP4 PUSH2 0x2965 JUMP JUMPDEST PUSH1 0x1 DUP5 ADD SLOAD SWAP1 PUSH2 0x2902 JUMP JUMPDEST PUSH1 0x1 DUP4 ADD SSTORE PUSH1 0x75 SLOAD PUSH2 0xCD4 SWAP1 PUSH2 0xCC9 SWAP1 DUP4 PUSH2 0x2965 JUMP JUMPDEST PUSH1 0x2 DUP5 ADD SLOAD SWAP1 PUSH2 0x2902 JUMP JUMPDEST PUSH1 0x2 DUP4 ADD SSTORE PUSH1 0x77 SLOAD PUSH1 0x40 DUP1 MLOAD PUSH4 0x8DBDBE6D PUSH1 0xE0 SHL DUP2 MSTORE PUSH1 0x9 PUSH1 0x4 DUP3 ADD MSTORE PUSH1 0x24 DUP2 ADD DUP5 SWAP1 MSTORE ADDRESS PUSH1 0x44 DUP3 ADD MSTORE SWAP1 MLOAD PUSH1 0x1 PUSH1 0x1 PUSH1 0xA0 SHL SUB SWAP1 SWAP3 AND SWAP2 PUSH4 0x8DBDBE6D SWAP2 PUSH1 0x64 DUP1 DUP3 ADD SWAP3 PUSH1 0x0 SWAP3 SWAP1 SWAP2 SWAP1 DUP3 SWAP1 SUB ADD DUP2 DUP4 DUP8 DUP1 EXTCODESIZE ISZERO DUP1 ISZERO PUSH2 0xD33 JUMPI PUSH1 0x0 DUP1 REVERT JUMPDEST POP GAS CALL ISZERO DUP1 ISZERO PUSH2 0xD47 JUMPI RETURNDATASIZE PUSH1 0x0 DUP1 RETURNDATACOPY RETURNDATASIZE PUSH1 0x0 REVERT JUMPDEST POP POP PUSH1 0x40 DUP1 MLOAD DUP7 DUP2 MSTORE PUSH1 0x20 DUP2 ADD DUP6 SWAP1 MSTORE DUP2 MLOAD PUSH1 0x1 PUSH1 0x1 PUSH1 0xA0 SHL SUB DUP10 AND SWAP5 POP PUSH32 0x90890809C654F11D6E72A28FA60149770A0D11EC6C92319D6CEB2BB0A4EA1A15 SWAP4 POP SWAP1 DUP2 SWAP1 SUB SWAP1 SWAP2 ADD SWAP1 LOG2 POP POP POP POP JUMP JUMPDEST PUSH1 0x77 SLOAD PUSH1 0x1 PUSH1 0x1 PUSH1 0xA0 SHL SUB AND DUP2 JUMP JUMPDEST PUSH1 0x6F SLOAD DUP2 JUMP JUMPDEST PUSH2 0xDB4 PUSH2 0x26F0 JUMP JUMPDEST PUSH1 0x1 PUSH1 0x1 PUSH1 0xA0 SHL SUB AND PUSH2 0xDC5 PUSH2 0x164E JUMP JUMPDEST PUSH1 0x1 PUSH1 0x1 PUSH1 0xA0 SHL SUB AND EQ PUSH2 0xE0E JUMPI PUSH1 0x40 DUP1 MLOAD PUSH3 0x461BCD PUSH1 0xE5 SHL DUP2 MSTORE PUSH1 0x20 PUSH1 0x4 DUP3 ADD DUP2 SWAP1 MSTORE PUSH1 0x24 DUP3 ADD MSTORE PUSH1 0x0 DUP1 MLOAD PUSH1 0x20 PUSH2 0x312C DUP4 CODECOPY DUP2 MLOAD SWAP2 MSTORE PUSH1 0x44 DUP3 ADD MSTORE SWAP1 MLOAD SWAP1 DUP2 SWAP1 SUB PUSH1 0x64 ADD SWAP1 REVERT JUMPDEST PUSH1 0x33 SLOAD PUSH1 0x40 MLOAD PUSH1 0x0 SWAP2 PUSH1 0x1 PUSH1 0x1 PUSH1 0xA0 SHL SUB AND SWAP1 PUSH32 0x8BE0079C531659141344CD1FD0A4F28419497F9722A3DAAFE3B4186F6B6457E0 SWAP1 DUP4 SWAP1 LOG3 PUSH1 0x33 DUP1 SLOAD PUSH1 0x1 PUSH1 0x1 PUSH1 0xA0 SHL SUB NOT AND SWAP1 SSTORE JUMP JUMPDEST PUSH1 0x66 SLOAD PUSH1 0x1 PUSH1 0x1 PUSH1 0xA0 SHL SUB AND DUP2 JUMP JUMPDEST PUSH1 0x0 SLOAD PUSH2 0x100 SWAP1 DIV PUSH1 0xFF AND DUP1 PUSH2 0xE80 JUMPI POP PUSH2 0xE80 PUSH2 0x2B39 JUMP JUMPDEST DUP1 PUSH2 0xE8E JUMPI POP PUSH1 0x0 SLOAD PUSH1 0xFF AND ISZERO JUMPDEST PUSH2 0xEC9 JUMPI PUSH1 0x40 MLOAD PUSH3 0x461BCD PUSH1 0xE5 SHL DUP2 MSTORE PUSH1 0x4 ADD DUP1 DUP1 PUSH1 0x20 ADD DUP3 DUP2 SUB DUP3 MSTORE PUSH1 0x2E DUP2 MSTORE PUSH1 0x20 ADD DUP1 PUSH2 0x30DD PUSH1 0x2E SWAP2 CODECOPY PUSH1 0x40 ADD SWAP2 POP POP PUSH1 0x40 MLOAD DUP1 SWAP2 SUB SWAP1 REVERT JUMPDEST PUSH1 0x0 SLOAD PUSH2 0x100 SWAP1 DIV PUSH1 0xFF AND ISZERO DUP1 ISZERO PUSH2 0xEF4 JUMPI PUSH1 0x0 DUP1 SLOAD PUSH1 0xFF NOT PUSH2 0xFF00 NOT SWAP1 SWAP2 AND PUSH2 0x100 OR AND PUSH1 0x1 OR SWAP1 SSTORE JUMPDEST PUSH1 0x1 PUSH1 0x1 PUSH1 0xA0 SHL SUB DUP10 AND PUSH2 0xF42 JUMPI PUSH1 0x40 DUP1 MLOAD PUSH3 0x461BCD PUSH1 0xE5 SHL DUP2 MSTORE PUSH1 0x20 PUSH1 0x4 DUP3 ADD MSTORE PUSH1 0x10 PUSH1 0x24 DUP3 ADD MSTORE PUSH16 0x1D5CD91D0C481A5CC81A5B9D985B1A59 PUSH1 0x82 SHL PUSH1 0x44 DUP3 ADD MSTORE SWAP1 MLOAD SWAP1 DUP2 SWAP1 SUB PUSH1 0x64 ADD SWAP1 REVERT JUMPDEST PUSH1 0x1 PUSH1 0x1 PUSH1 0xA0 SHL SUB DUP9 AND PUSH2 0xF90 JUMPI PUSH1 0x40 DUP1 MLOAD PUSH3 0x461BCD PUSH1 0xE5 SHL DUP2 MSTORE PUSH1 0x20 PUSH1 0x4 DUP3 ADD MSTORE PUSH1 0x10 PUSH1 0x24 DUP3 ADD MSTORE PUSH16 0x1D5CD918CC481A5CC81A5B9D985B1A59 PUSH1 0x82 SHL PUSH1 0x44 DUP3 ADD MSTORE SWAP1 MLOAD SWAP1 DUP2 SWAP1 SUB PUSH1 0x64 ADD SWAP1 REVERT JUMPDEST PUSH1 0x1 PUSH1 0x1 PUSH1 0xA0 SHL SUB DUP8 AND PUSH2 0xFDC JUMPI PUSH1 0x40 DUP1 MLOAD PUSH3 0x461BCD PUSH1 0xE5 SHL DUP2 MSTORE PUSH1 0x20 PUSH1 0x4 DUP3 ADD MSTORE PUSH1 0xE PUSH1 0x24 DUP3 ADD MSTORE PUSH14 0x1CDB1C081A5CC81A5B9D985B1A59 PUSH1 0x92 SHL PUSH1 0x44 DUP3 ADD MSTORE SWAP1 MLOAD SWAP1 DUP2 SWAP1 SUB PUSH1 0x64 ADD SWAP1 REVERT JUMPDEST PUSH1 0x1 PUSH1 0x1 PUSH1 0xA0 SHL SUB DUP7 AND PUSH2 0x1028 JUMPI PUSH1 0x40 DUP1 MLOAD PUSH3 0x461BCD PUSH1 0xE5 SHL DUP2 MSTORE PUSH1 0x20 PUSH1 0x4 DUP3 ADD MSTORE PUSH1 0xE PUSH1 0x24 DUP3 ADD MSTORE PUSH14 0x1BDB99481A5CC81A5B9D985B1A59 PUSH1 0x92 SHL PUSH1 0x44 DUP3 ADD MSTORE SWAP1 MLOAD SWAP1 DUP2 SWAP1 SUB PUSH1 0x64 ADD SWAP1 REVERT JUMPDEST PUSH1 0x1 PUSH1 0x1 PUSH1 0xA0 SHL SUB DUP6 AND PUSH2 0x1076 JUMPI PUSH1 0x40 DUP1 MLOAD PUSH3 0x461BCD PUSH1 0xE5 SHL DUP2 MSTORE PUSH1 0x20 PUSH1 0x4 DUP3 ADD MSTORE PUSH1 0x10 PUSH1 0x24 DUP3 ADD MSTORE PUSH16 0x1CDD5CDA1A481A5CC81A5B9D985B1A59 PUSH1 0x82 SHL PUSH1 0x44 DUP3 ADD MSTORE SWAP1 MLOAD SWAP1 DUP2 SWAP1 SUB PUSH1 0x64 ADD SWAP1 REVERT JUMPDEST PUSH1 0x1 PUSH1 0x1 PUSH1 0xA0 SHL SUB DUP5 AND PUSH2 0x10CA JUMPI PUSH1 0x40 DUP1 MLOAD PUSH3 0x461BCD PUSH1 0xE5 SHL DUP2 MSTORE PUSH1 0x20 PUSH1 0x4 DUP3 ADD MSTORE PUSH1 0x16 PUSH1 0x24 DUP3 ADD MSTORE PUSH22 0x1C995DD85C99151BDAD95B881A5CC81A5B9D985B1A59 PUSH1 0x52 SHL PUSH1 0x44 DUP3 ADD MSTORE SWAP1 MLOAD SWAP1 DUP2 SWAP1 SUB PUSH1 0x64 ADD SWAP1 REVERT JUMPDEST PUSH1 0x1 PUSH1 0x1 PUSH1 0xA0 SHL SUB DUP4 AND PUSH2 0x1125 JUMPI PUSH1 0x40 DUP1 MLOAD PUSH3 0x461BCD PUSH1 0xE5 SHL DUP2 MSTORE PUSH1 0x20 PUSH1 0x4 DUP3 ADD MSTORE PUSH1 0x1A PUSH1 0x24 DUP3 ADD MSTORE PUSH32 0x737573686953776170526F7574657220697320696E76616C6964000000000000 PUSH1 0x44 DUP3 ADD MSTORE SWAP1 MLOAD SWAP1 DUP2 SWAP1 SUB PUSH1 0x64 ADD SWAP1 REVERT JUMPDEST PUSH1 0x1 PUSH1 0x1 PUSH1 0xA0 SHL SUB DUP3 AND PUSH2 0x1180 JUMPI PUSH1 0x40 DUP1 MLOAD PUSH3 0x461BCD PUSH1 0xE5 SHL DUP2 MSTORE PUSH1 0x20 PUSH1 0x4 DUP3 ADD MSTORE PUSH1 0x18 PUSH1 0x24 DUP3 ADD MSTORE PUSH32 0x7375736869537761704368656620697320696E76616C69640000000000000000 PUSH1 0x44 DUP3 ADD MSTORE SWAP1 MLOAD SWAP1 DUP2 SWAP1 SUB PUSH1 0x64 ADD SWAP1 REVERT JUMPDEST PUSH2 0x1188 PUSH2 0x2B4A JUMP JUMPDEST PUSH1 0x65 DUP1 SLOAD PUSH1 0x1 PUSH1 0x1 PUSH1 0xA0 SHL SUB NOT SWAP1 DUP2 AND PUSH1 0x1 PUSH1 0x1 PUSH1 0xA0 SHL SUB DUP13 DUP2 AND SWAP2 SWAP1 SWAP2 OR SWAP1 SWAP3 SSTORE PUSH1 0x66 DUP1 SLOAD DUP3 AND DUP12 DUP5 AND OR SWAP1 SSTORE PUSH1 0x67 DUP1 SLOAD DUP3 AND DUP11 DUP5 AND OR SWAP1 SSTORE PUSH1 0x68 DUP1 SLOAD DUP3 AND DUP10 DUP5 AND OR SWAP1 SSTORE PUSH1 0x69 DUP1 SLOAD DUP3 AND DUP9 DUP5 AND OR SWAP1 SSTORE PUSH1 0x6A DUP1 SLOAD DUP3 AND DUP8 DUP5 AND OR SWAP1 SSTORE PUSH1 0x76 DUP1 SLOAD DUP3 AND DUP7 DUP5 AND OR SWAP1 SSTORE PUSH1 0x77 DUP1 SLOAD SWAP1 SWAP2 AND DUP5 DUP4 AND OR SWAP1 DUP2 SWAP1 SSTORE PUSH1 0x40 DUP1 MLOAD PUSH4 0xC346253D PUSH1 0xE0 SHL DUP2 MSTORE PUSH1 0x9 PUSH1 0x4 DUP3 ADD MSTORE SWAP1 MLOAD SWAP2 SWAP1 SWAP3 AND SWAP2 PUSH4 0xC346253D SWAP2 PUSH1 0x24 DUP1 DUP4 ADD SWAP3 PUSH1 0x20 SWAP3 SWAP2 SWAP1 DUP3 SWAP1 SUB ADD DUP2 DUP7 DUP1 EXTCODESIZE ISZERO DUP1 ISZERO PUSH2 0x1242 JUMPI PUSH1 0x0 DUP1 REVERT JUMPDEST POP GAS STATICCALL ISZERO DUP1 ISZERO PUSH2 0x1256 JUMPI RETURNDATASIZE PUSH1 0x0 DUP1 RETURNDATACOPY RETURNDATASIZE PUSH1 0x0 REVERT JUMPDEST POP POP POP POP PUSH1 0x40 MLOAD RETURNDATASIZE PUSH1 0x20 DUP2 LT ISZERO PUSH2 0x126C JUMPI PUSH1 0x0 DUP1 REVERT JUMPDEST POP MLOAD PUSH1 0x78 DUP1 SLOAD PUSH1 0x1 PUSH1 0x1 PUSH1 0xA0 SHL SUB NOT AND PUSH1 0x1 PUSH1 0x1 PUSH1 0xA0 SHL SUB SWAP3 DUP4 AND OR SWAP1 SSTORE PUSH2 0x1F4 PUSH1 0x79 SSTORE PUSH1 0x65 SLOAD PUSH1 0x76 SLOAD PUSH1 0x40 DUP1 MLOAD PUSH4 0x95EA7B3 PUSH1 0xE0 SHL DUP2 MSTORE SWAP2 DUP5 AND PUSH1 0x4 DUP4 ADD MSTORE PUSH1 0x0 NOT PUSH1 0x24 DUP4 ADD MSTORE MLOAD SWAP2 SWAP1 SWAP3 AND SWAP2 PUSH4 0x95EA7B3 SWAP2 PUSH1 0x44 DUP1 DUP4 ADD SWAP3 PUSH1 0x20 SWAP3 SWAP2 SWAP1 DUP3 SWAP1 SUB ADD DUP2 PUSH1 0x0 DUP8 DUP1 EXTCODESIZE ISZERO DUP1 ISZERO PUSH2 0x12E1 JUMPI PUSH1 0x0 DUP1 REVERT JUMPDEST POP GAS CALL ISZERO DUP1 ISZERO PUSH2 0x12F5 JUMPI RETURNDATASIZE PUSH1 0x0 DUP1 RETURNDATACOPY RETURNDATASIZE PUSH1 0x0 REVERT JUMPDEST POP POP POP POP PUSH1 0x40 MLOAD RETURNDATASIZE PUSH1 0x20 DUP2 LT ISZERO PUSH2 0x130B JUMPI PUSH1 0x0 DUP1 REVERT JUMPDEST POP POP PUSH1 0x66 SLOAD PUSH1 0x76 SLOAD PUSH1 0x40 DUP1 MLOAD PUSH4 0x95EA7B3 PUSH1 0xE0 SHL DUP2 MSTORE PUSH1 0x1 PUSH1 0x1 PUSH1 0xA0 SHL SUB SWAP3 DUP4 AND PUSH1 0x4 DUP3 ADD MSTORE PUSH1 0x0 NOT PUSH1 0x24 DUP3 ADD MSTORE SWAP1 MLOAD SWAP2 SWAP1 SWAP3 AND SWAP2 PUSH4 0x95EA7B3 SWAP2 PUSH1 0x44 DUP1 DUP4 ADD SWAP3 PUSH1 0x20 SWAP3 SWAP2 SWAP1 DUP3 SWAP1 SUB ADD DUP2 PUSH1 0x0 DUP8 DUP1 EXTCODESIZE ISZERO DUP1 ISZERO PUSH2 0x1367 JUMPI PUSH1 0x0 DUP1 REVERT JUMPDEST POP GAS CALL ISZERO DUP1 ISZERO PUSH2 0x137B JUMPI RETURNDATASIZE PUSH1 0x0 DUP1 RETURNDATACOPY RETURNDATASIZE PUSH1 0x0 REVERT JUMPDEST POP POP POP POP PUSH1 0x40 MLOAD RETURNDATASIZE PUSH1 0x20 DUP2 LT ISZERO PUSH2 0x1391 JUMPI PUSH1 0x0 DUP1 REVERT JUMPDEST POP POP PUSH1 0x68 SLOAD PUSH1 0x76 SLOAD PUSH1 0x40 DUP1 MLOAD PUSH4 0x95EA7B3 PUSH1 0xE0 SHL DUP2 MSTORE PUSH1 0x1 PUSH1 0x1 PUSH1 0xA0 SHL SUB SWAP3 DUP4 AND PUSH1 0x4 DUP3 ADD MSTORE PUSH1 0x0 NOT PUSH1 0x24 DUP3 ADD MSTORE SWAP1 MLOAD SWAP2 SWAP1 SWAP3 AND SWAP2 PUSH4 0x95EA7B3 SWAP2 PUSH1 0x44 DUP1 DUP4 ADD SWAP3 PUSH1 0x20 SWAP3 SWAP2 SWAP1 DUP3 SWAP1 SUB ADD DUP2 PUSH1 0x0 DUP8 DUP1 EXTCODESIZE ISZERO DUP1 ISZERO PUSH2 0x13ED JUMPI PUSH1 0x0 DUP1 REVERT JUMPDEST POP GAS CALL ISZERO DUP1 ISZERO PUSH2 0x1401 JUMPI RETURNDATASIZE PUSH1 0x0 DUP1 RETURNDATACOPY RETURNDATASIZE PUSH1 0x0 REVERT JUMPDEST POP POP POP POP PUSH1 0x40 MLOAD RETURNDATASIZE PUSH1 0x20 DUP2 LT ISZERO PUSH2 0x1417 JUMPI PUSH1 0x0 DUP1 REVERT JUMPDEST POP POP PUSH1 0x69 SLOAD PUSH1 0x76 SLOAD PUSH1 0x40 DUP1 MLOAD PUSH4 0x95EA7B3 PUSH1 0xE0 SHL DUP2 MSTORE PUSH1 0x1 PUSH1 0x1 PUSH1 0xA0 SHL SUB SWAP3 DUP4 AND PUSH1 0x4 DUP3 ADD MSTORE PUSH1 0x0 NOT PUSH1 0x24 DUP3 ADD MSTORE SWAP1 MLOAD SWAP2 SWAP1 SWAP3 AND SWAP2 PUSH4 0x95EA7B3 SWAP2 PUSH1 0x44 DUP1 DUP4 ADD SWAP3 PUSH1 0x20 SWAP3 SWAP2 SWAP1 DUP3 SWAP1 SUB ADD DUP2 PUSH1 0x0 DUP8 DUP1 EXTCODESIZE ISZERO DUP1 ISZERO PUSH2 0x1473 JUMPI PUSH1 0x0 DUP1 REVERT JUMPDEST POP GAS CALL ISZERO DUP1 ISZERO PUSH2 0x1487 JUMPI RETURNDATASIZE PUSH1 0x0 DUP1 RETURNDATACOPY RETURNDATASIZE PUSH1 0x0 REVERT JUMPDEST POP POP POP POP PUSH1 0x40 MLOAD RETURNDATASIZE PUSH1 0x20 DUP2 LT ISZERO PUSH2 0x149D JUMPI PUSH1 0x0 DUP1 REVERT JUMPDEST POP POP PUSH1 0x6A SLOAD PUSH1 0x76 SLOAD PUSH1 0x40 DUP1 MLOAD PUSH4 0x95EA7B3 PUSH1 0xE0 SHL DUP2 MSTORE PUSH1 0x1 PUSH1 0x1 PUSH1 0xA0 SHL SUB SWAP3 DUP4 AND PUSH1 0x4 DUP3 ADD MSTORE PUSH1 0x0 NOT PUSH1 0x24 DUP3 ADD MSTORE SWAP1 MLOAD SWAP2 SWAP1 SWAP3 AND SWAP2 PUSH4 0x95EA7B3 SWAP2 PUSH1 0x44 DUP1 DUP4 ADD SWAP3 PUSH1 0x20 SWAP3 SWAP2 SWAP1 DUP3 SWAP1 SUB ADD DUP2 PUSH1 0x0 DUP8 DUP1 EXTCODESIZE ISZERO DUP1 ISZERO PUSH2 0x14F9 JUMPI PUSH1 0x0 DUP1 REVERT JUMPDEST POP GAS CALL ISZERO DUP1 ISZERO PUSH2 0x150D JUMPI RETURNDATASIZE PUSH1 0x0 DUP1 RETURNDATACOPY RETURNDATASIZE PUSH1 0x0 REVERT JUMPDEST POP POP POP POP PUSH1 0x40 MLOAD RETURNDATASIZE PUSH1 0x20 DUP2 LT ISZERO PUSH2 0x1523 JUMPI PUSH1 0x0 DUP1 REVERT JUMPDEST POP POP PUSH1 0x67 SLOAD PUSH1 0x76 SLOAD PUSH1 0x40 DUP1 MLOAD PUSH4 0x95EA7B3 PUSH1 0xE0 SHL DUP2 MSTORE PUSH1 0x1 PUSH1 0x1 PUSH1 0xA0 SHL SUB SWAP3 DUP4 AND PUSH1 0x4 DUP3 ADD MSTORE PUSH1 0x0 NOT PUSH1 0x24 DUP3 ADD MSTORE SWAP1 MLOAD SWAP2 SWAP1 SWAP3 AND SWAP2 PUSH4 0x95EA7B3 SWAP2 PUSH1 0x44 DUP1 DUP4 ADD SWAP3 PUSH1 0x20 SWAP3 SWAP2 SWAP1 DUP3 SWAP1 SUB ADD DUP2 PUSH1 0x0 DUP8 DUP1 EXTCODESIZE ISZERO DUP1 ISZERO PUSH2 0x157F JUMPI PUSH1 0x0 DUP1 REVERT JUMPDEST POP GAS CALL ISZERO DUP1 ISZERO PUSH2 0x1593 JUMPI RETURNDATASIZE PUSH1 0x0 DUP1 RETURNDATACOPY RETURNDATASIZE PUSH1 0x0 REVERT JUMPDEST POP POP POP POP PUSH1 0x40 MLOAD RETURNDATASIZE PUSH1 0x20 DUP2 LT ISZERO PUSH2 0x15A9 JUMPI PUSH1 0x0 DUP1 REVERT JUMPDEST POP POP PUSH1 0x67 SLOAD PUSH1 0x77 SLOAD PUSH1 0x40 DUP1 MLOAD PUSH4 0x95EA7B3 PUSH1 0xE0 SHL DUP2 MSTORE PUSH1 0x1 PUSH1 0x1 PUSH1 0xA0 SHL SUB SWAP3 DUP4 AND PUSH1 0x4 DUP3 ADD MSTORE PUSH1 0x0 NOT PUSH1 0x24 DUP3 ADD MSTORE SWAP1 MLOAD SWAP2 SWAP1 SWAP3 AND SWAP2 PUSH4 0x95EA7B3 SWAP2 PUSH1 0x44 DUP1 DUP4 ADD SWAP3 PUSH1 0x20 SWAP3 SWAP2 SWAP1 DUP3 SWAP1 SUB ADD DUP2 PUSH1 0x0 DUP8 DUP1 EXTCODESIZE ISZERO DUP1 ISZERO PUSH2 0x1605 JUMPI PUSH1 0x0 DUP1 REVERT JUMPDEST POP GAS CALL ISZERO DUP1 ISZERO PUSH2 0x1619 JUMPI RETURNDATASIZE PUSH1 0x0 DUP1 RETURNDATACOPY RETURNDATASIZE PUSH1 0x0 REVERT JUMPDEST POP POP POP POP PUSH1 0x40 MLOAD RETURNDATASIZE PUSH1 0x20 DUP2 LT ISZERO PUSH2 0x162F JUMPI PUSH1 0x0 DUP1 REVERT JUMPDEST POP POP DUP1 ISZERO PUSH2 0x1643 JUMPI PUSH1 0x0 DUP1 SLOAD PUSH2 0xFF00 NOT AND SWAP1 SSTORE JUMPDEST POP POP POP POP POP POP POP POP POP JUMP JUMPDEST PUSH1 0x33 SLOAD PUSH1 0x1 PUSH1 0x1 PUSH1 0xA0 SHL SUB AND SWAP1 JUMP JUMPDEST PUSH1 0x68 SLOAD PUSH1 0x1 PUSH1 0x1 PUSH1 0xA0 SHL SUB AND DUP2 JUMP JUMPDEST PUSH1 0x65 SLOAD PUSH1 0x1 PUSH1 0x1 PUSH1 0xA0 SHL SUB AND DUP2 JUMP JUMPDEST PUSH1 0x79 SLOAD DUP2 JUMP JUMPDEST PUSH1 0x73 SLOAD DUP2 JUMP JUMPDEST PUSH1 0x6D SLOAD DUP2 JUMP JUMPDEST PUSH1 0x0 DUP1 PUSH1 0x0 TIMESTAMP PUSH1 0x73 SLOAD LT DUP1 ISZERO PUSH2 0x16A5 JUMPI POP PUSH1 0x6B SLOAD PUSH1 0x0 LT JUMPDEST ISZERO PUSH2 0x1A7E JUMPI PUSH1 0x78 SLOAD PUSH1 0x40 DUP1 MLOAD PUSH4 0xD63B3C49 PUSH1 0xE0 SHL DUP2 MSTORE PUSH1 0x9 PUSH1 0x4 DUP3 ADD MSTORE ADDRESS PUSH1 0x24 DUP3 ADD MSTORE PUSH1 0x0 PUSH1 0x44 DUP3 ADD DUP2 SWAP1 MSTORE SWAP2 MLOAD SWAP2 SWAP3 DUP4 SWAP3 PUSH1 0x1 PUSH1 0x1 PUSH1 0xA0 SHL SUB SWAP1 SWAP2 AND SWAP2 PUSH4 0xD63B3C49 SWAP2 PUSH1 0x64 DUP1 DUP4 ADD SWAP3 DUP7 SWAP3 SWAP2 SWAP1 DUP3 SWAP1 SUB ADD DUP2 DUP7 DUP1 EXTCODESIZE ISZERO DUP1 ISZERO PUSH2 0x1707 JUMPI PUSH1 0x0 DUP1 REVERT JUMPDEST POP GAS STATICCALL ISZERO DUP1 ISZERO PUSH2 0x171B JUMPI RETURNDATASIZE PUSH1 0x0 DUP1 RETURNDATACOPY RETURNDATASIZE PUSH1 0x0 REVERT JUMPDEST POP POP POP POP PUSH1 0x40 MLOAD RETURNDATASIZE PUSH1 0x0 DUP3 RETURNDATACOPY PUSH1 0x1F RETURNDATASIZE SWAP1 DUP2 ADD PUSH1 0x1F NOT AND DUP3 ADD PUSH1 0x40 SWAP1 DUP2 MSTORE DUP2 LT ISZERO PUSH2 0x1744 JUMPI PUSH1 0x0 DUP1 REVERT JUMPDEST DUP2 ADD SWAP1 DUP1 DUP1 MLOAD PUSH1 0x40 MLOAD SWAP4 SWAP3 SWAP2 SWAP1 DUP5 PUSH5 0x100000000 DUP3 GT ISZERO PUSH2 0x1764 JUMPI PUSH1 0x0 DUP1 REVERT JUMPDEST SWAP1 DUP4 ADD SWAP1 PUSH1 0x20 DUP3 ADD DUP6 DUP2 GT ISZERO PUSH2 0x1779 JUMPI PUSH1 0x0 DUP1 REVERT JUMPDEST DUP3 MLOAD DUP7 PUSH1 0x20 DUP3 MUL DUP4 ADD GT PUSH5 0x100000000 DUP3 GT OR ISZERO PUSH2 0x1796 JUMPI PUSH1 0x0 DUP1 REVERT JUMPDEST DUP3 MSTORE POP DUP2 MLOAD PUSH1 0x20 SWAP2 DUP3 ADD SWAP3 DUP3 ADD SWAP2 MUL DUP1 DUP4 DUP4 PUSH1 0x0 JUMPDEST DUP4 DUP2 LT ISZERO PUSH2 0x17C3 JUMPI DUP2 DUP2 ADD MLOAD DUP4 DUP3 ADD MSTORE PUSH1 0x20 ADD PUSH2 0x17AB JUMP JUMPDEST POP POP POP POP SWAP1 POP ADD PUSH1 0x40 MSTORE PUSH1 0x20 ADD DUP1 MLOAD PUSH1 0x40 MLOAD SWAP4 SWAP3 SWAP2 SWAP1 DUP5 PUSH5 0x100000000 DUP3 GT ISZERO PUSH2 0x17EC JUMPI PUSH1 0x0 DUP1 REVERT JUMPDEST SWAP1 DUP4 ADD SWAP1 PUSH1 0x20 DUP3 ADD DUP6 DUP2 GT ISZERO PUSH2 0x1801 JUMPI PUSH1 0x0 DUP1 REVERT JUMPDEST DUP3 MLOAD DUP7 PUSH1 0x20 DUP3 MUL DUP4 ADD GT PUSH5 0x100000000 DUP3 GT OR ISZERO PUSH2 0x181E JUMPI PUSH1 0x0 DUP1 REVERT JUMPDEST DUP3 MSTORE POP DUP2 MLOAD PUSH1 0x20 SWAP2 DUP3 ADD SWAP3 DUP3 ADD SWAP2 MUL DUP1 DUP4 DUP4 PUSH1 0x0 JUMPDEST DUP4 DUP2 LT ISZERO PUSH2 0x184B JUMPI DUP2 DUP2 ADD MLOAD DUP4 DUP3 ADD MSTORE PUSH1 0x20 ADD PUSH2 0x1833 JUMP JUMPDEST POP POP POP POP SWAP1 POP ADD PUSH1 0x40 MSTORE POP POP POP SWAP2 POP SWAP2 POP DUP2 PUSH1 0x0 DUP2 MLOAD DUP2 LT PUSH2 0x1869 JUMPI INVALID JUMPDEST PUSH1 0x20 SWAP1 DUP2 MUL SWAP2 SWAP1 SWAP2 ADD ADD MLOAD PUSH1 0x68 SLOAD PUSH1 0x1 PUSH1 0x1 PUSH1 0xA0 SHL SUB SWAP1 DUP2 AND SWAP2 AND EQ PUSH2 0x18C0 JUMPI PUSH1 0x40 MLOAD PUSH3 0x461BCD PUSH1 0xE5 SHL DUP2 MSTORE PUSH1 0x4 ADD DUP1 DUP1 PUSH1 0x20 ADD DUP3 DUP2 SUB DUP3 MSTORE PUSH1 0x2C DUP2 MSTORE PUSH1 0x20 ADD DUP1 PUSH2 0x3065 PUSH1 0x2C SWAP2 CODECOPY PUSH1 0x40 ADD SWAP2 POP POP PUSH1 0x40 MLOAD DUP1 SWAP2 SUB SWAP1 REVERT JUMPDEST PUSH1 0x0 DUP2 PUSH1 0x0 DUP2 MLOAD DUP2 LT PUSH2 0x18CF JUMPI INVALID JUMPDEST PUSH1 0x20 MUL PUSH1 0x20 ADD ADD MLOAD SWAP1 POP PUSH2 0x18FA PUSH2 0x18F1 PUSH1 0x6B SLOAD DUP4 PUSH2 0x29BE SWAP1 SWAP2 SWAP1 PUSH4 0xFFFFFFFF AND JUMP JUMPDEST PUSH1 0x74 SLOAD SWAP1 PUSH2 0x2902 JUMP JUMPDEST PUSH1 0x74 SSTORE PUSH1 0x6C SLOAD PUSH2 0x190A SWAP1 DUP3 PUSH2 0x2902 JUMP JUMPDEST PUSH1 0x6C SSTORE PUSH1 0x77 SLOAD PUSH1 0x40 DUP1 MLOAD PUSH4 0x65509BB PUSH1 0xE2 SHL DUP2 MSTORE PUSH1 0x9 PUSH1 0x4 DUP3 ADD MSTORE ADDRESS PUSH1 0x24 DUP3 ADD MSTORE SWAP1 MLOAD PUSH1 0x0 SWAP3 PUSH1 0x1 PUSH1 0x1 PUSH1 0xA0 SHL SUB AND SWAP2 PUSH4 0x195426EC SWAP2 PUSH1 0x44 DUP1 DUP4 ADD SWAP3 PUSH1 0x20 SWAP3 SWAP2 SWAP1 DUP3 SWAP1 SUB ADD DUP2 DUP7 DUP1 EXTCODESIZE ISZERO DUP1 ISZERO PUSH2 0x195F JUMPI PUSH1 0x0 DUP1 REVERT JUMPDEST POP GAS STATICCALL ISZERO DUP1 ISZERO PUSH2 0x1973 JUMPI RETURNDATASIZE PUSH1 0x0 DUP1 RETURNDATACOPY RETURNDATASIZE PUSH1 0x0 REVERT JUMPDEST POP POP POP POP PUSH1 0x40 MLOAD RETURNDATASIZE PUSH1 0x20 DUP2 LT ISZERO PUSH2 0x1989 JUMPI PUSH1 0x0 DUP1 REVERT JUMPDEST POP MLOAD PUSH1 0x6B SLOAD SWAP1 SWAP2 POP PUSH2 0x19A9 SWAP1 PUSH2 0x19A0 SWAP1 DUP4 SWAP1 PUSH2 0x29BE JUMP JUMPDEST PUSH1 0x75 SLOAD SWAP1 PUSH2 0x2902 JUMP JUMPDEST PUSH1 0x75 SSTORE PUSH1 0x6D SLOAD PUSH2 0x19B9 SWAP1 DUP3 PUSH2 0x2902 JUMP JUMPDEST PUSH1 0x6D SSTORE TIMESTAMP PUSH1 0x73 SSTORE PUSH1 0x77 SLOAD PUSH1 0x40 DUP1 MLOAD PUSH4 0xC7E663B PUSH1 0xE1 SHL DUP2 MSTORE PUSH1 0x9 PUSH1 0x4 DUP3 ADD MSTORE ADDRESS PUSH1 0x24 DUP3 ADD MSTORE SWAP1 MLOAD PUSH1 0x1 PUSH1 0x1 PUSH1 0xA0 SHL SUB SWAP1 SWAP3 AND SWAP2 PUSH4 0x18FCCC76 SWAP2 PUSH1 0x44 DUP1 DUP3 ADD SWAP3 PUSH1 0x0 SWAP3 SWAP1 SWAP2 SWAP1 DUP3 SWAP1 SUB ADD DUP2 DUP4 DUP8 DUP1 EXTCODESIZE ISZERO DUP1 ISZERO PUSH2 0x1A13 JUMPI PUSH1 0x0 DUP1 REVERT JUMPDEST POP GAS CALL ISZERO DUP1 ISZERO PUSH2 0x1A27 JUMPI RETURNDATASIZE PUSH1 0x0 DUP1 RETURNDATACOPY RETURNDATASIZE PUSH1 0x0 REVERT JUMPDEST POP POP PUSH1 0x40 DUP1 MLOAD DUP6 DUP2 MSTORE PUSH1 0x20 DUP2 ADD DUP6 SWAP1 MSTORE DUP2 MLOAD PUSH32 0x8ECF343D22D1934AEA3FB34B7332371552B19286C5BC696ADAE16C7690A90D54 SWAP5 POP SWAP1 DUP2 SWAP1 SUB SWAP1 SWAP2 ADD SWAP2 POP LOG1 PUSH1 0x73 SLOAD PUSH1 0x75 SLOAD PUSH1 0x74 SLOAD SWAP7 POP SWAP7 POP SWAP7 POP POP POP POP POP PUSH2 0x1A88 JUMP JUMPDEST POP PUSH1 0x0 SWAP2 POP DUP2 SWAP1 POP DUP1 JUMPDEST SWAP1 SWAP2 SWAP3 JUMP JUMPDEST PUSH2 0x1A95 PUSH2 0x26F0 JUMP JUMPDEST PUSH1 0x1 PUSH1 0x1 PUSH1 0xA0 SHL SUB AND PUSH2 0x1AA6 PUSH2 0x164E JUMP JUMPDEST PUSH1 0x1 PUSH1 0x1 PUSH1 0xA0 SHL SUB AND EQ PUSH2 0x1AEF JUMPI PUSH1 0x40 DUP1 MLOAD PUSH3 0x461BCD PUSH1 0xE5 SHL DUP2 MSTORE PUSH1 0x20 PUSH1 0x4 DUP3 ADD DUP2 SWAP1 MSTORE PUSH1 0x24 DUP3 ADD MSTORE PUSH1 0x0 DUP1 MLOAD PUSH1 0x20 PUSH2 0x312C DUP4 CODECOPY DUP2 MLOAD SWAP2 MSTORE PUSH1 0x44 DUP3 ADD MSTORE SWAP1 MLOAD SWAP1 DUP2 SWAP1 SUB PUSH1 0x64 ADD SWAP1 REVERT JUMPDEST PUSH1 0x79 DUP1 SLOAD SWAP1 DUP3 SWAP1 SSTORE PUSH1 0x40 MLOAD DUP3 SWAP1 DUP3 SWAP1 PUSH32 0x4C98CF9B88D370C1F7909301995611F647088F4C05D29CB98073FB4E20DCB147 SWAP1 PUSH1 0x0 SWAP1 LOG3 POP POP JUMP JUMPDEST PUSH1 0x74 SLOAD DUP2 JUMP JUMPDEST PUSH2 0x1B36 PUSH2 0x26F0 JUMP JUMPDEST PUSH1 0x1 PUSH1 0x1 PUSH1 0xA0 SHL SUB AND PUSH2 0x1B47 PUSH2 0x164E JUMP JUMPDEST PUSH1 0x1 PUSH1 0x1 PUSH1 0xA0 SHL SUB AND EQ PUSH2 0x1B90 JUMPI PUSH1 0x40 DUP1 MLOAD PUSH3 0x461BCD PUSH1 0xE5 SHL DUP2 MSTORE PUSH1 0x20 PUSH1 0x4 DUP3 ADD DUP2 SWAP1 MSTORE PUSH1 0x24 DUP3 ADD MSTORE PUSH1 0x0 DUP1 MLOAD PUSH1 0x20 PUSH2 0x312C DUP4 CODECOPY DUP2 MLOAD SWAP2 MSTORE PUSH1 0x44 DUP3 ADD MSTORE SWAP1 MLOAD SWAP1 DUP2 SWAP1 SUB PUSH1 0x64 ADD SWAP1 REVERT JUMPDEST PUSH1 0x7A DUP1 SLOAD PUSH1 0x1 PUSH1 0x1 PUSH1 0xA0 SHL SUB NOT AND PUSH1 0x1 PUSH1 0x1 PUSH1 0xA0 SHL SUB DUP4 AND SWAP1 DUP2 OR SWAP1 SWAP2 SSTORE PUSH1 0x40 MLOAD PUSH32 0x60EDC991B058A7E279075CF86F19A6B478334EFEC47E089D09890B139C782327 SWAP1 PUSH1 0x0 SWAP1 LOG2 POP JUMP JUMPDEST PUSH1 0x75 SLOAD DUP2 JUMP JUMPDEST PUSH1 0x71 SLOAD DUP2 JUMP JUMPDEST PUSH1 0x78 SLOAD PUSH1 0x1 PUSH1 0x1 PUSH1 0xA0 SHL SUB AND DUP2 JUMP JUMPDEST PUSH1 0x6C SLOAD DUP2 JUMP JUMPDEST PUSH1 0x9 DUP2 JUMP JUMPDEST PUSH2 0x1C08 PUSH2 0x26F0 JUMP JUMPDEST PUSH1 0x1 PUSH1 0x1 PUSH1 0xA0 SHL SUB AND PUSH2 0x1C19 PUSH2 0x164E JUMP JUMPDEST PUSH1 0x1 PUSH1 0x1 PUSH1 0xA0 SHL SUB AND EQ PUSH2 0x1C62 JUMPI PUSH1 0x40 DUP1 MLOAD PUSH3 0x461BCD PUSH1 0xE5 SHL DUP2 MSTORE PUSH1 0x20 PUSH1 0x4 DUP3 ADD DUP2 SWAP1 MSTORE PUSH1 0x24 DUP3 ADD MSTORE PUSH1 0x0 DUP1 MLOAD PUSH1 0x20 PUSH2 0x312C DUP4 CODECOPY DUP2 MLOAD SWAP2 MSTORE PUSH1 0x44 DUP3 ADD MSTORE SWAP1 MLOAD SWAP1 DUP2 SWAP1 SUB PUSH1 0x64 ADD SWAP1 REVERT JUMPDEST PUSH1 0x1 PUSH1 0x1 PUSH1 0xA0 SHL SUB DUP2 AND PUSH2 0x1CA7 JUMPI PUSH1 0x40 MLOAD PUSH3 0x461BCD PUSH1 0xE5 SHL DUP2 MSTORE PUSH1 0x4 ADD DUP1 DUP1 PUSH1 0x20 ADD DUP3 DUP2 SUB DUP3 MSTORE PUSH1 0x26 DUP2 MSTORE PUSH1 0x20 ADD DUP1 PUSH2 0x3091 PUSH1 0x26 SWAP2 CODECOPY PUSH1 0x40 ADD SWAP2 POP POP PUSH1 0x40 MLOAD DUP1 SWAP2 SUB SWAP1 REVERT JUMPDEST PUSH1 0x33 SLOAD PUSH1 0x40 MLOAD PUSH1 0x1 PUSH1 0x1 PUSH1 0xA0 SHL SUB DUP1 DUP5 AND SWAP3 AND SWAP1 PUSH32 0x8BE0079C531659141344CD1FD0A4F28419497F9722A3DAAFE3B4186F6B6457E0 SWAP1 PUSH1 0x0 SWAP1 LOG3 PUSH1 0x33 DUP1 SLOAD PUSH1 0x1 PUSH1 0x1 PUSH1 0xA0 SHL SUB NOT AND PUSH1 0x1 PUSH1 0x1 PUSH1 0xA0 SHL SUB SWAP3 SWAP1 SWAP3 AND SWAP2 SWAP1 SWAP2 OR SWAP1 SSTORE JUMP JUMPDEST PUSH1 0x65 SLOAD PUSH1 0x1 PUSH1 0x1 PUSH1 0xA0 SHL SUB DUP4 DUP2 AND SWAP2 AND EQ DUP1 PUSH2 0x1D2C JUMPI POP PUSH1 0x66 SLOAD PUSH1 0x1 PUSH1 0x1 PUSH1 0xA0 SHL SUB DUP4 DUP2 AND SWAP2 AND EQ JUMPDEST DUP1 PUSH2 0x1D44 JUMPI POP PUSH1 0x67 SLOAD PUSH1 0x1 PUSH1 0x1 PUSH1 0xA0 SHL SUB DUP4 DUP2 AND SWAP2 AND EQ JUMPDEST PUSH2 0x1D95 JUMPI PUSH1 0x40 DUP1 MLOAD PUSH3 0x461BCD PUSH1 0xE5 SHL DUP2 MSTORE PUSH1 0x20 PUSH1 0x4 DUP3 ADD MSTORE PUSH1 0x17 PUSH1 0x24 DUP3 ADD MSTORE PUSH32 0x77697468647261773A20696E76616C696420746F6B656E000000000000000000 PUSH1 0x44 DUP3 ADD MSTORE SWAP1 MLOAD SWAP1 DUP2 SWAP1 SUB PUSH1 0x64 ADD SWAP1 REVERT JUMPDEST CALLER PUSH1 0x0 SWAP1 DUP2 MSTORE PUSH1 0x72 PUSH1 0x20 MSTORE PUSH1 0x40 SWAP1 KECCAK256 DUP2 ISZERO DUP1 ISZERO SWAP1 PUSH2 0x1DB4 JUMPI POP DUP1 SLOAD DUP3 GT ISZERO JUMPDEST PUSH2 0x1E05 JUMPI PUSH1 0x40 DUP1 MLOAD PUSH3 0x461BCD PUSH1 0xE5 SHL DUP2 MSTORE PUSH1 0x20 PUSH1 0x4 DUP3 ADD MSTORE PUSH1 0x18 PUSH1 0x24 DUP3 ADD MSTORE PUSH32 0x77697468647261773A20696E76616C696420616D6F756E740000000000000000 PUSH1 0x44 DUP3 ADD MSTORE SWAP1 MLOAD SWAP1 DUP2 SWAP1 SUB PUSH1 0x64 ADD SWAP1 REVERT JUMPDEST PUSH2 0x1E0D PUSH2 0x78B JUMP JUMPDEST PUSH1 0x74 SLOAD DUP2 SLOAD PUSH1 0x0 SWAP2 PUSH2 0x1E1F SWAP2 SWAP1 PUSH2 0x2965 JUMP JUMPDEST SWAP1 POP PUSH1 0x0 PUSH2 0x1E4C DUP4 PUSH1 0x0 ADD SLOAD PUSH2 0x667 DUP7 PUSH2 0x1E46 DUP8 PUSH1 0x1 ADD SLOAD DUP8 PUSH2 0x2A25 SWAP1 SWAP2 SWAP1 PUSH4 0xFFFFFFFF AND JUMP JUMPDEST SWAP1 PUSH2 0x2965 JUMP JUMPDEST PUSH1 0x75 SLOAD DUP5 SLOAD SWAP2 SWAP3 POP PUSH1 0x0 SWAP2 PUSH2 0x1E60 SWAP2 PUSH2 0x2965 JUMP JUMPDEST SWAP1 POP PUSH1 0x0 PUSH2 0x1E87 DUP6 PUSH1 0x0 ADD SLOAD PUSH2 0x667 DUP9 PUSH2 0x1E46 DUP10 PUSH1 0x2 ADD SLOAD DUP8 PUSH2 0x2A25 SWAP1 SWAP2 SWAP1 PUSH4 0xFFFFFFFF AND JUMP JUMPDEST SWAP1 POP PUSH1 0x0 DUP1 PUSH1 0x0 DUP1 PUSH2 0x1EA4 DUP11 PUSH1 0x74 SLOAD PUSH2 0x2965 SWAP1 SWAP2 SWAP1 PUSH4 0xFFFFFFFF AND JUMP JUMPDEST SWAP1 POP DUP9 PUSH1 0x1 ADD SLOAD DUP2 GT PUSH2 0x1ECA JUMPI PUSH1 0x1 DUP10 ADD SLOAD PUSH2 0x1EC0 SWAP1 DUP3 PUSH2 0x2A25 JUMP JUMPDEST PUSH1 0x1 DUP11 ADD SSTORE PUSH2 0x1EF5 JUMP JUMPDEST PUSH2 0x1EEB PUSH2 0x1EE4 DUP11 PUSH1 0x1 ADD SLOAD DUP4 PUSH2 0x2A25 SWAP1 SWAP2 SWAP1 PUSH4 0xFFFFFFFF AND JUMP JUMPDEST DUP9 SWAP1 PUSH2 0x2902 JUMP JUMPDEST PUSH1 0x0 PUSH1 0x1 DUP12 ADD SSTORE SWAP7 POP JUMPDEST DUP7 ISZERO PUSH2 0x20F4 JUMPI DUP9 SLOAD DUP11 LT DUP1 ISZERO PUSH2 0x1F0E JUMPI POP DUP9 PUSH1 0x1 ADD SLOAD DUP8 LT JUMPDEST ISZERO PUSH2 0x1F2C JUMPI PUSH1 0x1 DUP10 ADD SLOAD PUSH2 0x1F22 SWAP1 DUP9 PUSH2 0x2A25 JUMP JUMPDEST PUSH1 0x1 DUP11 ADD SSTORE PUSH2 0x20F4 JUMP JUMPDEST PUSH1 0x68 SLOAD PUSH1 0x40 DUP1 MLOAD PUSH4 0x70A08231 PUSH1 0xE0 SHL DUP2 MSTORE ADDRESS PUSH1 0x4 DUP3 ADD MSTORE SWAP1 MLOAD PUSH1 0x0 SWAP3 PUSH1 0x1 PUSH1 0x1 PUSH1 0xA0 SHL SUB AND SWAP2 PUSH4 0x70A08231 SWAP2 PUSH1 0x24 DUP1 DUP4 ADD SWAP3 PUSH1 0x20 SWAP3 SWAP2 SWAP1 DUP3 SWAP1 SUB ADD DUP2 DUP7 DUP1 EXTCODESIZE ISZERO DUP1 ISZERO PUSH2 0x1F77 JUMPI PUSH1 0x0 DUP1 REVERT JUMPDEST POP GAS STATICCALL ISZERO DUP1 ISZERO PUSH2 0x1F8B JUMPI RETURNDATASIZE PUSH1 0x0 DUP1 RETURNDATACOPY RETURNDATASIZE PUSH1 0x0 REVERT JUMPDEST POP POP POP POP PUSH1 0x40 MLOAD RETURNDATASIZE PUSH1 0x20 DUP2 LT ISZERO PUSH2 0x1FA1 JUMPI PUSH1 0x0 DUP1 REVERT JUMPDEST POP MLOAD SWAP1 POP DUP8 DUP2 LT ISZERO PUSH2 0x1FB1 JUMPI DUP1 SWAP8 POP JUMPDEST PUSH1 0x67 SLOAD PUSH1 0x1 PUSH1 0x1 PUSH1 0xA0 SHL SUB DUP14 DUP2 AND SWAP2 AND EQ ISZERO PUSH2 0x20D8 JUMPI PUSH1 0x68 SLOAD PUSH1 0x65 SLOAD PUSH1 0x0 SWAP2 PUSH2 0x1FEC SWAP2 PUSH1 0x1 PUSH1 0x1 PUSH1 0xA0 SHL SUB SWAP2 DUP3 AND SWAP2 AND PUSH2 0xB28 DUP13 PUSH1 0x2 PUSH2 0x29BE JUMP JUMPDEST PUSH1 0x68 SLOAD PUSH1 0x66 SLOAD SWAP2 SWAP3 POP PUSH1 0x0 SWAP2 PUSH2 0x2014 SWAP2 PUSH1 0x1 PUSH1 0x1 PUSH1 0xA0 SHL SUB SWAP1 DUP2 AND SWAP2 AND PUSH2 0xB28 DUP14 PUSH1 0x2 PUSH2 0x29BE JUMP JUMPDEST PUSH1 0x76 SLOAD PUSH1 0x65 SLOAD PUSH1 0x66 SLOAD PUSH1 0x40 DUP1 MLOAD PUSH3 0xE8E337 PUSH1 0xE8 SHL DUP2 MSTORE PUSH1 0x1 PUSH1 0x1 PUSH1 0xA0 SHL SUB SWAP4 DUP5 AND PUSH1 0x4 DUP3 ADD MSTORE SWAP2 DUP4 AND PUSH1 0x24 DUP4 ADD MSTORE PUSH1 0x44 DUP3 ADD DUP8 SWAP1 MSTORE PUSH1 0x64 DUP3 ADD DUP6 SWAP1 MSTORE PUSH1 0x0 PUSH1 0x84 DUP4 ADD DUP2 SWAP1 MSTORE PUSH1 0xA4 DUP4 ADD DUP2 SWAP1 MSTORE ADDRESS PUSH1 0xC4 DUP5 ADD MSTORE TIMESTAMP PUSH1 0xE4 DUP5 ADD MSTORE SWAP1 MLOAD SWAP5 SWAP6 POP SWAP4 SWAP2 SWAP1 SWAP3 AND SWAP2 PUSH4 0xE8E33700 SWAP2 PUSH2 0x104 DUP1 DUP4 ADD SWAP3 PUSH1 0x60 SWAP3 SWAP2 SWAP1 DUP3 SWAP1 SUB ADD DUP2 DUP8 DUP8 DUP1 EXTCODESIZE ISZERO DUP1 ISZERO PUSH2 0x209E JUMPI PUSH1 0x0 DUP1 REVERT JUMPDEST POP GAS CALL ISZERO DUP1 ISZERO PUSH2 0x20B2 JUMPI RETURNDATASIZE PUSH1 0x0 DUP1 RETURNDATACOPY RETURNDATASIZE PUSH1 0x0 REVERT JUMPDEST POP POP POP POP PUSH1 0x40 MLOAD RETURNDATASIZE PUSH1 0x60 DUP2 LT ISZERO PUSH2 0x20C8 JUMPI PUSH1 0x0 DUP1 REVERT JUMPDEST POP PUSH1 0x40 ADD MLOAD SWAP7 POP PUSH2 0x20F2 SWAP3 POP POP POP JUMP JUMPDEST PUSH1 0x68 SLOAD PUSH2 0x20EF SWAP1 PUSH1 0x1 PUSH1 0x1 PUSH1 0xA0 SHL SUB AND DUP14 DUP11 PUSH2 0x26F4 JUMP JUMPDEST SWAP4 POP JUMPDEST POP JUMPDEST PUSH1 0x75 SLOAD PUSH2 0x2101 SWAP1 DUP12 PUSH2 0x2965 JUMP JUMPDEST SWAP1 POP DUP9 PUSH1 0x2 ADD SLOAD DUP2 GT PUSH2 0x2127 JUMPI PUSH1 0x2 DUP10 ADD SLOAD PUSH2 0x211D SWAP1 DUP3 PUSH2 0x2A25 JUMP JUMPDEST PUSH1 0x2 DUP11 ADD SSTORE PUSH2 0x2152 JUMP JUMPDEST PUSH2 0x2148 PUSH2 0x2141 DUP11 PUSH1 0x2 ADD SLOAD DUP4 PUSH2 0x2A25 SWAP1 SWAP2 SWAP1 PUSH4 0xFFFFFFFF AND JUMP JUMPDEST DUP7 SWAP1 PUSH2 0x2902 JUMP JUMPDEST PUSH1 0x0 PUSH1 0x2 DUP12 ADD SSTORE SWAP5 POP JUMPDEST DUP5 ISZERO PUSH2 0x2367 JUMPI DUP9 SLOAD DUP11 LT DUP1 ISZERO PUSH2 0x216B JUMPI POP DUP9 PUSH1 0x2 ADD SLOAD DUP6 LT JUMPDEST ISZERO PUSH2 0x2189 JUMPI PUSH1 0x2 DUP10 ADD SLOAD PUSH2 0x217F SWAP1 DUP7 PUSH2 0x2A25 JUMP JUMPDEST PUSH1 0x2 DUP11 ADD SSTORE PUSH2 0x2367 JUMP JUMPDEST PUSH1 0x69 SLOAD PUSH1 0x40 DUP1 MLOAD PUSH4 0x70A08231 PUSH1 0xE0 SHL DUP2 MSTORE ADDRESS PUSH1 0x4 DUP3 ADD MSTORE SWAP1 MLOAD PUSH1 0x0 SWAP3 PUSH1 0x1 PUSH1 0x1 PUSH1 0xA0 SHL SUB AND SWAP2 PUSH4 0x70A08231 SWAP2 PUSH1 0x24 DUP1 DUP4 ADD SWAP3 PUSH1 0x20 SWAP3 SWAP2 SWAP1 DUP3 SWAP1 SUB ADD DUP2 DUP7 DUP1 EXTCODESIZE ISZERO DUP1 ISZERO PUSH2 0x21D4 JUMPI PUSH1 0x0 DUP1 REVERT JUMPDEST POP GAS STATICCALL ISZERO DUP1 ISZERO PUSH2 0x21E8 JUMPI RETURNDATASIZE PUSH1 0x0 DUP1 RETURNDATACOPY RETURNDATASIZE PUSH1 0x0 REVERT JUMPDEST POP POP POP POP PUSH1 0x40 MLOAD RETURNDATASIZE PUSH1 0x20 DUP2 LT ISZERO PUSH2 0x21FE JUMPI PUSH1 0x0 DUP1 REVERT JUMPDEST POP MLOAD SWAP1 POP DUP6 DUP2 LT ISZERO PUSH2 0x220E JUMPI DUP1 SWAP6 POP JUMPDEST PUSH1 0x67 SLOAD PUSH1 0x1 PUSH1 0x1 PUSH1 0xA0 SHL SUB DUP14 DUP2 AND SWAP2 AND EQ ISZERO PUSH2 0x2340 JUMPI PUSH1 0x69 SLOAD PUSH1 0x65 SLOAD PUSH1 0x0 SWAP2 PUSH2 0x2249 SWAP2 PUSH1 0x1 PUSH1 0x1 PUSH1 0xA0 SHL SUB SWAP2 DUP3 AND SWAP2 AND PUSH2 0xB28 DUP11 PUSH1 0x2 PUSH2 0x29BE JUMP JUMPDEST PUSH1 0x69 SLOAD PUSH1 0x66 SLOAD SWAP2 SWAP3 POP PUSH1 0x0 SWAP2 PUSH2 0x2271 SWAP2 PUSH1 0x1 PUSH1 0x1 PUSH1 0xA0 SHL SUB SWAP1 DUP2 AND SWAP2 AND PUSH2 0xB28 DUP12 PUSH1 0x2 PUSH2 0x29BE JUMP JUMPDEST PUSH1 0x76 SLOAD PUSH1 0x65 SLOAD PUSH1 0x66 SLOAD PUSH1 0x40 DUP1 MLOAD PUSH3 0xE8E337 PUSH1 0xE8 SHL DUP2 MSTORE PUSH1 0x1 PUSH1 0x1 PUSH1 0xA0 SHL SUB SWAP4 DUP5 AND PUSH1 0x4 DUP3 ADD MSTORE SWAP2 DUP4 AND PUSH1 0x24 DUP4 ADD MSTORE PUSH1 0x44 DUP3 ADD DUP8 SWAP1 MSTORE PUSH1 0x64 DUP3 ADD DUP6 SWAP1 MSTORE PUSH1 0x0 PUSH1 0x84 DUP4 ADD DUP2 SWAP1 MSTORE PUSH1 0xA4 DUP4 ADD DUP2 SWAP1 MSTORE ADDRESS PUSH1 0xC4 DUP5 ADD MSTORE TIMESTAMP PUSH1 0xE4 DUP5 ADD MSTORE SWAP1 MLOAD SWAP5 SWAP6 POP SWAP4 SWAP2 SWAP1 SWAP3 AND SWAP2 PUSH4 0xE8E33700 SWAP2 PUSH2 0x104 DUP1 DUP4 ADD SWAP3 PUSH1 0x60 SWAP3 SWAP2 SWAP1 DUP3 SWAP1 SUB ADD DUP2 DUP8 DUP8 DUP1 EXTCODESIZE ISZERO DUP1 ISZERO PUSH2 0x22FB JUMPI PUSH1 0x0 DUP1 REVERT JUMPDEST POP GAS CALL ISZERO DUP1 ISZERO PUSH2 0x230F JUMPI RETURNDATASIZE PUSH1 0x0 DUP1 RETURNDATACOPY RETURNDATASIZE PUSH1 0x0 REVERT JUMPDEST POP POP POP POP PUSH1 0x40 MLOAD RETURNDATASIZE PUSH1 0x60 DUP2 LT ISZERO PUSH2 0x2325 JUMPI PUSH1 0x0 DUP1 REVERT JUMPDEST POP PUSH1 0x40 ADD MLOAD SWAP1 POP PUSH2 0x2336 DUP8 DUP3 PUSH2 0x2902 JUMP JUMPDEST SWAP7 POP POP POP POP PUSH2 0x2365 JUMP JUMPDEST PUSH1 0x69 SLOAD PUSH2 0x2362 SWAP1 PUSH2 0x235B SWAP1 PUSH1 0x1 PUSH1 0x1 PUSH1 0xA0 SHL SUB AND DUP15 DUP10 PUSH2 0x26F4 JUMP JUMPDEST DUP6 SWAP1 PUSH2 0x2902 JUMP JUMPDEST SWAP4 POP JUMPDEST POP JUMPDEST DUP3 ISZERO PUSH2 0x2397 JUMPI PUSH2 0x2388 PUSH2 0x2710 PUSH2 0x667 PUSH1 0x79 SLOAD DUP7 PUSH2 0x2965 SWAP1 SWAP2 SWAP1 PUSH4 0xFFFFFFFF AND JUMP JUMPDEST SWAP2 POP PUSH2 0x2394 DUP4 DUP4 PUSH2 0x2A25 JUMP JUMPDEST SWAP3 POP JUMPDEST DUP9 SLOAD PUSH2 0x23A3 SWAP1 DUP12 PUSH2 0x2A25 JUMP JUMPDEST DUP10 SSTORE PUSH1 0x6B SLOAD PUSH2 0x23B2 SWAP1 DUP12 PUSH2 0x2A25 JUMP JUMPDEST PUSH1 0x6B SSTORE PUSH1 0x77 SLOAD PUSH1 0x40 DUP1 MLOAD PUSH4 0xAD58D2F PUSH1 0xE0 SHL DUP2 MSTORE PUSH1 0x9 PUSH1 0x4 DUP3 ADD MSTORE PUSH1 0x24 DUP2 ADD DUP14 SWAP1 MSTORE ADDRESS PUSH1 0x44 DUP3 ADD MSTORE SWAP1 MLOAD PUSH1 0x1 PUSH1 0x1 PUSH1 0xA0 SHL SUB SWAP1 SWAP3 AND SWAP2 PUSH4 0xAD58D2F SWAP2 PUSH1 0x64 DUP1 DUP3 ADD SWAP3 PUSH1 0x0 SWAP3 SWAP1 SWAP2 SWAP1 DUP3 SWAP1 SUB ADD DUP2 DUP4 DUP8 DUP1 EXTCODESIZE ISZERO DUP1 ISZERO PUSH2 0x240F JUMPI PUSH1 0x0 DUP1 REVERT JUMPDEST POP GAS CALL ISZERO DUP1 ISZERO PUSH2 0x2423 JUMPI RETURNDATASIZE PUSH1 0x0 DUP1 RETURNDATACOPY RETURNDATASIZE PUSH1 0x0 REVERT JUMPDEST POP POP PUSH1 0x65 SLOAD PUSH1 0x1 PUSH1 0x1 PUSH1 0xA0 SHL SUB DUP15 DUP2 AND SWAP2 AND EQ ISZERO SWAP2 POP PUSH2 0x252B SWAP1 POP JUMPI PUSH1 0x76 SLOAD PUSH1 0x65 SLOAD PUSH1 0x66 SLOAD PUSH1 0x40 DUP1 MLOAD PUSH4 0x5D5155EF PUSH1 0xE1 SHL DUP2 MSTORE PUSH1 0x1 PUSH1 0x1 PUSH1 0xA0 SHL SUB SWAP4 DUP5 AND PUSH1 0x4 DUP3 ADD MSTORE SWAP2 DUP4 AND PUSH1 0x24 DUP4 ADD MSTORE PUSH1 0x44 DUP3 ADD DUP15 SWAP1 MSTORE PUSH1 0x0 PUSH1 0x64 DUP4 ADD DUP2 SWAP1 MSTORE PUSH1 0x84 DUP4 ADD DUP2 SWAP1 MSTORE ADDRESS PUSH1 0xA4 DUP5 ADD MSTORE TIMESTAMP PUSH1 0xC4 DUP5 ADD MSTORE DUP2 MLOAD SWAP1 SWAP5 DUP6 SWAP5 AND SWAP3 PUSH4 0xBAA2ABDE SWAP3 PUSH1 0xE4 DUP1 DUP4 ADD SWAP4 SWAP2 SWAP3 DUP3 SWAP1 SUB ADD DUP2 DUP8 DUP8 DUP1 EXTCODESIZE ISZERO DUP1 ISZERO PUSH2 0x24BC JUMPI PUSH1 0x0 DUP1 REVERT JUMPDEST POP GAS CALL ISZERO DUP1 ISZERO PUSH2 0x24D0 JUMPI RETURNDATASIZE PUSH1 0x0 DUP1 RETURNDATACOPY RETURNDATASIZE PUSH1 0x0 REVERT JUMPDEST POP POP POP POP PUSH1 0x40 MLOAD RETURNDATASIZE PUSH1 0x40 DUP2 LT ISZERO PUSH2 0x24E6 JUMPI PUSH1 0x0 DUP1 REVERT JUMPDEST POP DUP1 MLOAD PUSH1 0x20 SWAP1 SWAP2 ADD MLOAD PUSH1 0x66 SLOAD PUSH1 0x65 SLOAD SWAP3 SWAP5 POP SWAP1 SWAP3 POP PUSH1 0x0 SWAP2 PUSH2 0x2515 SWAP2 PUSH1 0x1 PUSH1 0x1 PUSH1 0xA0 SHL SUB SWAP1 DUP2 AND SWAP2 AND DUP5 PUSH2 0x26F4 JUMP JUMPDEST SWAP1 POP PUSH2 0x2521 DUP4 DUP3 PUSH2 0x2902 JUMP JUMPDEST SWAP7 POP POP POP POP PUSH2 0x261B JUMP JUMPDEST PUSH1 0x66 SLOAD PUSH1 0x1 PUSH1 0x1 PUSH1 0xA0 SHL SUB DUP13 DUP2 AND SWAP2 AND EQ ISZERO PUSH2 0x2617 JUMPI PUSH1 0x76 SLOAD PUSH1 0x66 SLOAD PUSH1 0x65 SLOAD PUSH1 0x40 DUP1 MLOAD PUSH4 0x5D5155EF PUSH1 0xE1 SHL DUP2 MSTORE PUSH1 0x1 PUSH1 0x1 PUSH1 0xA0 SHL SUB SWAP4 DUP5 AND PUSH1 0x4 DUP3 ADD MSTORE SWAP2 DUP4 AND PUSH1 0x24 DUP4 ADD MSTORE PUSH1 0x44 DUP3 ADD DUP15 SWAP1 MSTORE PUSH1 0x0 PUSH1 0x64 DUP4 ADD DUP2 SWAP1 MSTORE PUSH1 0x84 DUP4 ADD DUP2 SWAP1 MSTORE ADDRESS PUSH1 0xA4 DUP5 ADD MSTORE TIMESTAMP PUSH1 0xC4 DUP5 ADD MSTORE DUP2 MLOAD SWAP1 SWAP5 DUP6 SWAP5 AND SWAP3 PUSH4 0xBAA2ABDE SWAP3 PUSH1 0xE4 DUP1 DUP4 ADD SWAP4 SWAP2 SWAP3 DUP3 SWAP1 SUB ADD DUP2 DUP8 DUP8 DUP1 EXTCODESIZE ISZERO DUP1 ISZERO PUSH2 0x25BE JUMPI PUSH1 0x0 DUP1 REVERT JUMPDEST POP GAS CALL ISZERO DUP1 ISZERO PUSH2 0x25D2 JUMPI RETURNDATASIZE PUSH1 0x0 DUP1 RETURNDATACOPY RETURNDATASIZE PUSH1 0x0 REVERT JUMPDEST POP POP POP POP PUSH1 0x40 MLOAD RETURNDATASIZE PUSH1 0x40 DUP2 LT ISZERO PUSH2 0x25E8 JUMPI PUSH1 0x0 DUP1 REVERT JUMPDEST POP DUP1 MLOAD PUSH1 0x20 SWAP1 SWAP2 ADD MLOAD PUSH1 0x65 SLOAD PUSH1 0x66 SLOAD SWAP3 SWAP5 POP SWAP1 SWAP3 POP PUSH1 0x0 SWAP2 PUSH2 0x2515 SWAP2 PUSH1 0x1 PUSH1 0x1 PUSH1 0xA0 SHL SUB SWAP1 DUP2 AND SWAP2 AND DUP5 PUSH2 0x26F4 JUMP JUMPDEST DUP10 SWAP4 POP JUMPDEST PUSH1 0x0 PUSH2 0x262E PUSH2 0x2710 PUSH2 0x667 DUP8 PUSH1 0xA PUSH2 0x2965 JUMP JUMPDEST SWAP1 POP PUSH2 0x263A DUP6 DUP3 PUSH2 0x2A25 JUMP JUMPDEST PUSH1 0x7A SLOAD SWAP1 SWAP6 POP PUSH2 0x2668 SWAP1 PUSH1 0x1 PUSH1 0x1 PUSH1 0xA0 SHL SUB AND PUSH2 0x2657 DUP4 DUP7 PUSH2 0x2902 JUMP JUMPDEST PUSH1 0x1 PUSH1 0x1 PUSH1 0xA0 SHL SUB DUP16 AND SWAP2 SWAP1 PUSH2 0x2A82 JUMP JUMPDEST PUSH2 0x2676 CALLER PUSH2 0x2657 DUP8 DUP8 PUSH2 0x2902 JUMP JUMPDEST PUSH1 0x1 PUSH1 0x1 PUSH1 0xA0 SHL SUB DUP13 AND PUSH32 0xF279E6A1F5E320CCA91135676D9CB6E44CA8A08C0B88342BCDB1144F6511B568 DUP13 PUSH2 0x26AC DUP9 DUP9 PUSH2 0x2902 JUMP JUMPDEST PUSH1 0x40 DUP1 MLOAD SWAP3 DUP4 MSTORE PUSH1 0x20 DUP4 ADD SWAP2 SWAP1 SWAP2 MSTORE DUP1 MLOAD SWAP2 DUP3 SWAP1 SUB ADD SWAP1 LOG2 POP POP POP POP POP POP POP POP POP POP POP POP JUMP JUMPDEST PUSH1 0x6A SLOAD PUSH1 0x1 PUSH1 0x1 PUSH1 0xA0 SHL SUB AND DUP2 JUMP JUMPDEST PUSH1 0x76 SLOAD PUSH1 0x1 PUSH1 0x1 PUSH1 0xA0 SHL SUB AND DUP2 JUMP JUMPDEST CALLER SWAP1 JUMP JUMPDEST PUSH1 0x40 DUP1 MLOAD PUSH1 0x2 DUP1 DUP3 MSTORE PUSH1 0x60 DUP3 ADD DUP4 MSTORE PUSH1 0x0 SWAP3 DUP4 SWAP3 SWAP2 SWAP1 PUSH1 0x20 DUP4 ADD SWAP1 DUP1 CALLDATASIZE DUP4 CALLDATACOPY ADD SWAP1 POP POP SWAP1 POP DUP5 DUP2 PUSH1 0x0 DUP2 MLOAD DUP2 LT PUSH2 0x2727 JUMPI INVALID JUMPDEST PUSH1 0x20 MUL PUSH1 0x20 ADD ADD SWAP1 PUSH1 0x1 PUSH1 0x1 PUSH1 0xA0 SHL SUB AND SWAP1 DUP2 PUSH1 0x1 PUSH1 0x1 PUSH1 0xA0 SHL SUB AND DUP2 MSTORE POP POP DUP4 DUP2 PUSH1 0x1 DUP2 MLOAD DUP2 LT PUSH2 0x2755 JUMPI INVALID JUMPDEST PUSH1 0x1 PUSH1 0x1 PUSH1 0xA0 SHL SUB SWAP3 DUP4 AND PUSH1 0x20 SWAP2 DUP3 MUL SWAP3 SWAP1 SWAP3 ADD DUP2 ADD SWAP2 SWAP1 SWAP2 MSTORE PUSH1 0x76 SLOAD PUSH1 0x40 MLOAD PUSH4 0x38ED1739 PUSH1 0xE0 SHL DUP2 MSTORE PUSH1 0x4 DUP2 ADD DUP8 DUP2 MSTORE PUSH1 0x0 PUSH1 0x24 DUP4 ADD DUP2 SWAP1 MSTORE ADDRESS PUSH1 0x64 DUP5 ADD DUP2 SWAP1 MSTORE TIMESTAMP PUSH1 0x84 DUP6 ADD DUP2 SWAP1 MSTORE PUSH1 0xA0 PUSH1 0x44 DUP7 ADD SWAP1 DUP2 MSTORE DUP10 MLOAD PUSH1 0xA4 DUP8 ADD MSTORE DUP10 MLOAD SWAP4 SWAP9 SWAP7 SWAP1 SWAP7 AND SWAP7 PUSH4 0x38ED1739 SWAP7 DUP13 SWAP7 DUP11 SWAP7 DUP13 SWAP7 SWAP1 SWAP4 PUSH1 0xC4 SWAP1 SWAP3 ADD SWAP2 DUP8 DUP2 ADD SWAP2 MUL DUP1 DUP4 DUP4 DUP12 JUMPDEST DUP4 DUP2 LT ISZERO PUSH2 0x27EE JUMPI DUP2 DUP2 ADD MLOAD DUP4 DUP3 ADD MSTORE PUSH1 0x20 ADD PUSH2 0x27D6 JUMP JUMPDEST POP POP POP POP SWAP1 POP ADD SWAP7 POP POP POP POP POP POP POP PUSH1 0x0 PUSH1 0x40 MLOAD DUP1 DUP4 SUB DUP2 PUSH1 0x0 DUP8 DUP1 EXTCODESIZE ISZERO DUP1 ISZERO PUSH2 0x2817 JUMPI PUSH1 0x0 DUP1 REVERT JUMPDEST POP GAS CALL ISZERO DUP1 ISZERO PUSH2 0x282B JUMPI RETURNDATASIZE PUSH1 0x0 DUP1 RETURNDATACOPY RETURNDATASIZE PUSH1 0x0 REVERT JUMPDEST POP POP POP POP PUSH1 0x40 MLOAD RETURNDATASIZE PUSH1 0x0 DUP3 RETURNDATACOPY PUSH1 0x1F RETURNDATASIZE SWAP1 DUP2 ADD PUSH1 0x1F NOT AND DUP3 ADD PUSH1 0x40 MSTORE PUSH1 0x20 DUP2 LT ISZERO PUSH2 0x2854 JUMPI PUSH1 0x0 DUP1 REVERT JUMPDEST DUP2 ADD SWAP1 DUP1 DUP1 MLOAD PUSH1 0x40 MLOAD SWAP4 SWAP3 SWAP2 SWAP1 DUP5 PUSH5 0x100000000 DUP3 GT ISZERO PUSH2 0x2874 JUMPI PUSH1 0x0 DUP1 REVERT JUMPDEST SWAP1 DUP4 ADD SWAP1 PUSH1 0x20 DUP3 ADD DUP6 DUP2 GT ISZERO PUSH2 0x2889 JUMPI PUSH1 0x0 DUP1 REVERT JUMPDEST DUP3 MLOAD DUP7 PUSH1 0x20 DUP3 MUL DUP4 ADD GT PUSH5 0x100000000 DUP3 GT OR ISZERO PUSH2 0x28A6 JUMPI PUSH1 0x0 DUP1 REVERT JUMPDEST DUP3 MSTORE POP DUP2 MLOAD PUSH1 0x20 SWAP2 DUP3 ADD SWAP3 DUP3 ADD SWAP2 MUL DUP1 DUP4 DUP4 PUSH1 0x0 JUMPDEST DUP4 DUP2 LT ISZERO PUSH2 0x28D3 JUMPI DUP2 DUP2 ADD MLOAD DUP4 DUP3 ADD MSTORE PUSH1 0x20 ADD PUSH2 0x28BB JUMP JUMPDEST POP POP POP POP SWAP1 POP ADD PUSH1 0x40 MSTORE POP POP POP SWAP1 POP DUP1 PUSH1 0x1 DUP2 MLOAD DUP2 LT PUSH2 0x28EF JUMPI INVALID JUMPDEST PUSH1 0x20 MUL PUSH1 0x20 ADD ADD MLOAD SWAP3 POP POP POP SWAP4 SWAP3 POP POP POP JUMP JUMPDEST PUSH1 0x0 DUP3 DUP3 ADD DUP4 DUP2 LT ISZERO PUSH2 0x295C JUMPI PUSH1 0x40 DUP1 MLOAD PUSH3 0x461BCD PUSH1 0xE5 SHL DUP2 MSTORE PUSH1 0x20 PUSH1 0x4 DUP3 ADD MSTORE PUSH1 0x1B PUSH1 0x24 DUP3 ADD MSTORE PUSH32 0x536166654D6174683A206164646974696F6E206F766572666C6F770000000000 PUSH1 0x44 DUP3 ADD MSTORE SWAP1 MLOAD SWAP1 DUP2 SWAP1 SUB PUSH1 0x64 ADD SWAP1 REVERT JUMPDEST SWAP1 POP JUMPDEST SWAP3 SWAP2 POP POP JUMP JUMPDEST PUSH1 0x0 DUP3 PUSH2 0x2974 JUMPI POP PUSH1 0x0 PUSH2 0x295F JUMP JUMPDEST DUP3 DUP3 MUL DUP3 DUP5 DUP3 DUP2 PUSH2 0x2981 JUMPI INVALID JUMPDEST DIV EQ PUSH2 0x295C JUMPI PUSH1 0x40 MLOAD PUSH3 0x461BCD PUSH1 0xE5 SHL DUP2 MSTORE PUSH1 0x4 ADD DUP1 DUP1 PUSH1 0x20 ADD DUP3 DUP2 SUB DUP3 MSTORE PUSH1 0x21 DUP2 MSTORE PUSH1 0x20 ADD DUP1 PUSH2 0x310B PUSH1 0x21 SWAP2 CODECOPY PUSH1 0x40 ADD SWAP2 POP POP PUSH1 0x40 MLOAD DUP1 SWAP2 SUB SWAP1 REVERT JUMPDEST PUSH1 0x0 DUP1 DUP3 GT PUSH2 0x2A14 JUMPI PUSH1 0x40 DUP1 MLOAD PUSH3 0x461BCD PUSH1 0xE5 SHL DUP2 MSTORE PUSH1 0x20 PUSH1 0x4 DUP3 ADD MSTORE PUSH1 0x1A PUSH1 0x24 DUP3 ADD MSTORE PUSH32 0x536166654D6174683A206469766973696F6E206279207A65726F000000000000 PUSH1 0x44 DUP3 ADD MSTORE SWAP1 MLOAD SWAP1 DUP2 SWAP1 SUB PUSH1 0x64 ADD SWAP1 REVERT JUMPDEST DUP2 DUP4 DUP2 PUSH2 0x2A1D JUMPI INVALID JUMPDEST DIV SWAP4 SWAP3 POP POP POP JUMP JUMPDEST PUSH1 0x0 DUP3 DUP3 GT ISZERO PUSH2 0x2A7C JUMPI PUSH1 0x40 DUP1 MLOAD PUSH3 0x461BCD PUSH1 0xE5 SHL DUP2 MSTORE PUSH1 0x20 PUSH1 0x4 DUP3 ADD MSTORE PUSH1 0x1E PUSH1 0x24 DUP3 ADD MSTORE PUSH32 0x536166654D6174683A207375627472616374696F6E206F766572666C6F770000 PUSH1 0x44 DUP3 ADD MSTORE SWAP1 MLOAD SWAP1 DUP2 SWAP1 SUB PUSH1 0x64 ADD SWAP1 REVERT JUMPDEST POP SWAP1 SUB SWAP1 JUMP JUMPDEST PUSH1 0x40 DUP1 MLOAD PUSH1 0x1 PUSH1 0x1 PUSH1 0xA0 SHL SUB DUP5 AND PUSH1 0x24 DUP3 ADD MSTORE PUSH1 0x44 DUP1 DUP3 ADD DUP5 SWAP1 MSTORE DUP3 MLOAD DUP1 DUP4 SUB SWAP1 SWAP2 ADD DUP2 MSTORE PUSH1 0x64 SWAP1 SWAP2 ADD SWAP1 SWAP2 MSTORE PUSH1 0x20 DUP2 ADD DUP1 MLOAD PUSH1 0x1 PUSH1 0x1 PUSH1 0xE0 SHL SUB AND PUSH4 0xA9059CBB PUSH1 0xE0 SHL OR SWAP1 MSTORE PUSH2 0x2AD4 SWAP1 DUP5 SWAP1 PUSH2 0x2BFC JUMP JUMPDEST POP POP POP JUMP JUMPDEST PUSH1 0x40 DUP1 MLOAD PUSH1 0x1 PUSH1 0x1 PUSH1 0xA0 SHL SUB DUP1 DUP7 AND PUSH1 0x24 DUP4 ADD MSTORE DUP5 AND PUSH1 0x44 DUP3 ADD MSTORE PUSH1 0x64 DUP1 DUP3 ADD DUP5 SWAP1 MSTORE DUP3 MLOAD DUP1 DUP4 SUB SWAP1 SWAP2 ADD DUP2 MSTORE PUSH1 0x84 SWAP1 SWAP2 ADD SWAP1 SWAP2 MSTORE PUSH1 0x20 DUP2 ADD DUP1 MLOAD PUSH1 0x1 PUSH1 0x1 PUSH1 0xE0 SHL SUB AND PUSH4 0x23B872DD PUSH1 0xE0 SHL OR SWAP1 MSTORE PUSH2 0x2B33 SWAP1 DUP6 SWAP1 PUSH2 0x2BFC JUMP JUMPDEST POP POP POP POP JUMP JUMPDEST PUSH1 0x0 PUSH2 0x2B44 ADDRESS PUSH2 0x2CAD JUMP JUMPDEST ISZERO SWAP1 POP SWAP1 JUMP JUMPDEST PUSH1 0x0 SLOAD PUSH2 0x100 SWAP1 DIV PUSH1 0xFF AND DUP1 PUSH2 0x2B63 JUMPI POP PUSH2 0x2B63 PUSH2 0x2B39 JUMP JUMPDEST DUP1 PUSH2 0x2B71 JUMPI POP PUSH1 0x0 SLOAD PUSH1 0xFF AND ISZERO JUMPDEST PUSH2 0x2BAC JUMPI PUSH1 0x40 MLOAD PUSH3 0x461BCD PUSH1 0xE5 SHL DUP2 MSTORE PUSH1 0x4 ADD DUP1 DUP1 PUSH1 0x20 ADD DUP3 DUP2 SUB DUP3 MSTORE PUSH1 0x2E DUP2 MSTORE PUSH1 0x20 ADD DUP1 PUSH2 0x30DD PUSH1 0x2E SWAP2 CODECOPY PUSH1 0x40 ADD SWAP2 POP POP PUSH1 0x40 MLOAD DUP1 SWAP2 SUB SWAP1 REVERT JUMPDEST PUSH1 0x0 SLOAD PUSH2 0x100 SWAP1 DIV PUSH1 0xFF AND ISZERO DUP1 ISZERO PUSH2 0x2BD7 JUMPI PUSH1 0x0 DUP1 SLOAD PUSH1 0xFF NOT PUSH2 0xFF00 NOT SWAP1 SWAP2 AND PUSH2 0x100 OR AND PUSH1 0x1 OR SWAP1 SSTORE JUMPDEST PUSH2 0x2BDF PUSH2 0x2CB3 JUMP JUMPDEST PUSH2 0x2BE7 PUSH2 0x2D53 JUMP JUMPDEST DUP1 ISZERO PUSH2 0x2BF9 JUMPI PUSH1 0x0 DUP1 SLOAD PUSH2 0xFF00 NOT AND SWAP1 SSTORE JUMPDEST POP JUMP JUMPDEST PUSH1 0x0 PUSH2 0x2C51 DUP3 PUSH1 0x40 MLOAD DUP1 PUSH1 0x40 ADD PUSH1 0x40 MSTORE DUP1 PUSH1 0x20 DUP2 MSTORE PUSH1 0x20 ADD PUSH32 0x5361666545524332303A206C6F772D6C6576656C2063616C6C206661696C6564 DUP2 MSTORE POP DUP6 PUSH1 0x1 PUSH1 0x1 PUSH1 0xA0 SHL SUB AND PUSH2 0x2E4C SWAP1 SWAP3 SWAP2 SWAP1 PUSH4 0xFFFFFFFF AND JUMP JUMPDEST DUP1 MLOAD SWAP1 SWAP2 POP ISZERO PUSH2 0x2AD4 JUMPI DUP1 DUP1 PUSH1 0x20 ADD SWAP1 MLOAD PUSH1 0x20 DUP2 LT ISZERO PUSH2 0x2C70 JUMPI PUSH1 0x0 DUP1 REVERT JUMPDEST POP MLOAD PUSH2 0x2AD4 JUMPI PUSH1 0x40 MLOAD PUSH3 0x461BCD PUSH1 0xE5 SHL DUP2 MSTORE PUSH1 0x4 ADD DUP1 DUP1 PUSH1 0x20 ADD DUP3 DUP2 SUB DUP3 MSTORE PUSH1 0x2A DUP2 MSTORE PUSH1 0x20 ADD DUP1 PUSH2 0x314C PUSH1 0x2A SWAP2 CODECOPY PUSH1 0x40 ADD SWAP2 POP POP PUSH1 0x40 MLOAD DUP1 SWAP2 SUB SWAP1 REVERT JUMPDEST EXTCODESIZE ISZERO ISZERO SWAP1 JUMP JUMPDEST PUSH1 0x0 SLOAD PUSH2 0x100 SWAP1 DIV PUSH1 0xFF AND DUP1 PUSH2 0x2CCC JUMPI POP PUSH2 0x2CCC PUSH2 0x2B39 JUMP JUMPDEST DUP1 PUSH2 0x2CDA JUMPI POP PUSH1 0x0 SLOAD PUSH1 0xFF AND ISZERO JUMPDEST PUSH2 0x2D15 JUMPI PUSH1 0x40 MLOAD PUSH3 0x461BCD PUSH1 0xE5 SHL DUP2 MSTORE PUSH1 0x4 ADD DUP1 DUP1 PUSH1 0x20 ADD DUP3 DUP2 SUB DUP3 MSTORE PUSH1 0x2E DUP2 MSTORE PUSH1 0x20 ADD DUP1 PUSH2 0x30DD PUSH1 0x2E SWAP2 CODECOPY PUSH1 0x40 ADD SWAP2 POP POP PUSH1 0x40 MLOAD DUP1 SWAP2 SUB SWAP1 REVERT JUMPDEST PUSH1 0x0 SLOAD PUSH2 0x100 SWAP1 DIV PUSH1 0xFF AND ISZERO DUP1 ISZERO PUSH2 0x2BE7 JUMPI PUSH1 0x0 DUP1 SLOAD PUSH1 0xFF NOT PUSH2 0xFF00 NOT SWAP1 SWAP2 AND PUSH2 0x100 OR AND PUSH1 0x1 OR SWAP1 SSTORE DUP1 ISZERO PUSH2 0x2BF9 JUMPI PUSH1 0x0 DUP1 SLOAD PUSH2 0xFF00 NOT AND SWAP1 SSTORE POP JUMP JUMPDEST PUSH1 0x0 SLOAD PUSH2 0x100 SWAP1 DIV PUSH1 0xFF AND DUP1 PUSH2 0x2D6C JUMPI POP PUSH2 0x2D6C PUSH2 0x2B39 JUMP JUMPDEST DUP1 PUSH2 0x2D7A JUMPI POP PUSH1 0x0 SLOAD PUSH1 0xFF AND ISZERO JUMPDEST PUSH2 0x2DB5 JUMPI PUSH1 0x40 MLOAD PUSH3 0x461BCD PUSH1 0xE5 SHL DUP2 MSTORE PUSH1 0x4 ADD DUP1 DUP1 PUSH1 0x20 ADD DUP3 DUP2 SUB DUP3 MSTORE PUSH1 0x2E DUP2 MSTORE PUSH1 0x20 ADD DUP1 PUSH2 0x30DD PUSH1 0x2E SWAP2 CODECOPY PUSH1 0x40 ADD SWAP2 POP POP PUSH1 0x40 MLOAD DUP1 SWAP2 SUB SWAP1 REVERT JUMPDEST PUSH1 0x0 SLOAD PUSH2 0x100 SWAP1 DIV PUSH1 0xFF AND ISZERO DUP1 ISZERO PUSH2 0x2DE0 JUMPI PUSH1 0x0 DUP1 SLOAD PUSH1 0xFF NOT PUSH2 0xFF00 NOT SWAP1 SWAP2 AND PUSH2 0x100 OR AND PUSH1 0x1 OR SWAP1 SSTORE JUMPDEST PUSH1 0x0 PUSH2 0x2DEA PUSH2 0x26F0 JUMP JUMPDEST PUSH1 0x33 DUP1 SLOAD PUSH1 0x1 PUSH1 0x1 PUSH1 0xA0 SHL SUB NOT AND PUSH1 0x1 PUSH1 0x1 PUSH1 0xA0 SHL SUB DUP4 AND SWAP1 DUP2 OR SWAP1 SWAP2 SSTORE PUSH1 0x40 MLOAD SWAP2 SWAP3 POP SWAP1 PUSH1 0x0 SWAP1 PUSH32 0x8BE0079C531659141344CD1FD0A4F28419497F9722A3DAAFE3B4186F6B6457E0 SWAP1 DUP3 SWAP1 LOG3 POP DUP1 ISZERO PUSH2 0x2BF9 JUMPI PUSH1 0x0 DUP1 SLOAD PUSH2 0xFF00 NOT AND SWAP1 SSTORE POP JUMP JUMPDEST PUSH1 0x60 PUSH2 0x2E5B DUP5 DUP5 PUSH1 0x0 DUP6 PUSH2 0x2E65 JUMP JUMPDEST SWAP1 POP JUMPDEST SWAP4 SWAP3 POP POP POP JUMP JUMPDEST PUSH1 0x60 DUP3 SELFBALANCE LT ISZERO PUSH2 0x2EA6 JUMPI PUSH1 0x40 MLOAD PUSH3 0x461BCD PUSH1 0xE5 SHL DUP2 MSTORE PUSH1 0x4 ADD DUP1 DUP1 PUSH1 0x20 ADD DUP3 DUP2 SUB DUP3 MSTORE PUSH1 0x26 DUP2 MSTORE PUSH1 0x20 ADD DUP1 PUSH2 0x30B7 PUSH1 0x26 SWAP2 CODECOPY PUSH1 0x40 ADD SWAP2 POP POP PUSH1 0x40 MLOAD DUP1 SWAP2 SUB SWAP1 REVERT JUMPDEST PUSH2 0x2EAF DUP6 PUSH2 0x2CAD JUMP JUMPDEST PUSH2 0x2F00 JUMPI PUSH1 0x40 DUP1 MLOAD PUSH3 0x461BCD PUSH1 0xE5 SHL DUP2 MSTORE PUSH1 0x20 PUSH1 0x4 DUP3 ADD MSTORE PUSH1 0x1D PUSH1 0x24 DUP3 ADD MSTORE PUSH32 0x416464726573733A2063616C6C20746F206E6F6E2D636F6E7472616374000000 PUSH1 0x44 DUP3 ADD MSTORE SWAP1 MLOAD SWAP1 DUP2 SWAP1 SUB PUSH1 0x64 ADD SWAP1 REVERT JUMPDEST PUSH1 0x0 DUP1 DUP7 PUSH1 0x1 PUSH1 0x1 PUSH1 0xA0 SHL SUB AND DUP6 DUP8 PUSH1 0x40 MLOAD DUP1 DUP3 DUP1 MLOAD SWAP1 PUSH1 0x20 ADD SWAP1 DUP1 DUP4 DUP4 JUMPDEST PUSH1 0x20 DUP4 LT PUSH2 0x2F3E JUMPI DUP1 MLOAD DUP3 MSTORE PUSH1 0x1F NOT SWAP1 SWAP3 ADD SWAP2 PUSH1 0x20 SWAP2 DUP3 ADD SWAP2 ADD PUSH2 0x2F1F JUMP JUMPDEST PUSH1 0x1 DUP4 PUSH1 0x20 SUB PUSH2 0x100 EXP SUB DUP1 NOT DUP3 MLOAD AND DUP2 DUP5 MLOAD AND DUP1 DUP3 OR DUP6 MSTORE POP POP POP POP POP POP SWAP1 POP ADD SWAP2 POP POP PUSH1 0x0 PUSH1 0x40 MLOAD DUP1 DUP4 SUB DUP2 DUP6 DUP8 GAS CALL SWAP3 POP POP POP RETURNDATASIZE DUP1 PUSH1 0x0 DUP2 EQ PUSH2 0x2FA0 JUMPI PUSH1 0x40 MLOAD SWAP2 POP PUSH1 0x1F NOT PUSH1 0x3F RETURNDATASIZE ADD AND DUP3 ADD PUSH1 0x40 MSTORE RETURNDATASIZE DUP3 MSTORE RETURNDATASIZE PUSH1 0x0 PUSH1 0x20 DUP5 ADD RETURNDATACOPY PUSH2 0x2FA5 JUMP JUMPDEST PUSH1 0x60 SWAP2 POP JUMPDEST POP SWAP2 POP SWAP2 POP PUSH2 0x2FB5 DUP3 DUP3 DUP7 PUSH2 0x2FC0 JUMP JUMPDEST SWAP8 SWAP7 POP POP POP POP POP POP POP JUMP JUMPDEST PUSH1 0x60 DUP4 ISZERO PUSH2 0x2FCF JUMPI POP DUP2 PUSH2 0x2E5E JUMP JUMPDEST DUP3 MLOAD ISZERO PUSH2 0x2FDF JUMPI DUP3 MLOAD DUP1 DUP5 PUSH1 0x20 ADD REVERT JUMPDEST DUP2 PUSH1 0x40 MLOAD PUSH3 0x461BCD PUSH1 0xE5 SHL DUP2 MSTORE PUSH1 0x4 ADD DUP1 DUP1 PUSH1 0x20 ADD DUP3 DUP2 SUB DUP3 MSTORE DUP4 DUP2 DUP2 MLOAD DUP2 MSTORE PUSH1 0x20 ADD SWAP2 POP DUP1 MLOAD SWAP1 PUSH1 0x20 ADD SWAP1 DUP1 DUP4 DUP4 PUSH1 0x0 JUMPDEST DUP4 DUP2 LT ISZERO PUSH2 0x3029 JUMPI DUP2 DUP2 ADD MLOAD DUP4 DUP3 ADD MSTORE PUSH1 0x20 ADD PUSH2 0x3011 JUMP JUMPDEST POP POP POP POP SWAP1 POP SWAP1 DUP2 ADD SWAP1 PUSH1 0x1F AND DUP1 ISZERO PUSH2 0x3056 JUMPI DUP1 DUP3 SUB DUP1 MLOAD PUSH1 0x1 DUP4 PUSH1 0x20 SUB PUSH2 0x100 EXP SUB NOT AND DUP2 MSTORE PUSH1 0x20 ADD SWAP2 POP JUMPDEST POP SWAP3 POP POP POP PUSH1 0x40 MLOAD DUP1 SWAP2 SUB SWAP1 REVERT INVALID PUSH22 0x70646174653A2077726F6E67206661726D6564207265 PUSH24 0x617264656420746F6B656E2C206E6F74204F4E454F776E61 PUSH3 0x6C653A KECCAK256 PUSH15 0x6577206F776E657220697320746865 KECCAK256 PUSH27 0x65726F2061646472657373416464726573733A20696E7375666669 PUSH4 0x69656E74 KECCAK256 PUSH3 0x616C61 PUSH15 0x636520666F722063616C6C496E6974 PUSH10 0x616C697A61626C653A20 PUSH4 0x6F6E7472 PUSH2 0x6374 KECCAK256 PUSH10 0x7320616C726561647920 PUSH10 0x6E697469616C697A6564 MSTORE8 PUSH2 0x6665 0x4D PUSH2 0x7468 GASPRICE KECCAK256 PUSH14 0x756C7469706C69636174696F6E20 PUSH16 0x766572666C6F774F776E61626C653A20 PUSH4 0x616C6C65 PUSH19 0x206973206E6F7420746865206F776E65725361 PUSH7 0x6545524332303A KECCAK256 GASLIMIT MSTORE NUMBER ORIGIN ADDRESS KECCAK256 PUSH16 0x7065726174696F6E20646964206E6F74 KECCAK256 PUSH20 0x756363656564A2646970667358221220B4AD6230 0xA7 0x5C CALLDATALOAD CREATE REVERT CALLDATALOAD SMOD PUSH25 0xC629DE1FF91FC8D912DDEB1871B2CF4D3CF6883864736F6C63 NUMBER STOP SMOD MOD STOP CALLER "
        },
        "gasEstimates": {
          "creation": {
            "codeDepositCost": "2543000",
            "executionCost": "2748",
            "totalCost": "2545748"
          },
          "external": {
            "accONEPerSLP()": "1087",
            "accSUSHIPerSLP()": "1043",
            "deposit(address,uint256)": "infinite",
            "harvest()": "infinite",
            "initialize(address,address,address,address,address,address,address,address)": "infinite",
            "lastTime()": "1088",
            "one()": "1170",
            "owner()": "1148",
            "pid()": "242",
            "profitSharingFeePerc()": "1066",
            "renounceOwnership()": "infinite",
            "rewardToken()": "1147",
            "rewarder()": "1126",
            "sellRewards()": "infinite",
            "setProfitSharingFeePerc(uint256)": "infinite",
            "setTreasuryWallet(address)": "infinite",
            "slp()": "1084",
            "sushi()": "1106",
            "sushiSwapChef()": "1127",
            "sushiSwapRouter()": "1169",
            "totalBoughtToken()": "1044",
            "totalFarmedONE()": "1109",
            "totalFarmedSUSHI()": "1110",
            "totalPendingONESold()": "1111",
            "totalPendingSUSHISold()": "1110",
            "totalPendingTokenFromONE()": "1065",
            "totalSLPAmount()": "1088",
            "transferOwnership(address)": "infinite",
            "treasuryWallet()": "1149",
            "update()": "infinite",
            "usdc1()": "1104",
            "usdt1()": "1083",
            "userInfo(address)": "2887",
            "withdraw(address,uint256)": "infinite"
          },
          "internal": {
            "_swap(address,address,uint256)": "infinite"
          }
        },
        "methodIdentifiers": {
          "accONEPerSLP()": "a670724f",
          "accSUSHIPerSLP()": "d88e638f",
          "deposit(address,uint256)": "47e7ef24",
          "harvest()": "4641257d",
          "initialize(address,address,address,address,address,address,address,address)": "8a29e2de",
          "lastTime()": "93e9a084",
          "one()": "901717d1",
          "owner()": "8da5cb5b",
          "pid()": "f1068454",
          "profitSharingFeePerc()": "9367b30e",
          "renounceOwnership()": "715018a6",
          "rewardToken()": "f7c618c1",
          "rewarder()": "dcc3e06e",
          "sellRewards()": "368b71cd",
          "setProfitSharingFeePerc(uint256)": "a6478c1f",
          "setTreasuryWallet(address)": "a8602fea",
          "slp()": "02824acc",
          "sushi()": "0a087903",
          "sushiSwapChef()": "613768b6",
          "sushiSwapRouter()": "fd829a23",
          "totalBoughtToken()": "250a5e1f",
          "totalFarmedONE()": "f087e88a",
          "totalFarmedSUSHI()": "97679e4e",
          "totalPendingONESold()": "22ef80b3",
          "totalPendingSUSHISold()": "6c87309d",
          "totalPendingTokenFromONE()": "da38305c",
          "totalSLPAmount()": "36ab5579",
          "transferOwnership(address)": "f2fde38b",
          "treasuryWallet()": "4626402b",
          "update()": "a2e62045",
          "usdc1()": "81b3c0f1",
          "usdt1()": "9359f729",
          "userInfo(address)": "1959a002",
          "withdraw(address,uint256)": "f3fef3a3"
        }
      },
      "storageLayout": {
        "storage": [
          {
            "astId": 492,
            "contract": "contracts/PowerBombUpgradeable.sol:PowerBombUpgradeable",
            "label": "_initialized",
            "offset": 0,
            "slot": "0",
            "type": "t_bool"
          },
          {
            "astId": 495,
            "contract": "contracts/PowerBombUpgradeable.sol:PowerBombUpgradeable",
            "label": "_initializing",
            "offset": 1,
            "slot": "0",
            "type": "t_bool"
          },
          {
            "astId": 1130,
            "contract": "contracts/PowerBombUpgradeable.sol:PowerBombUpgradeable",
            "label": "__gap",
            "offset": 0,
            "slot": "1",
            "type": "t_array(t_uint256)50_storage"
          },
          {
            "astId": 10,
            "contract": "contracts/PowerBombUpgradeable.sol:PowerBombUpgradeable",
            "label": "_owner",
            "offset": 0,
            "slot": "51",
            "type": "t_address"
          },
          {
            "astId": 129,
            "contract": "contracts/PowerBombUpgradeable.sol:PowerBombUpgradeable",
            "label": "__gap",
            "offset": 0,
            "slot": "52",
            "type": "t_array(t_uint256)49_storage"
          },
          {
            "astId": 1150,
            "contract": "contracts/PowerBombUpgradeable.sol:PowerBombUpgradeable",
            "label": "usdt1",
            "offset": 0,
            "slot": "101",
            "type": "t_address"
          },
          {
            "astId": 1152,
            "contract": "contracts/PowerBombUpgradeable.sol:PowerBombUpgradeable",
            "label": "usdc1",
            "offset": 0,
            "slot": "102",
            "type": "t_address"
          },
          {
            "astId": 1154,
            "contract": "contracts/PowerBombUpgradeable.sol:PowerBombUpgradeable",
            "label": "slp",
            "offset": 0,
            "slot": "103",
            "type": "t_address"
          },
          {
            "astId": 1156,
            "contract": "contracts/PowerBombUpgradeable.sol:PowerBombUpgradeable",
            "label": "one",
            "offset": 0,
            "slot": "104",
            "type": "t_address"
          },
          {
            "astId": 1158,
            "contract": "contracts/PowerBombUpgradeable.sol:PowerBombUpgradeable",
            "label": "sushi",
            "offset": 0,
            "slot": "105",
            "type": "t_address"
          },
          {
            "astId": 1160,
            "contract": "contracts/PowerBombUpgradeable.sol:PowerBombUpgradeable",
            "label": "rewardToken",
            "offset": 0,
            "slot": "106",
            "type": "t_address"
          },
          {
            "astId": 1162,
            "contract": "contracts/PowerBombUpgradeable.sol:PowerBombUpgradeable",
            "label": "totalSLPAmount",
            "offset": 0,
            "slot": "107",
            "type": "t_uint256"
          },
          {
            "astId": 1164,
            "contract": "contracts/PowerBombUpgradeable.sol:PowerBombUpgradeable",
            "label": "totalFarmedONE",
            "offset": 0,
            "slot": "108",
            "type": "t_uint256"
          },
          {
            "astId": 1166,
            "contract": "contracts/PowerBombUpgradeable.sol:PowerBombUpgradeable",
            "label": "totalFarmedSUSHI",
            "offset": 0,
            "slot": "109",
            "type": "t_uint256"
          },
          {
            "astId": 1168,
            "contract": "contracts/PowerBombUpgradeable.sol:PowerBombUpgradeable",
            "label": "totalPendingONESold",
            "offset": 0,
            "slot": "110",
            "type": "t_uint256"
          },
          {
            "astId": 1170,
            "contract": "contracts/PowerBombUpgradeable.sol:PowerBombUpgradeable",
            "label": "totalPendingSUSHISold",
            "offset": 0,
            "slot": "111",
            "type": "t_uint256"
          },
          {
            "astId": 1172,
            "contract": "contracts/PowerBombUpgradeable.sol:PowerBombUpgradeable",
            "label": "totalBoughtToken",
            "offset": 0,
            "slot": "112",
            "type": "t_uint256"
          },
          {
            "astId": 1174,
            "contract": "contracts/PowerBombUpgradeable.sol:PowerBombUpgradeable",
            "label": "totalPendingTokenFromONE",
            "offset": 0,
            "slot": "113",
            "type": "t_uint256"
          },
          {
            "astId": 1185,
            "contract": "contracts/PowerBombUpgradeable.sol:PowerBombUpgradeable",
            "label": "userInfo",
            "offset": 0,
            "slot": "114",
            "type": "t_mapping(t_address,t_struct(UserInfo)1181_storage)"
          },
          {
            "astId": 1187,
            "contract": "contracts/PowerBombUpgradeable.sol:PowerBombUpgradeable",
            "label": "lastTime",
            "offset": 0,
            "slot": "115",
            "type": "t_uint256"
          },
          {
            "astId": 1189,
            "contract": "contracts/PowerBombUpgradeable.sol:PowerBombUpgradeable",
            "label": "accONEPerSLP",
            "offset": 0,
            "slot": "116",
            "type": "t_uint256"
          },
          {
            "astId": 1191,
            "contract": "contracts/PowerBombUpgradeable.sol:PowerBombUpgradeable",
            "label": "accSUSHIPerSLP",
            "offset": 0,
            "slot": "117",
            "type": "t_uint256"
          },
          {
            "astId": 1196,
            "contract": "contracts/PowerBombUpgradeable.sol:PowerBombUpgradeable",
            "label": "sushiSwapRouter",
            "offset": 0,
            "slot": "118",
            "type": "t_contract(ISushiSwapV2Router02)3358"
          },
          {
            "astId": 1198,
            "contract": "contracts/PowerBombUpgradeable.sol:PowerBombUpgradeable",
            "label": "sushiSwapChef",
            "offset": 0,
            "slot": "119",
            "type": "t_contract(ISushiSwapV2MiniChef)2962"
          },
          {
            "astId": 1200,
            "contract": "contracts/PowerBombUpgradeable.sol:PowerBombUpgradeable",
            "label": "rewarder",
            "offset": 0,
            "slot": "120",
            "type": "t_contract(IRewarder)2865"
          },
          {
            "astId": 1205,
            "contract": "contracts/PowerBombUpgradeable.sol:PowerBombUpgradeable",
            "label": "profitSharingFeePerc",
            "offset": 0,
            "slot": "121",
            "type": "t_uint256"
          },
          {
            "astId": 1207,
            "contract": "contracts/PowerBombUpgradeable.sol:PowerBombUpgradeable",
            "label": "treasuryWallet",
            "offset": 0,
            "slot": "122",
            "type": "t_address"
          },
          {
            "astId": 2833,
            "contract": "contracts/PowerBombUpgradeable.sol:PowerBombUpgradeable",
            "label": "__gap",
            "offset": 0,
            "slot": "123",
            "type": "t_array(t_uint256)28_storage"
          }
        ],
        "types": {
          "t_address": {
            "encoding": "inplace",
            "label": "address",
            "numberOfBytes": "20"
          },
          "t_array(t_uint256)28_storage": {
            "base": "t_uint256",
            "encoding": "inplace",
            "label": "uint256[28]",
            "numberOfBytes": "896"
          },
          "t_array(t_uint256)49_storage": {
            "base": "t_uint256",
            "encoding": "inplace",
            "label": "uint256[49]",
            "numberOfBytes": "1568"
          },
          "t_array(t_uint256)50_storage": {
            "base": "t_uint256",
            "encoding": "inplace",
            "label": "uint256[50]",
            "numberOfBytes": "1600"
          },
          "t_bool": {
            "encoding": "inplace",
            "label": "bool",
            "numberOfBytes": "1"
          },
          "t_contract(IRewarder)2865": {
            "encoding": "inplace",
            "label": "contract IRewarder",
            "numberOfBytes": "20"
          },
          "t_contract(ISushiSwapV2MiniChef)2962": {
            "encoding": "inplace",
            "label": "contract ISushiSwapV2MiniChef",
            "numberOfBytes": "20"
          },
          "t_contract(ISushiSwapV2Router02)3358": {
            "encoding": "inplace",
            "label": "contract ISushiSwapV2Router02",
            "numberOfBytes": "20"
          },
          "t_mapping(t_address,t_struct(UserInfo)1181_storage)": {
            "encoding": "mapping",
            "key": "t_address",
            "label": "mapping(address => struct PowerBombUpgradeable.UserInfo)",
            "numberOfBytes": "32",
            "value": "t_struct(UserInfo)1181_storage"
          },
          "t_struct(UserInfo)1181_storage": {
            "encoding": "inplace",
            "label": "struct PowerBombUpgradeable.UserInfo",
            "members": [
              {
                "astId": 1176,
                "contract": "contracts/PowerBombUpgradeable.sol:PowerBombUpgradeable",
                "label": "slpAmount",
                "offset": 0,
                "slot": "0",
                "type": "t_uint256"
              },
              {
                "astId": 1178,
                "contract": "contracts/PowerBombUpgradeable.sol:PowerBombUpgradeable",
                "label": "finishedONE",
                "offset": 0,
                "slot": "1",
                "type": "t_uint256"
              },
              {
                "astId": 1180,
                "contract": "contracts/PowerBombUpgradeable.sol:PowerBombUpgradeable",
                "label": "finishedSUSHI",
                "offset": 0,
                "slot": "2",
                "type": "t_uint256"
              }
            ],
            "numberOfBytes": "96"
          },
          "t_uint256": {
            "encoding": "inplace",
            "label": "uint256",
            "numberOfBytes": "32"
          }
        }
      },
      "userdoc": {
        "kind": "user",
        "methods": {
          "setProfitSharingFeePerc(uint256)": {
            "notice": "Function to set new profit sharing fee percentage"
          },
          "setTreasuryWallet(address)": {
            "notice": "Function to set new treasury wallet address"
          }
        },
        "version": 1
      }
    }
  }
}